{
  "contractName": "GameManager",
  "abi": [
    {
      "anonymous": false,
      "inputs": [
        {
          "indexed": true,
          "internalType": "address",
          "name": "receiver",
          "type": "address"
        },
        {
          "indexed": true,
          "internalType": "uint256",
          "name": "tokenId",
          "type": "uint256"
        }
      ],
      "name": "Airdrop",
      "type": "event"
    },
    {
      "anonymous": false,
      "inputs": [
        {
          "indexed": false,
          "internalType": "uint256",
          "name": "tokenId",
          "type": "uint256"
        },
        {
          "indexed": true,
          "internalType": "address",
          "name": "owner",
          "type": "address"
        }
      ],
      "name": "BuildBaseStation",
      "type": "event"
    },
    {
      "anonymous": false,
      "inputs": [
        {
          "indexed": false,
          "internalType": "uint256",
          "name": "tokenId",
          "type": "uint256"
        },
        {
          "indexed": true,
          "internalType": "address",
          "name": "owner",
          "type": "address"
        },
        {
          "indexed": false,
          "internalType": "uint8",
          "name": "level",
          "type": "uint8"
        }
      ],
      "name": "BuildPowerProduction",
      "type": "event"
    },
    {
      "anonymous": false,
      "inputs": [
        {
          "indexed": false,
          "internalType": "uint256",
          "name": "tokenId",
          "type": "uint256"
        },
        {
          "indexed": true,
          "internalType": "address",
          "name": "owner",
          "type": "address"
        },
        {
          "indexed": false,
          "internalType": "uint8",
          "name": "level",
          "type": "uint8"
        }
      ],
      "name": "BuildRobotAssembly",
      "type": "event"
    },
    {
      "anonymous": false,
      "inputs": [
        {
          "indexed": false,
          "internalType": "uint256",
          "name": "tokenId",
          "type": "uint256"
        },
        {
          "indexed": true,
          "internalType": "address",
          "name": "owner",
          "type": "address"
        },
        {
          "indexed": false,
          "internalType": "uint8",
          "name": "level",
          "type": "uint8"
        }
      ],
      "name": "BuildTransport",
      "type": "event"
    },
    {
      "anonymous": false,
      "inputs": [
        {
          "indexed": false,
          "internalType": "address",
          "name": "account",
          "type": "address"
        }
      ],
      "name": "Paused",
      "type": "event"
    },
    {
      "anonymous": false,
      "inputs": [
        {
          "indexed": false,
          "internalType": "address",
          "name": "account",
          "type": "address"
        }
      ],
      "name": "Unpaused",
      "type": "event"
    },
    {
      "inputs": [],
      "name": "CLNYAddress",
      "outputs": [
        {
          "internalType": "address",
          "name": "",
          "type": "address"
        }
      ],
      "stateMutability": "view",
      "type": "function"
    },
    {
      "inputs": [],
      "name": "DAO",
      "outputs": [
        {
          "internalType": "address",
          "name": "",
          "type": "address"
        }
      ],
      "stateMutability": "view",
      "type": "function"
    },
    {
      "inputs": [],
      "name": "MCAddress",
      "outputs": [
        {
          "internalType": "address",
          "name": "",
          "type": "address"
        }
      ],
      "stateMutability": "view",
      "type": "function"
    },
    {
      "inputs": [],
      "name": "liquidity",
      "outputs": [
        {
          "internalType": "address",
          "name": "",
          "type": "address"
        }
      ],
      "stateMutability": "view",
      "type": "function"
    },
    {
      "inputs": [],
      "name": "maxTokenId",
      "outputs": [
        {
          "internalType": "uint256",
          "name": "",
          "type": "uint256"
        }
      ],
      "stateMutability": "view",
      "type": "function"
    },
    {
      "inputs": [],
      "name": "paused",
      "outputs": [
        {
          "internalType": "bool",
          "name": "",
          "type": "bool"
        }
      ],
      "stateMutability": "view",
      "type": "function"
    },
    {
      "inputs": [],
      "name": "price",
      "outputs": [
        {
          "internalType": "uint256",
          "name": "",
          "type": "uint256"
        }
      ],
      "stateMutability": "view",
      "type": "function"
    },
    {
      "inputs": [],
      "name": "treasury",
      "outputs": [
        {
          "internalType": "address",
          "name": "",
          "type": "address"
        }
      ],
      "stateMutability": "view",
      "type": "function"
    },
    {
      "inputs": [
        {
          "internalType": "address",
          "name": "_DAO",
          "type": "address"
        },
        {
          "internalType": "address",
          "name": "_CLNYAddress",
          "type": "address"
        },
        {
          "internalType": "address",
          "name": "_MCAddress",
          "type": "address"
        },
        {
          "internalType": "address",
          "name": "_treasury",
          "type": "address"
        },
        {
          "internalType": "address",
          "name": "_liquidity",
          "type": "address"
        }
      ],
      "name": "initialize",
      "outputs": [],
      "stateMutability": "nonpayable",
      "type": "function"
    },
    {
      "inputs": [
        {
          "internalType": "address",
          "name": "_DAO",
          "type": "address"
        }
      ],
      "name": "transferDAO",
      "outputs": [],
      "stateMutability": "nonpayable",
      "type": "function"
    },
    {
      "inputs": [
        {
          "internalType": "address",
          "name": "_treasury",
          "type": "address"
        }
      ],
      "name": "setTreasury",
      "outputs": [],
      "stateMutability": "nonpayable",
      "type": "function"
    },
    {
      "inputs": [
        {
          "internalType": "address",
          "name": "_liquidity",
          "type": "address"
        }
      ],
      "name": "setLiquidity",
      "outputs": [],
      "stateMutability": "nonpayable",
      "type": "function"
    },
    {
      "inputs": [
        {
          "internalType": "uint256",
          "name": "tokenCount",
          "type": "uint256"
        }
      ],
      "name": "getFee",
      "outputs": [
        {
          "internalType": "uint256",
          "name": "",
          "type": "uint256"
        }
      ],
      "stateMutability": "view",
      "type": "function"
    },
    {
      "inputs": [
        {
          "internalType": "uint256",
          "name": "_price",
          "type": "uint256"
        }
      ],
      "name": "setPrice",
      "outputs": [],
      "stateMutability": "nonpayable",
      "type": "function"
    },
    {
      "inputs": [
        {
          "internalType": "uint256",
          "name": "_id",
          "type": "uint256"
        }
      ],
      "name": "setMaxTokenId",
      "outputs": [],
      "stateMutability": "nonpayable",
      "type": "function"
    },
    {
      "inputs": [
        {
          "internalType": "address",
          "name": "_address",
          "type": "address"
        }
      ],
      "name": "setCLNYAddress",
      "outputs": [],
      "stateMutability": "nonpayable",
      "type": "function"
    },
    {
      "inputs": [
        {
          "internalType": "address",
          "name": "_address",
          "type": "address"
        }
      ],
      "name": "setMCAddress",
      "outputs": [],
      "stateMutability": "nonpayable",
      "type": "function"
    },
    {
      "inputs": [
        {
          "internalType": "uint256",
          "name": "tokenId",
          "type": "uint256"
        }
      ],
      "name": "claimOne",
      "outputs": [],
      "stateMutability": "payable",
      "type": "function"
    },
    {
      "inputs": [
        {
          "internalType": "uint256[]",
          "name": "tokenIds",
          "type": "uint256[]"
        }
      ],
      "name": "claim",
      "outputs": [],
      "stateMutability": "payable",
      "type": "function"
    },
    {
      "inputs": [],
      "name": "pause",
      "outputs": [],
      "stateMutability": "nonpayable",
      "type": "function"
    },
    {
      "inputs": [],
      "name": "unpause",
      "outputs": [],
      "stateMutability": "nonpayable",
      "type": "function"
    },
    {
      "inputs": [
        {
          "internalType": "address",
          "name": "receiver",
          "type": "address"
        },
        {
          "internalType": "uint256",
          "name": "tokenId",
          "type": "uint256"
        }
      ],
      "name": "airdrop",
      "outputs": [],
      "stateMutability": "nonpayable",
      "type": "function"
    },
    {
      "inputs": [
        {
          "internalType": "uint256",
          "name": "tokenId",
          "type": "uint256"
        }
      ],
      "name": "getLastCheckout",
      "outputs": [
        {
          "internalType": "uint256",
          "name": "",
          "type": "uint256"
        }
      ],
      "stateMutability": "view",
      "type": "function"
    },
    {
      "inputs": [
        {
          "internalType": "uint256",
          "name": "tokenId",
          "type": "uint256"
        }
      ],
      "name": "getEarned",
      "outputs": [
        {
          "internalType": "uint256",
          "name": "",
          "type": "uint256"
        }
      ],
      "stateMutability": "view",
      "type": "function"
    },
    {
      "inputs": [
        {
          "internalType": "uint256",
          "name": "tokenId",
          "type": "uint256"
        }
      ],
      "name": "getEarningSpeed",
      "outputs": [
        {
          "internalType": "uint256",
          "name": "",
          "type": "uint256"
        }
      ],
      "stateMutability": "view",
      "type": "function"
    },
    {
      "inputs": [
        {
          "internalType": "uint256",
          "name": "tokenId",
          "type": "uint256"
        }
      ],
      "name": "buildBaseStation",
      "outputs": [],
      "stateMutability": "nonpayable",
      "type": "function"
    },
    {
      "inputs": [
        {
          "internalType": "uint256",
          "name": "tokenId",
          "type": "uint256"
        },
        {
          "internalType": "uint8",
          "name": "level",
          "type": "uint8"
        }
      ],
      "name": "buildTransport",
      "outputs": [],
      "stateMutability": "nonpayable",
      "type": "function"
    },
    {
      "inputs": [
        {
          "internalType": "uint256",
          "name": "tokenId",
          "type": "uint256"
        },
        {
          "internalType": "uint8",
          "name": "level",
          "type": "uint8"
        }
      ],
      "name": "buildRobotAssembly",
      "outputs": [],
      "stateMutability": "nonpayable",
      "type": "function"
    },
    {
      "inputs": [
        {
          "internalType": "uint256",
          "name": "tokenId",
          "type": "uint256"
        },
        {
          "internalType": "uint8",
          "name": "level",
          "type": "uint8"
        }
      ],
      "name": "buildPowerProduction",
      "outputs": [],
      "stateMutability": "nonpayable",
      "type": "function"
    },
    {
      "inputs": [
        {
          "internalType": "uint256",
          "name": "tokenId",
          "type": "uint256"
        }
      ],
      "name": "getEnhancements",
      "outputs": [
        {
          "internalType": "uint8",
          "name": "",
          "type": "uint8"
        },
        {
          "internalType": "uint8",
          "name": "",
          "type": "uint8"
        },
        {
          "internalType": "uint8",
          "name": "",
          "type": "uint8"
        },
        {
          "internalType": "uint8",
          "name": "",
          "type": "uint8"
        }
      ],
      "stateMutability": "view",
      "type": "function"
    },
    {
      "inputs": [
        {
          "internalType": "uint256[]",
          "name": "tokenIds",
          "type": "uint256[]"
        }
      ],
      "name": "claimEarned",
      "outputs": [],
      "stateMutability": "nonpayable",
      "type": "function"
    },
    {
      "inputs": [],
      "name": "premintLiquidity",
      "outputs": [],
      "stateMutability": "nonpayable",
      "type": "function"
    },
    {
      "inputs": [],
      "name": "withdraw",
      "outputs": [],
      "stateMutability": "nonpayable",
      "type": "function"
    },
    {
      "inputs": [
        {
          "internalType": "uint256",
          "name": "value",
          "type": "uint256"
        }
      ],
      "name": "withdrawValue",
      "outputs": [],
      "stateMutability": "nonpayable",
      "type": "function"
    }
  ],
  "bytecode": "0x608060405234801561001057600080fd5b506142d8806100206000396000f3fe6080604052600436106101f95760003560e01c80638451938c1161010d5780639a3274c4116100a0578063e93875041161006f578063e93875041461068e578063edfb7985146106cb578063f0f44260146106e2578063fcee45f41461070b578063fd5da72914610748576101f9565b80639a3274c4146105e8578063a035b1fe14610611578063cb6ff6f91461063c578063cfc26d9914610665576101f9565b806391ba317a116100dc57806391ba317a1461052c57806391cdd9f014610557578063932070cd1461058057806398fabd3a146105bd576101f9565b80638451938c146104985780638456cb59146104c35780638ba4cc3c146104da57806391b7f5ed14610503576101f9565b80635bde71ac116101905780636ba4c1381161015f5780636ba4c138146103d65780636e13b00a146103f257806372cab4b81461041d5780637a3188661461044657806381fd61cc1461046f576101f9565b80635bde71ac146103245780635c975abb1461036457806361d027b31461038f57806366233126146103ba576101f9565b806336171e0e116101cc57806336171e0e146102a45780633ccfd60b146102cd5780633f4ba83a146102e457806342aa65f4146102fb576101f9565b80631459457a146101fe5780631a68650214610227578063202fcbbd1461025257806333e3480f1461027b575b600080fd5b34801561020a57600080fd5b50610225600480360381019061022091906134fb565b610785565b005b34801561023357600080fd5b5061023c6109d4565b604051610249919061397f565b60405180910390f35b34801561025e57600080fd5b5061027960048036038101906102749190613603565b6109fa565b005b34801561028757600080fd5b506102a2600480360381019061029d9190613630565b610ad8565b005b3480156102b057600080fd5b506102cb60048036038101906102c691906134a1565b610d7a565b005b3480156102d957600080fd5b506102e2610e4e565b005b3480156102f057600080fd5b506102f9610ff3565b005b34801561030757600080fd5b50610322600480360381019061031d91906135b6565b611191565b005b34801561033057600080fd5b5061034b60048036038101906103469190613603565b611623565b60405161035b9493929190613c8d565b60405180910390f35b34801561037057600080fd5b506103796116c8565b60405161038691906139ec565b60405180910390f35b34801561039b57600080fd5b506103a46116df565b6040516103b1919061397f565b60405180910390f35b6103d460048036038101906103cf9190613603565b611705565b005b6103f060048036038101906103eb91906135b6565b61179e565b005b3480156103fe57600080fd5b506104076118c9565b604051610414919061397f565b60405180910390f35b34801561042957600080fd5b50610444600480360381019061043f91906134a1565b6118ef565b005b34801561045257600080fd5b5061046d600480360381019061046891906134a1565b6119c3565b005b34801561047b57600080fd5b50610496600480360381019061049191906134a1565b611a97565b005b3480156104a457600080fd5b506104ad611b6b565b6040516104ba919061397f565b60405180910390f35b3480156104cf57600080fd5b506104d8611b91565b005b3480156104e657600080fd5b5061050160048036038101906104fc9190613576565b611d2f565b005b34801561050f57600080fd5b5061052a60048036038101906105259190613603565b611e59565b005b34801561053857600080fd5b50610541611f54565b60405161054e9190613c49565b60405180910390f35b34801561056357600080fd5b5061057e60048036038101906105799190613603565b611f5a565b005b34801561058c57600080fd5b506105a760048036038101906105a29190613603565b612100565b6040516105b49190613c49565b60405180910390f35b3480156105c957600080fd5b506105d261213e565b6040516105df919061397f565b60405180910390f35b3480156105f457600080fd5b5061060f600480360381019061060a9190613630565b612164565b005b34801561061d57600080fd5b50610626612406565b6040516106339190613c49565b60405180910390f35b34801561064857600080fd5b50610663600480360381019061065e9190613630565b61240c565b005b34801561067157600080fd5b5061068c60048036038101906106879190613603565b6126ae565b005b34801561069a57600080fd5b506106b560048036038101906106b09190613603565b61290d565b6040516106c29190613c49565b60405180910390f35b3480156106d757600080fd5b506106e06129b3565b005b3480156106ee57600080fd5b50610709600480360381019061070491906134a1565b612b00565b005b34801561071757600080fd5b50610732600480360381019061072d9190613603565b612bd4565b60405161073f9190613c49565b60405180910390f35b34801561075457600080fd5b5061076f600480360381019061076a9190613603565b612beb565b60405161077c9190613c49565b60405180910390f35b600060019054906101000a900460ff166107ad5760008054906101000a900460ff16156107b6565b6107b5612e23565b5b6107f5576040517f08c379a00000000000000000000000000000000000000000000000000000000081526004016107ec90613ba9565b60405180910390fd5b60008060019054906101000a900460ff161590508015610845576001600060016101000a81548160ff02191690831515021790555060016000806101000a81548160ff0219169083151502179055505b61084d612e34565b85609760006101000a81548173ffffffffffffffffffffffffffffffffffffffff021916908373ffffffffffffffffffffffffffffffffffffffff16021790555084609b60006101000a81548173ffffffffffffffffffffffffffffffffffffffff021916908373ffffffffffffffffffffffffffffffffffffffff16021790555083609d60006101000a81548173ffffffffffffffffffffffffffffffffffffffff021916908373ffffffffffffffffffffffffffffffffffffffff160217905550615208609c81905550680d8d726b7177a80000609a8190555082609860006101000a81548173ffffffffffffffffffffffffffffffffffffffff021916908373ffffffffffffffffffffffffffffffffffffffff16021790555081609960006101000a81548173ffffffffffffffffffffffffffffffffffffffff021916908373ffffffffffffffffffffffffffffffffffffffff16021790555080156109cc5760008060016101000a81548160ff0219169083151502179055505b505050505050565b609960009054906101000a900473ffffffffffffffffffffffffffffffffffffffff1681565b609760009054906101000a900473ffffffffffffffffffffffffffffffffffffffff1673ffffffffffffffffffffffffffffffffffffffff163373ffffffffffffffffffffffffffffffffffffffff1614610a8a576040517f08c379a0000000000000000000000000000000000000000000000000000000008152600401610a8190613b29565b60405180910390fd5b609c548111610ace576040517f08c379a0000000000000000000000000000000000000000000000000000000008152600401610ac590613ae9565b60405180910390fd5b80609c8190555050565b813373ffffffffffffffffffffffffffffffffffffffff16609d60009054906101000a900473ffffffffffffffffffffffffffffffffffffffff1673ffffffffffffffffffffffffffffffffffffffff16636352211e836040518263ffffffff1660e01b8152600401610b4b9190613c49565b60206040518083038186803b158015610b6357600080fd5b505afa158015610b77573d6000803e3d6000fd5b505050506040513d601f19601f82011682018060405250810190610b9b91906134ce565b73ffffffffffffffffffffffffffffffffffffffff1614610bf1576040517f08c379a0000000000000000000000000000000000000000000000000000000008152600401610be890613a89565b60405180910390fd5b610bf96116c8565b15610c39576040517f08c379a0000000000000000000000000000000000000000000000000000000008152600401610c3090613b89565b60405180910390fd5b610c7d8260ff1660016040518060400160405280600a81526020017f4d617468206572726f7200000000000000000000000000000000000000000000815250612e95565b60d0600085815260200190815260200160002060010160099054906101000a900460ff1660ff1614610ce4576040517f08c379a0000000000000000000000000000000000000000000000000000000008152600401610cdb90613bc9565b60405180910390fd5b610ced82612eea565b610cf683613056565b8160d0600085815260200190815260200160002060010160096101000a81548160ff021916908360ff1602179055503373ffffffffffffffffffffffffffffffffffffffff167fbce74c3d6a81a6ea4b55a703751c4fbad439c2ce8997bc12bb2463cb3f6d987b8484604051610d6d929190613c64565b60405180910390a2505050565b609760009054906101000a900473ffffffffffffffffffffffffffffffffffffffff1673ffffffffffffffffffffffffffffffffffffffff163373ffffffffffffffffffffffffffffffffffffffff1614610e0a576040517f08c379a0000000000000000000000000000000000000000000000000000000008152600401610e0190613b29565b60405180910390fd5b80609960006101000a81548173ffffffffffffffffffffffffffffffffffffffff021916908373ffffffffffffffffffffffffffffffffffffffff16021790555050565b609760009054906101000a900473ffffffffffffffffffffffffffffffffffffffff1673ffffffffffffffffffffffffffffffffffffffff163373ffffffffffffffffffffffffffffffffffffffff1614610ede576040517f08c379a0000000000000000000000000000000000000000000000000000000008152600401610ed590613b29565b60405180910390fd5b6000471415610f22576040517f08c379a0000000000000000000000000000000000000000000000000000000008152600401610f1990613aa9565b60405180910390fd5b6000609760009054906101000a900473ffffffffffffffffffffffffffffffffffffffff1673ffffffffffffffffffffffffffffffffffffffff1647604051610f6a9061396a565b60006040518083038185875af1925050503d8060008114610fa7576040519150601f19603f3d011682016040523d82523d6000602084013e610fac565b606091505b5050905080610ff0576040517f08c379a0000000000000000000000000000000000000000000000000000000008152600401610fe790613ac9565b60405180910390fd5b50565b609760009054906101000a900473ffffffffffffffffffffffffffffffffffffffff1673ffffffffffffffffffffffffffffffffffffffff163373ffffffffffffffffffffffffffffffffffffffff1614611083576040517f08c379a000000000000000000000000000000000000000000000000000000000815260040161107a90613b29565b60405180910390fd5b61108b6130b9565b609b60009054906101000a900473ffffffffffffffffffffffffffffffffffffffff1673ffffffffffffffffffffffffffffffffffffffff16633f4ba83a6040518163ffffffff1660e01b8152600401600060405180830381600087803b1580156110f557600080fd5b505af1158015611109573d6000803e3d6000fd5b50505050609d60009054906101000a900473ffffffffffffffffffffffffffffffffffffffff1673ffffffffffffffffffffffffffffffffffffffff16633f4ba83a6040518163ffffffff1660e01b8152600401600060405180830381600087803b15801561117757600080fd5b505af115801561118b573d6000803e3d6000fd5b50505050565b6111996116c8565b156111d9576040517f08c379a00000000000000000000000000000000000000000000000000000000081526004016111d090613b89565b60405180910390fd5b6000828290501415611220576040517f08c379a000000000000000000000000000000000000000000000000000000000815260040161121790613c09565b60405180910390fd5b60005b828290508160ff16101561161e57609d60009054906101000a900473ffffffffffffffffffffffffffffffffffffffff1673ffffffffffffffffffffffffffffffffffffffff16636352211e84848460ff1681811061128557611284613efc565b5b905060200201356040518263ffffffff1660e01b81526004016112a89190613c49565b60206040518083038186803b1580156112c057600080fd5b505afa1580156112d4573d6000803e3d6000fd5b505050506040513d601f19601f820116820180604052508101906112f891906134ce565b73ffffffffffffffffffffffffffffffffffffffff163373ffffffffffffffffffffffffffffffffffffffff161461132f57600080fd5b600061135684848460ff1681811061134a57611349613efc565b5b9050602002013561290d565b9050609b60009054906101000a900473ffffffffffffffffffffffffffffffffffffffff1673ffffffffffffffffffffffffffffffffffffffff166340c10f1933836040518363ffffffff1660e01b81526004016113b59291906139c3565b600060405180830381600087803b1580156113cf57600080fd5b505af11580156113e3573d6000803e3d6000fd5b50505050609b60009054906101000a900473ffffffffffffffffffffffffffffffffffffffff1673ffffffffffffffffffffffffffffffffffffffff166340c10f19609860009054906101000a900473ffffffffffffffffffffffffffffffffffffffff166031601f856114579190613d80565b6114619190613d4f565b6040518363ffffffff1660e01b815260040161147e9291906139c3565b600060405180830381600087803b15801561149857600080fd5b505af11580156114ac573d6000803e3d6000fd5b50505050609b60009054906101000a900473ffffffffffffffffffffffffffffffffffffffff1673ffffffffffffffffffffffffffffffffffffffff166340c10f19609960009054906101000a900473ffffffffffffffffffffffffffffffffffffffff1660316014856115209190613d80565b61152a9190613d4f565b6040518363ffffffff1660e01b81526004016115479291906139c3565b600060405180830381600087803b15801561156157600080fd5b505af1158015611575573d6000803e3d6000fd5b50505050600060d0600086868660ff1681811061159557611594613efc565b5b905060200201358152602001908152602001600020600001819055504260d0600086868660ff168181106115cc576115cb613efc565b5b90506020020135815260200190815260200160002060010160006101000a81548167ffffffffffffffff021916908367ffffffffffffffff16021790555050808061161690613e74565b915050611223565b505050565b60008060008060d0600086815260200190815260200160002060010160089054906101000a900460ff1660d0600087815260200190815260200160002060010160099054906101000a900460ff1660d06000888152602001908152602001600020600101600a9054906101000a900460ff1660d06000898152602001908152602001600020600101600b9054906101000a900460ff1693509350935093509193509193565b6000603360009054906101000a900460ff16905090565b609860009054906101000a900473ffffffffffffffffffffffffffffffffffffffff1681565b61170d6116c8565b1561174d576040517f08c379a000000000000000000000000000000000000000000000000000000000815260040161174490613b89565b60405180910390fd5b609a543414611791576040517f08c379a000000000000000000000000000000000000000000000000000000000815260040161178890613b69565b60405180910390fd5b61179b338261315b565b50565b6117a66116c8565b156117e6576040517f08c379a00000000000000000000000000000000000000000000000000000000081526004016117dd90613b89565b60405180910390fd5b600082829050141561182d576040517f08c379a000000000000000000000000000000000000000000000000000000000815260040161182490613be9565b60405180910390fd5b61183982829050612bd4565b341461187a576040517f08c379a000000000000000000000000000000000000000000000000000000000815260040161187190613b69565b60405180910390fd5b60005b828290508160ff1610156118c4576118b13384848460ff168181106118a5576118a4613efc565b5b9050602002013561315b565b80806118bc90613e74565b91505061187d565b505050565b609d60009054906101000a900473ffffffffffffffffffffffffffffffffffffffff1681565b609760009054906101000a900473ffffffffffffffffffffffffffffffffffffffff1673ffffffffffffffffffffffffffffffffffffffff163373ffffffffffffffffffffffffffffffffffffffff161461197f576040517f08c379a000000000000000000000000000000000000000000000000000000000815260040161197690613b29565b60405180910390fd5b80609b60006101000a81548173ffffffffffffffffffffffffffffffffffffffff021916908373ffffffffffffffffffffffffffffffffffffffff16021790555050565b609760009054906101000a900473ffffffffffffffffffffffffffffffffffffffff1673ffffffffffffffffffffffffffffffffffffffff163373ffffffffffffffffffffffffffffffffffffffff1614611a53576040517f08c379a0000000000000000000000000000000000000000000000000000000008152600401611a4a90613b29565b60405180910390fd5b80609760006101000a81548173ffffffffffffffffffffffffffffffffffffffff021916908373ffffffffffffffffffffffffffffffffffffffff16021790555050565b609760009054906101000a900473ffffffffffffffffffffffffffffffffffffffff1673ffffffffffffffffffffffffffffffffffffffff163373ffffffffffffffffffffffffffffffffffffffff1614611b27576040517f08c379a0000000000000000000000000000000000000000000000000000000008152600401611b1e90613b29565b60405180910390fd5b80609d60006101000a81548173ffffffffffffffffffffffffffffffffffffffff021916908373ffffffffffffffffffffffffffffffffffffffff16021790555050565b609b60009054906101000a900473ffffffffffffffffffffffffffffffffffffffff1681565b609760009054906101000a900473ffffffffffffffffffffffffffffffffffffffff1673ffffffffffffffffffffffffffffffffffffffff163373ffffffffffffffffffffffffffffffffffffffff1614611c21576040517f08c379a0000000000000000000000000000000000000000000000000000000008152600401611c1890613b29565b60405180910390fd5b611c2961327c565b609b60009054906101000a900473ffffffffffffffffffffffffffffffffffffffff1673ffffffffffffffffffffffffffffffffffffffff16638456cb596040518163ffffffff1660e01b8152600401600060405180830381600087803b158015611c9357600080fd5b505af1158015611ca7573d6000803e3d6000fd5b50505050609d60009054906101000a900473ffffffffffffffffffffffffffffffffffffffff1673ffffffffffffffffffffffffffffffffffffffff16638456cb596040518163ffffffff1660e01b8152600401600060405180830381600087803b158015611d1557600080fd5b505af1158015611d29573d6000803e3d6000fd5b50505050565b611d376116c8565b15611d77576040517f08c379a0000000000000000000000000000000000000000000000000000000008152600401611d6e90613b89565b60405180910390fd5b609760009054906101000a900473ffffffffffffffffffffffffffffffffffffffff1673ffffffffffffffffffffffffffffffffffffffff163373ffffffffffffffffffffffffffffffffffffffff1614611e07576040517f08c379a0000000000000000000000000000000000000000000000000000000008152600401611dfe90613b29565b60405180910390fd5b611e11828261315b565b808273ffffffffffffffffffffffffffffffffffffffff167f8c32c568416fcf97be35ce5b27844cfddcd63a67a1a602c3595ba5dac38f303a60405160405180910390a35050565b609760009054906101000a900473ffffffffffffffffffffffffffffffffffffffff1673ffffffffffffffffffffffffffffffffffffffff163373ffffffffffffffffffffffffffffffffffffffff1614611ee9576040517f08c379a0000000000000000000000000000000000000000000000000000000008152600401611ee090613b29565b60405180910390fd5b67016345785d8a00008110158015611f0b575069021e19e0c9bab24000008111155b611f4a576040517f08c379a0000000000000000000000000000000000000000000000000000000008152600401611f4190613b09565b60405180910390fd5b80609a8190555050565b609c5481565b609760009054906101000a900473ffffffffffffffffffffffffffffffffffffffff1673ffffffffffffffffffffffffffffffffffffffff163373ffffffffffffffffffffffffffffffffffffffff1614611fea576040517f08c379a0000000000000000000000000000000000000000000000000000000008152600401611fe190613b29565b60405180910390fd5b600047141561202e576040517f08c379a000000000000000000000000000000000000000000000000000000000815260040161202590613aa9565b60405180910390fd5b6000609760009054906101000a900473ffffffffffffffffffffffffffffffffffffffff1673ffffffffffffffffffffffffffffffffffffffff16826040516120769061396a565b60006040518083038185875af1925050503d80600081146120b3576040519150601f19603f3d011682016040523d82523d6000602084013e6120b8565b606091505b50509050806120fc576040517f08c379a00000000000000000000000000000000000000000000000000000000081526004016120f390613ac9565b60405180910390fd5b5050565b600060d0600083815260200190815260200160002060010160009054906101000a900467ffffffffffffffff1667ffffffffffffffff169050919050565b609760009054906101000a900473ffffffffffffffffffffffffffffffffffffffff1681565b813373ffffffffffffffffffffffffffffffffffffffff16609d60009054906101000a900473ffffffffffffffffffffffffffffffffffffffff1673ffffffffffffffffffffffffffffffffffffffff16636352211e836040518263ffffffff1660e01b81526004016121d79190613c49565b60206040518083038186803b1580156121ef57600080fd5b505afa158015612203573d6000803e3d6000fd5b505050506040513d601f19601f8201168201806040525081019061222791906134ce565b73ffffffffffffffffffffffffffffffffffffffff161461227d576040517f08c379a000000000000000000000000000000000000000000000000000000000815260040161227490613a89565b60405180910390fd5b6122856116c8565b156122c5576040517f08c379a00000000000000000000000000000000000000000000000000000000081526004016122bc90613b89565b60405180910390fd5b6123098260ff1660016040518060400160405280600a81526020017f4d617468206572726f7200000000000000000000000000000000000000000000815250612e95565b60d06000858152602001908152602001600020600101600a9054906101000a900460ff1660ff1614612370576040517f08c379a000000000000000000000000000000000000000000000000000000000815260040161236790613bc9565b60405180910390fd5b61237982612eea565b61238283613056565b8160d06000858152602001908152602001600020600101600a6101000a81548160ff021916908360ff1602179055503373ffffffffffffffffffffffffffffffffffffffff167f6f4c6fa65abfbdb878065cf56239c87467b1308866c1f27dad012e666a589b6884846040516123f9929190613c64565b60405180910390a2505050565b609a5481565b813373ffffffffffffffffffffffffffffffffffffffff16609d60009054906101000a900473ffffffffffffffffffffffffffffffffffffffff1673ffffffffffffffffffffffffffffffffffffffff16636352211e836040518263ffffffff1660e01b815260040161247f9190613c49565b60206040518083038186803b15801561249757600080fd5b505afa1580156124ab573d6000803e3d6000fd5b505050506040513d601f19601f820116820180604052508101906124cf91906134ce565b73ffffffffffffffffffffffffffffffffffffffff1614612525576040517f08c379a000000000000000000000000000000000000000000000000000000000815260040161251c90613a89565b60405180910390fd5b61252d6116c8565b1561256d576040517f08c379a000000000000000000000000000000000000000000000000000000000815260040161256490613b89565b60405180910390fd5b6125b18260ff1660016040518060400160405280600a81526020017f4d617468206572726f7200000000000000000000000000000000000000000000815250612e95565b60d06000858152602001908152602001600020600101600b9054906101000a900460ff1660ff1614612618576040517f08c379a000000000000000000000000000000000000000000000000000000000815260040161260f90613bc9565b60405180910390fd5b61262182612eea565b61262a83613056565b8160d06000858152602001908152602001600020600101600b6101000a81548160ff021916908360ff1602179055503373ffffffffffffffffffffffffffffffffffffffff167f9914b04dac571a45d7a7b33184088cbd4d62a2ed88e64602a6b8a6a93b3fb0a684846040516126a1929190613c64565b60405180910390a2505050565b803373ffffffffffffffffffffffffffffffffffffffff16609d60009054906101000a900473ffffffffffffffffffffffffffffffffffffffff1673ffffffffffffffffffffffffffffffffffffffff16636352211e836040518263ffffffff1660e01b81526004016127219190613c49565b60206040518083038186803b15801561273957600080fd5b505afa15801561274d573d6000803e3d6000fd5b505050506040513d601f19601f8201168201806040525081019061277191906134ce565b73ffffffffffffffffffffffffffffffffffffffff16146127c7576040517f08c379a00000000000000000000000000000000000000000000000000000000081526004016127be90613a89565b60405180910390fd5b6127cf6116c8565b1561280f576040517f08c379a000000000000000000000000000000000000000000000000000000000815260040161280690613b89565b60405180910390fd5b600060d0600084815260200190815260200160002060010160089054906101000a900460ff1660ff1614612878576040517f08c379a000000000000000000000000000000000000000000000000000000000815260040161286f90613b49565b60405180910390fd5b6128826000612eea565b61288b82613056565b600160d0600084815260200190815260200160002060010160086101000a81548160ff021916908360ff1602179055503373ffffffffffffffffffffffffffffffffffffffff167ff9917faa5009c58ed8bd6a1c70b79e1fbefc8afe3e7142ba8b854ccb887fb262836040516129019190613c49565b60405180910390a25050565b600060d060008381526020019081526020016000206000015462015180670de0b6b3a764000061297b4261294087612100565b6040518060400160405280600a81526020017f4d617468206572726f7200000000000000000000000000000000000000000000815250612e95565b61298486612beb565b61298e9190613d80565b6129989190613d80565b6129a29190613d4f565b6129ac9190613cf9565b9050919050565b609760009054906101000a900473ffffffffffffffffffffffffffffffffffffffff1673ffffffffffffffffffffffffffffffffffffffff163373ffffffffffffffffffffffffffffffffffffffff1614612a43576040517f08c379a0000000000000000000000000000000000000000000000000000000008152600401612a3a90613b29565b60405180910390fd5b609b60009054906101000a900473ffffffffffffffffffffffffffffffffffffffff1673ffffffffffffffffffffffffffffffffffffffff166340c10f19609960009054906101000a900473ffffffffffffffffffffffffffffffffffffffff1669152d02c7e14af68000006040518363ffffffff1660e01b8152600401612acc92919061399a565b600060405180830381600087803b158015612ae657600080fd5b505af1158015612afa573d6000803e3d6000fd5b50505050565b609760009054906101000a900473ffffffffffffffffffffffffffffffffffffffff1673ffffffffffffffffffffffffffffffffffffffff163373ffffffffffffffffffffffffffffffffffffffff1614612b90576040517f08c379a0000000000000000000000000000000000000000000000000000000008152600401612b8790613b29565b60405180910390fd5b80609860006101000a81548173ffffffffffffffffffffffffffffffffffffffff021916908373ffffffffffffffffffffffffffffffffffffffff16021790555050565b600081609a54612be49190613d80565b9050919050565b60008060019050600060d0600085815260200190815260200160002060010160089054906101000a900460ff1660ff161115612c3157600181612c2e9190613cf9565b90505b600060d0600085815260200190815260200160002060010160099054906101000a900460ff1660ff16118015612c8e5750600360d0600085815260200190815260200160002060010160099054906101000a900460ff1660ff1611155b15612cd457600160d0600085815260200190815260200160002060010160099054906101000a900460ff1660ff1682612cc79190613cf9565b612cd19190613cf9565b90505b600060d06000858152602001908152602001600020600101600a9054906101000a900460ff1660ff16118015612d315750600360d06000858152602001908152602001600020600101600a9054906101000a900460ff1660ff1611155b15612d7757600160d06000858152602001908152602001600020600101600a9054906101000a900460ff1660ff1682612d6a9190613cf9565b612d749190613cf9565b90505b600060d06000858152602001908152602001600020600101600b9054906101000a900460ff1660ff16118015612dd45750600360d06000858152602001908152602001600020600101600b9054906101000a900460ff1660ff1611155b15612e1a57600160d06000858152602001908152602001600020600101600b9054906101000a900460ff1660ff1682612e0d9190613cf9565b612e179190613cf9565b90505b80915050919050565b6000612e2e3061331f565b15905090565b600060019054906101000a900460ff16612e83576040517f08c379a0000000000000000000000000000000000000000000000000000000008152600401612e7a90613c29565b60405180910390fd5b612e8b613332565b612e93613383565b565b6000838311158290612edd576040517f08c379a0000000000000000000000000000000000000000000000000000000008152600401612ed49190613a07565b60405180910390fd5b5082840390509392505050565b60008060ff168260ff161415612f1257670de0b6b3a7640000601e612f0f9190613d80565b90505b60018260ff161415612f3657670de0b6b3a76400006078612f339190613d80565b90505b60028260ff161415612f5b57670de0b6b3a764000061010e612f589190613d80565b90505b60038260ff161415612f8057670de0b6b3a76400006101e0612f7d9190613d80565b90505b60008111612fc3576040517f08c379a0000000000000000000000000000000000000000000000000000000008152600401612fba90613a69565b60405180910390fd5b609b60009054906101000a900473ffffffffffffffffffffffffffffffffffffffff1673ffffffffffffffffffffffffffffffffffffffff16639dc29fac33836040518363ffffffff1660e01b81526004016130209291906139c3565b600060405180830381600087803b15801561303a57600080fd5b505af115801561304e573d6000803e3d6000fd5b505050505050565b61305f8161290d565b60d06000838152602001908152602001600020600001819055504260d0600083815260200190815260200160002060010160006101000a81548167ffffffffffffffff021916908367ffffffffffffffff16021790555050565b6130c16116c8565b613100576040517f08c379a00000000000000000000000000000000000000000000000000000000081526004016130f790613a49565b60405180910390fd5b6000603360006101000a81548160ff0219169083151502179055507f5db9ee0a495bf2e6ff9c91a7834c1ba4fdd244a5e8aa4e537bd38aeae4b073aa6131446133ef565b604051613151919061397f565b60405180910390a1565b60008111801561316d5750609c548111155b6131ac576040517f08c379a00000000000000000000000000000000000000000000000000000000081526004016131a390613a29565b60405180910390fd5b609d60009054906101000a900473ffffffffffffffffffffffffffffffffffffffff1673ffffffffffffffffffffffffffffffffffffffff166340c10f1983836040518363ffffffff1660e01b81526004016132099291906139c3565b600060405180830381600087803b15801561322357600080fd5b505af1158015613237573d6000803e3d6000fd5b505050504260d0600083815260200190815260200160002060010160006101000a81548167ffffffffffffffff021916908367ffffffffffffffff1602179055505050565b6132846116c8565b156132c4576040517f08c379a00000000000000000000000000000000000000000000000000000000081526004016132bb90613b89565b60405180910390fd5b6001603360006101000a81548160ff0219169083151502179055507f62e78cea01bee320cd4e420270b5ea74000d11b0c9f74754ebdbfc544b05a2586133086133ef565b604051613315919061397f565b60405180910390a1565b600080823b905060008111915050919050565b600060019054906101000a900460ff16613381576040517f08c379a000000000000000000000000000000000000000000000000000000000815260040161337890613c29565b60405180910390fd5b565b600060019054906101000a900460ff166133d2576040517f08c379a00000000000000000000000000000000000000000000000000000000081526004016133c990613c29565b60405180910390fd5b6000603360006101000a81548160ff021916908315150217905550565b600033905090565b6000813590506134068161425d565b92915050565b60008151905061341b8161425d565b92915050565b60008083601f84011261343757613436613f30565b5b8235905067ffffffffffffffff81111561345457613453613f2b565b5b6020830191508360208202830111156134705761346f613f35565b5b9250929050565b60008135905061348681614274565b92915050565b60008135905061349b8161428b565b92915050565b6000602082840312156134b7576134b6613f3f565b5b60006134c5848285016133f7565b91505092915050565b6000602082840312156134e4576134e3613f3f565b5b60006134f28482850161340c565b91505092915050565b600080600080600060a0868803121561351757613516613f3f565b5b6000613525888289016133f7565b9550506020613536888289016133f7565b9450506040613547888289016133f7565b9350506060613558888289016133f7565b9250506080613569888289016133f7565b9150509295509295909350565b6000806040838503121561358d5761358c613f3f565b5b600061359b858286016133f7565b92505060206135ac85828601613477565b9150509250929050565b600080602083850312156135cd576135cc613f3f565b5b600083013567ffffffffffffffff8111156135eb576135ea613f3a565b5b6135f785828601613421565b92509250509250929050565b60006020828403121561361957613618613f3f565b5b600061362784828501613477565b91505092915050565b6000806040838503121561364757613646613f3f565b5b600061365585828601613477565b92505060206136668582860161348c565b9150509250929050565b61367981613dda565b82525050565b61368881613dec565b82525050565b61369781613e2f565b82525050565b60006136a882613cd2565b6136b28185613ce8565b93506136c2818560208601613e41565b6136cb81613f44565b840191505092915050565b60006136e3601683613ce8565b91506136ee82613f55565b602082019050919050565b6000613706601483613ce8565b915061371182613f7e565b602082019050919050565b6000613729600b83613ce8565b915061373482613fa7565b602082019050919050565b600061374c601a83613ce8565b915061375782613fd0565b602082019050919050565b600061376f601383613ce8565b915061377a82613ff9565b602082019050919050565b6000613792600f83613ce8565b915061379d82614022565b602082019050919050565b60006137b5601e83613ce8565b91506137c08261404b565b602082019050919050565b60006137d8601a83613ce8565b91506137e382614074565b602082019050919050565b60006137fb600883613ce8565b91506138068261409d565b602082019050919050565b600061381e601f83613ce8565b9150613829826140c6565b602082019050919050565b6000613841601283613ce8565b915061384c826140ef565b602082019050919050565b6000613864601083613ce8565b915061386f82614118565b602082019050919050565b6000613887602e83613ce8565b915061389282614141565b604082019050919050565b60006138aa601783613ce8565b91506138b582614190565b602082019050919050565b60006138cd601883613ce8565b91506138d8826141b9565b602082019050919050565b60006138f0600b83613ce8565b91506138fb826141e2565b602082019050919050565b6000613913600083613cdd565b915061391e8261420b565b600082019050919050565b6000613936602b83613ce8565b91506139418261420e565b604082019050919050565b61395581613e18565b82525050565b61396481613e22565b82525050565b600061397582613906565b9150819050919050565b60006020820190506139946000830184613670565b92915050565b60006040820190506139af6000830185613670565b6139bc602083018461368e565b9392505050565b60006040820190506139d86000830185613670565b6139e5602083018461394c565b9392505050565b6000602082019050613a01600083018461367f565b92915050565b60006020820190508181036000830152613a21818461369d565b905092915050565b60006020820190508181036000830152613a42816136d6565b9050919050565b60006020820190508181036000830152613a62816136f9565b9050919050565b60006020820190508181036000830152613a828161371c565b9050919050565b60006020820190508181036000830152613aa28161373f565b9050919050565b60006020820190508181036000830152613ac281613762565b9050919050565b60006020820190508181036000830152613ae281613785565b9050919050565b60006020820190508181036000830152613b02816137a8565b9050919050565b60006020820190508181036000830152613b22816137cb565b9050919050565b60006020820190508181036000830152613b42816137ee565b9050919050565b60006020820190508181036000830152613b6281613811565b9050919050565b60006020820190508181036000830152613b8281613834565b9050919050565b60006020820190508181036000830152613ba281613857565b9050919050565b60006020820190508181036000830152613bc28161387a565b9050919050565b60006020820190508181036000830152613be28161389d565b9050919050565b60006020820190508181036000830152613c02816138c0565b9050919050565b60006020820190508181036000830152613c22816138e3565b9050919050565b60006020820190508181036000830152613c4281613929565b9050919050565b6000602082019050613c5e600083018461394c565b92915050565b6000604082019050613c79600083018561394c565b613c86602083018461395b565b9392505050565b6000608082019050613ca2600083018761395b565b613caf602083018661395b565b613cbc604083018561395b565b613cc9606083018461395b565b95945050505050565b600081519050919050565b600081905092915050565b600082825260208201905092915050565b6000613d0482613e18565b9150613d0f83613e18565b9250827fffffffffffffffffffffffffffffffffffffffffffffffffffffffffffffffff03821115613d4457613d43613e9e565b5b828201905092915050565b6000613d5a82613e18565b9150613d6583613e18565b925082613d7557613d74613ecd565b5b828204905092915050565b6000613d8b82613e18565b9150613d9683613e18565b9250817fffffffffffffffffffffffffffffffffffffffffffffffffffffffffffffffff0483118215151615613dcf57613dce613e9e565b5b828202905092915050565b6000613de582613df8565b9050919050565b60008115159050919050565b600073ffffffffffffffffffffffffffffffffffffffff82169050919050565b6000819050919050565b600060ff82169050919050565b6000613e3a82613e18565b9050919050565b60005b83811015613e5f578082015181840152602081019050613e44565b83811115613e6e576000848401525b50505050565b6000613e7f82613e22565b915060ff821415613e9357613e92613e9e565b5b600182019050919050565b7f4e487b7100000000000000000000000000000000000000000000000000000000600052601160045260246000fd5b7f4e487b7100000000000000000000000000000000000000000000000000000000600052601260045260246000fd5b7f4e487b7100000000000000000000000000000000000000000000000000000000600052603260045260246000fd5b600080fd5b600080fd5b600080fd5b600080fd5b600080fd5b6000601f19601f8301169050919050565b7f546f6b656e206964206f7574206f6620626f756e647300000000000000000000600082015250565b7f5061757361626c653a206e6f7420706175736564000000000000000000000000600082015250565b7f57726f6e67206c6576656c000000000000000000000000000000000000000000600082015250565b7f596f75206172656e27742074686520746f6b656e206f776e6572000000000000600082015250565b7f4e6f7468696e6720746f20776974686472617700000000000000000000000000600082015250565b7f5769746864726177206661696c65640000000000000000000000000000000000600082015250565b7f4e6577206d6178206964206973206e6f74206f7665722063757272656e740000600082015250565b7f4e6577207072696365206973206f7574206f6620626f756e6473000000000000600082015250565b7f4f6e6c792044414f000000000000000000000000000000000000000000000000600082015250565b7f546865726520697320616c7265616479206120626173652073746174696f6e00600082015250565b7f57726f6e6720636c61696d696e67206665650000000000000000000000000000600082015250565b7f5061757361626c653a2070617573656400000000000000000000000000000000600082015250565b7f496e697469616c697a61626c653a20636f6e747261637420697320616c72656160008201527f647920696e697469616c697a6564000000000000000000000000000000000000602082015250565b7f43616e20627579206f6e6c79206e657874206c6576656c000000000000000000600082015250565b7f596f752063616e277420636c61696d203020746f6b656e730000000000000000600082015250565b7f456d707479206172726179000000000000000000000000000000000000000000600082015250565b50565b7f496e697469616c697a61626c653a20636f6e7472616374206973206e6f74206960008201527f6e697469616c697a696e67000000000000000000000000000000000000000000602082015250565b61426681613dda565b811461427157600080fd5b50565b61427d81613e18565b811461428857600080fd5b50565b61429481613e22565b811461429f57600080fd5b5056fea2646970667358221220655ebc778bdd806466f4f5b06ad5d1fc2b97f0f67f53377d2fc47d3113b6578064736f6c63430008050033",
  "immutableReferences": {},
  "source": "// SPDX-License-Identifier: MIT\npragma solidity >=0.8.0 <0.9.0;\n\nimport '@openzeppelin/contracts-upgradeable/security/PausableUpgradeable.sol';\nimport './interfaces/NFTMintableInterface.sol';\nimport './interfaces/PauseInterface.sol';\nimport './interfaces/ERC20MintBurnInterface.sol';\n\n\n/**\n * Game logic; upgradable\n */\ncontract GameManager is PausableUpgradeable {\n  uint256[50] private ______gm_gap_0;\n\n  address public DAO; // owner\n\n  address public treasury;\n  \n  address public liquidity;\n\n  uint256 public price;\n\n  address public CLNYAddress;\n\n  uint256 public maxTokenId;\n\n  address public MCAddress;\n\n  uint256[50] private ______gm_gap_1;\n\n  struct LandData {\n    uint256 fixedEarnings; // already earned CLNY, but not withdrawn yet\n    uint64 lastCLNYCheckout; // (now - lastCLNYCheckout) * 'earning speed' + fixedEarnings = farmed so far\n    uint8 baseStation; // 0 or 1\n    uint8 transport; // 0 or 1, 2, 3 (levels)\n    uint8 robotAssembly; // 0 or 1, 2, 3 (levels)\n    uint8 powerProduction; // 0 or 1, 2, 3 (levels)\n  }\n\n  mapping (uint256 => LandData) private tokenData;\n\n  uint256[50] private ______gm_gap_2;\n\n  event Airdrop (address indexed receiver, uint256 indexed tokenId);\n  event BuildBaseStation (uint256 tokenId, address indexed owner);\n  event BuildTransport (uint256 tokenId, address indexed owner, uint8 level);\n  event BuildRobotAssembly (uint256 tokenId, address indexed owner, uint8 level);\n  event BuildPowerProduction (uint256 tokenId, address indexed owner, uint8 level);\n\n  modifier onlyDAO {\n    require(msg.sender == DAO, 'Only DAO');\n    _;\n  }\n\n  modifier onlyTokenOwner(uint256 tokenId) {\n    require(NFTMintableInterface(MCAddress).ownerOf(tokenId) == msg.sender, \"You aren't the token owner\");\n    _;\n  }\n\n  function initialize(\n    address _DAO,\n    address _CLNYAddress,\n    address _MCAddress,\n    address _treasury,\n    address _liquidity\n  ) public initializer {\n    __Pausable_init();\n    DAO = _DAO;\n    CLNYAddress = _CLNYAddress;\n    MCAddress = _MCAddress;\n    maxTokenId = 21000;\n    price = 250 ether;\n    treasury = _treasury;\n    liquidity = _liquidity;\n  }\n\n  /**\n   * From SafeMath\n   */\n  function sub(\n    uint256 a,\n    uint256 b,\n    string memory errorMessage\n  ) internal pure returns (uint256) {\n    unchecked {\n      require(b <= a, errorMessage);\n      return a - b;\n    }\n  }\n\n  /**\n   * Tranfers ownership\n   */\n  function transferDAO(address _DAO) external onlyDAO {\n    DAO = _DAO;\n  }\n\n  /**\n   * Sets treasury address\n   */\n  function setTreasury(address _treasury) external onlyDAO {\n    treasury = _treasury;\n  }\n\n  /**\n   * Sets liquidity address\n   */\n  function setLiquidity(address _liquidity) external onlyDAO {\n    liquidity = _liquidity;\n  }\n\n  /**\n   * Cost of minting for `tokenCount` tokens\n   */\n  function getFee(uint256 tokenCount) public view returns (uint256) {\n    return price * tokenCount;\n  }\n\n  /**\n   * Sets the cost of minting for 1 token\n   */\n  function setPrice(uint256 _price) external onlyDAO {\n    require(_price >= 0.1 ether && _price <= 10000 ether, 'New price is out of bounds');\n    price = _price;\n  }\n\n  /**\n   * `maxTokenId` increase may be needed if we decide to merge tokens or to sell poles (they are not tokenized yet)\n   */\n  function setMaxTokenId(uint256 _id) external onlyDAO {\n    require(_id > maxTokenId, 'New max id is not over current');\n    maxTokenId = _id;\n  }\n\n  /**\n   * Sets ERC20 token address\n   */\n  function setCLNYAddress(address _address) external onlyDAO {\n    CLNYAddress = _address;\n  }\n\n  /**\n   * Sets ERC721 token address\n   */\n  function setMCAddress(address _address) external onlyDAO {\n    MCAddress = _address;\n  }\n\n  function mintNFT(address _address, uint256 tokenId) private {\n    require (tokenId > 0 && tokenId <= maxTokenId, 'Token id out of bounds');\n    NFTMintableInterface(MCAddress).mint(_address, tokenId);\n    tokenData[tokenId].lastCLNYCheckout = uint64(block.timestamp);\n  }\n\n  /**\n   * Mints a token\n   */\n  function claimOne(uint256 tokenId) external payable whenNotPaused {\n    require (msg.value == price, 'Wrong claiming fee');\n    mintNFT(msg.sender, tokenId);\n  }\n\n  /**\n   * Mints several tokens\n   * Pls check gas limits to get max possible count\n   */\n  function claim(uint256[] calldata tokenIds) external payable whenNotPaused {\n    require (tokenIds.length != 0, \"You can't claim 0 tokens\");\n    require (msg.value == getFee(tokenIds.length), 'Wrong claiming fee');\n    for (uint8 i = 0; i < tokenIds.length; i++) {\n      mintNFT(msg.sender, tokenIds[i]);\n    }\n  }\n\n  function pause() external onlyDAO {\n    _pause();\n    PauseInterface(CLNYAddress).pause();\n    PauseInterface(MCAddress).pause();\n  }\n\n  function unpause() external onlyDAO {\n    _unpause();\n    PauseInterface(CLNYAddress).unpause();\n    PauseInterface(MCAddress).unpause();\n  }\n\n  function airdrop(address receiver, uint256 tokenId) external whenNotPaused onlyDAO {\n    mintNFT(receiver, tokenId);\n    emit Airdrop(receiver, tokenId);\n  }\n\n  uint8 constant BASE_STATION = 0;\n  /** these constants (for sure just `_deduct` function) can be changed while upgrading */\n  uint256 constant BASE_STATION_COST = 30;\n  uint256 constant LEVEL_1_COST = 120;\n  uint256 constant LEVEL_2_COST = 270;\n  uint256 constant LEVEL_3_COST = 480;\n\n  /**\n   * Burn CLNY token for building enhancements\n   * Assume decimals() is always 18\n   */\n  function _deduct(uint8 level) private {\n    uint256 amount = 0;\n    if (level == BASE_STATION) {\n      amount = BASE_STATION_COST * 10 ** 18;\n    }\n    if (level == 1) {\n      amount = LEVEL_1_COST * 10 ** 18;\n    }\n    if (level == 2) {\n      amount = LEVEL_2_COST * 10 ** 18;\n    }\n    if (level == 3) {\n      amount = LEVEL_3_COST * 10 ** 18;\n    }\n    require (amount > 0, 'Wrong level');\n    ERC20MintBurnInterface(CLNYAddress).burn(msg.sender, amount);\n  }\n\n  function getLastCheckout(uint256 tokenId) public view returns (uint256) {\n    return tokenData[tokenId].lastCLNYCheckout;\n  }\n\n  function getEarned(uint256 tokenId) public view returns (uint256) {\n    return getEarningSpeed(tokenId)\n      * sub(block.timestamp, getLastCheckout(tokenId), 'Math error') * 10 ** 18 / (24 * 60 * 60)\n      + tokenData[tokenId].fixedEarnings;\n  }\n\n  function getEarningSpeed(uint256 tokenId) public view returns (uint256) {\n    uint256 speed = 1; // bare land\n    if (tokenData[tokenId].baseStation > 0) {\n      speed = speed + 1; // base station gives +1\n    }\n    if (tokenData[tokenId].transport > 0 && tokenData[tokenId].transport <= 3) {\n      speed = speed + tokenData[tokenId].transport + 1; // others give from +2 to +4\n    }\n    if (tokenData[tokenId].robotAssembly > 0 && tokenData[tokenId].robotAssembly <= 3) {\n      speed = speed + tokenData[tokenId].robotAssembly + 1;\n    }\n    if (tokenData[tokenId].powerProduction > 0 && tokenData[tokenId].powerProduction <= 3) {\n      speed = speed + tokenData[tokenId].powerProduction + 1;\n    }\n    return speed;\n  }\n\n  function fixEarnings(uint256 tokenId) private {\n    tokenData[tokenId].fixedEarnings = getEarned(tokenId);\n    tokenData[tokenId].lastCLNYCheckout = uint64(block.timestamp);\n  }\n\n  /**\n   * Builds base station\n   */\n  function buildBaseStation(uint256 tokenId) external onlyTokenOwner(tokenId) whenNotPaused {\n    require(tokenData[tokenId].baseStation == 0, 'There is already a base station');\n    _deduct(BASE_STATION);\n    fixEarnings(tokenId);\n    tokenData[tokenId].baseStation = 1;\n    emit BuildBaseStation(tokenId, msg.sender);\n  }\n\n  /**\n   * Builds transport\n   * `uint8 level` is very important - it prevents accidental spending ERC20 with double transactions\n   */\n  function buildTransport(uint256 tokenId, uint8 level) external onlyTokenOwner(tokenId) whenNotPaused {\n    require(tokenData[tokenId].transport == sub(level, 1, 'Math error'), 'Can buy only next level');\n    _deduct(level);\n    fixEarnings(tokenId);\n    tokenData[tokenId].transport = level;\n    emit BuildTransport(tokenId, msg.sender, level);\n  }\n\n  /**\n   * Builds robot assembly\n   * `uint8 level` is very important - it prevents accidental spending ERC20 with double transactions\n   */\n  function buildRobotAssembly(uint256 tokenId, uint8 level) external onlyTokenOwner(tokenId) whenNotPaused {\n    require(tokenData[tokenId].robotAssembly == sub(level, 1, 'Math error'), 'Can buy only next level');\n    _deduct(level);\n    fixEarnings(tokenId);\n    tokenData[tokenId].robotAssembly = level;\n    emit BuildRobotAssembly(tokenId, msg.sender, level);\n  }\n\n  /**\n   * Builds power production\n   * `uint8 level` is very important - it prevents accidental spending ERC20 with double transactions\n   */\n  function buildPowerProduction(uint256 tokenId, uint8 level) external onlyTokenOwner(tokenId) whenNotPaused {\n    require(tokenData[tokenId].powerProduction == sub(level, 1, 'Math error'), 'Can buy only next level');\n    _deduct(level);\n    fixEarnings(tokenId);\n    tokenData[tokenId].powerProduction = level;\n    emit BuildPowerProduction(tokenId, msg.sender, level);\n  }\n\n  /**\n   * Enhancements getter\n   */\n  function getEnhancements(uint256 tokenId) external view returns (uint8, uint8, uint8, uint8) {\n    return (\n      tokenData[tokenId].baseStation,\n      tokenData[tokenId].transport,\n      tokenData[tokenId].robotAssembly,\n      tokenData[tokenId].powerProduction\n    );\n  }\n\n  /**\n   * Claims CLNY from several tokens\n   * Pls check gas limits to get max possible count (> 100 for Harmony chain)\n   */\n  function claimEarned(uint256[] calldata tokenIds) external whenNotPaused {\n    require (tokenIds.length != 0, 'Empty array');\n    for (uint8 i = 0; i < tokenIds.length; i++) {\n      require (msg.sender == NFTMintableInterface(MCAddress).ownerOf(tokenIds[i]));\n      uint256 earned = getEarned(tokenIds[i]);\n      ERC20MintBurnInterface(CLNYAddress).mint(msg.sender, earned);\n      ERC20MintBurnInterface(CLNYAddress).mint(treasury, earned * 31 / 49);\n      ERC20MintBurnInterface(CLNYAddress).mint(liquidity, earned * 20 / 49);\n      tokenData[tokenIds[i]].fixedEarnings = 0;\n      tokenData[tokenIds[i]].lastCLNYCheckout = uint64(block.timestamp);\n    }\n  }\n\n  function premintLiquidity() external onlyDAO {\n    ERC20MintBurnInterface(CLNYAddress).mint(liquidity, 100_000 * 10 ** 18);\n  }\n\n  function withdraw() external onlyDAO {\n    require (address(this).balance != 0, 'Nothing to withdraw');\n    (bool success, ) = payable(DAO).call{ value: address(this).balance }('');\n    require(success, 'Withdraw failed');\n  }\n\n  function withdrawValue(uint256 value) external onlyDAO {\n    require (address(this).balance != 0, 'Nothing to withdraw');\n    (bool success, ) = payable(DAO).call{ value: value }('');\n    require(success, 'Withdraw failed');\n  }\n}\n",
  "sourcePath": "/Users/kek/contracts/contracts/GameManager.sol",
  "compiler": {
    "name": "solc",
    "version": "0.8.5+commit.a4f2e591.Emscripten.clang"
  },
  "schemaVersion": "3.4.3",
  "updatedAt": "2022-01-05T21:04:55.548Z",
  "devdoc": {
    "kind": "dev",
    "methods": {
      "paused()": {
        "details": "Returns true if the contract is paused, and false otherwise."
      }
    },
    "version": 1
  },
  "userdoc": {
    "kind": "user",
    "methods": {
      "buildBaseStation(uint256)": {
        "notice": "Builds base station"
      },
      "buildPowerProduction(uint256,uint8)": {
        "notice": "Builds power production `uint8 level` is very important - it prevents accidental spending ERC20 with double transactions"
      },
      "buildRobotAssembly(uint256,uint8)": {
        "notice": "Builds robot assembly `uint8 level` is very important - it prevents accidental spending ERC20 with double transactions"
      },
      "buildTransport(uint256,uint8)": {
        "notice": "Builds transport `uint8 level` is very important - it prevents accidental spending ERC20 with double transactions"
      },
      "claim(uint256[])": {
        "notice": "Mints several tokens Pls check gas limits to get max possible count"
      },
      "claimEarned(uint256[])": {
        "notice": "Claims CLNY from several tokens Pls check gas limits to get max possible count (> 100 for Harmony chain)"
      },
      "claimOne(uint256)": {
        "notice": "Mints a token"
      },
      "getEnhancements(uint256)": {
        "notice": "Enhancements getter"
      },
      "getFee(uint256)": {
        "notice": "Cost of minting for `tokenCount` tokens"
      },
      "setCLNYAddress(address)": {
        "notice": "Sets ERC20 token address"
      },
      "setLiquidity(address)": {
        "notice": "Sets liquidity address"
      },
      "setMCAddress(address)": {
        "notice": "Sets ERC721 token address"
      },
      "setMaxTokenId(uint256)": {
        "notice": "`maxTokenId` increase may be needed if we decide to merge tokens or to sell poles (they are not tokenized yet)"
      },
      "setPrice(uint256)": {
        "notice": "Sets the cost of minting for 1 token"
      },
      "setTreasury(address)": {
        "notice": "Sets treasury address"
      },
      "transferDAO(address)": {
        "notice": "Tranfers ownership"
      }
    },
    "notice": "Game logic; upgradable",
    "version": 1
  }
}