{
  "contractName": "MC",
  "abi": [
    {
      "anonymous": false,
      "inputs": [
        {
          "indexed": true,
          "internalType": "address",
          "name": "owner",
          "type": "address"
        },
        {
          "indexed": true,
          "internalType": "address",
          "name": "approved",
          "type": "address"
        },
        {
          "indexed": true,
          "internalType": "uint256",
          "name": "tokenId",
          "type": "uint256"
        }
      ],
      "name": "Approval",
      "type": "event"
    },
    {
      "anonymous": false,
      "inputs": [
        {
          "indexed": true,
          "internalType": "address",
          "name": "owner",
          "type": "address"
        },
        {
          "indexed": true,
          "internalType": "address",
          "name": "operator",
          "type": "address"
        },
        {
          "indexed": false,
          "internalType": "bool",
          "name": "approved",
          "type": "bool"
        }
      ],
      "name": "ApprovalForAll",
      "type": "event"
    },
    {
      "anonymous": false,
      "inputs": [
        {
          "indexed": false,
          "internalType": "address",
          "name": "account",
          "type": "address"
        }
      ],
      "name": "Paused",
      "type": "event"
    },
    {
      "anonymous": false,
      "inputs": [
        {
          "indexed": true,
          "internalType": "address",
          "name": "from",
          "type": "address"
        },
        {
          "indexed": true,
          "internalType": "address",
          "name": "to",
          "type": "address"
        },
        {
          "indexed": true,
          "internalType": "uint256",
          "name": "tokenId",
          "type": "uint256"
        }
      ],
      "name": "Transfer",
      "type": "event"
    },
    {
      "anonymous": false,
      "inputs": [
        {
          "indexed": false,
          "internalType": "address",
          "name": "account",
          "type": "address"
        }
      ],
      "name": "Unpaused",
      "type": "event"
    },
    {
      "inputs": [],
      "name": "DAO",
      "outputs": [
        {
          "internalType": "address",
          "name": "",
          "type": "address"
        }
      ],
      "stateMutability": "view",
      "type": "function",
      "constant": true
    },
    {
      "inputs": [],
      "name": "GameManager",
      "outputs": [
        {
          "internalType": "address",
          "name": "",
          "type": "address"
        }
      ],
      "stateMutability": "view",
      "type": "function",
      "constant": true
    },
    {
      "inputs": [
        {
          "internalType": "address",
          "name": "to",
          "type": "address"
        },
        {
          "internalType": "uint256",
          "name": "tokenId",
          "type": "uint256"
        }
      ],
      "name": "approve",
      "outputs": [],
      "stateMutability": "nonpayable",
      "type": "function"
    },
    {
      "inputs": [
        {
          "internalType": "address",
          "name": "owner",
          "type": "address"
        }
      ],
      "name": "balanceOf",
      "outputs": [
        {
          "internalType": "uint256",
          "name": "",
          "type": "uint256"
        }
      ],
      "stateMutability": "view",
      "type": "function",
      "constant": true
    },
    {
      "inputs": [
        {
          "internalType": "uint256",
          "name": "tokenId",
          "type": "uint256"
        }
      ],
      "name": "getApproved",
      "outputs": [
        {
          "internalType": "address",
          "name": "",
          "type": "address"
        }
      ],
      "stateMutability": "view",
      "type": "function",
      "constant": true
    },
    {
      "inputs": [
        {
          "internalType": "address",
          "name": "owner",
          "type": "address"
        },
        {
          "internalType": "address",
          "name": "operator",
          "type": "address"
        }
      ],
      "name": "isApprovedForAll",
      "outputs": [
        {
          "internalType": "bool",
          "name": "",
          "type": "bool"
        }
      ],
      "stateMutability": "view",
      "type": "function",
      "constant": true
    },
    {
      "inputs": [],
      "name": "name",
      "outputs": [
        {
          "internalType": "string",
          "name": "",
          "type": "string"
        }
      ],
      "stateMutability": "view",
      "type": "function",
      "constant": true
    },
    {
      "inputs": [
        {
          "internalType": "uint256",
          "name": "",
          "type": "uint256"
        }
      ],
      "name": "names",
      "outputs": [
        {
          "internalType": "string",
          "name": "",
          "type": "string"
        }
      ],
      "stateMutability": "view",
      "type": "function",
      "constant": true
    },
    {
      "inputs": [
        {
          "internalType": "uint256",
          "name": "tokenId",
          "type": "uint256"
        }
      ],
      "name": "ownerOf",
      "outputs": [
        {
          "internalType": "address",
          "name": "",
          "type": "address"
        }
      ],
      "stateMutability": "view",
      "type": "function",
      "constant": true
    },
    {
      "inputs": [],
      "name": "paused",
      "outputs": [
        {
          "internalType": "bool",
          "name": "",
          "type": "bool"
        }
      ],
      "stateMutability": "view",
      "type": "function",
      "constant": true
    },
    {
      "inputs": [
        {
          "internalType": "address",
          "name": "from",
          "type": "address"
        },
        {
          "internalType": "address",
          "name": "to",
          "type": "address"
        },
        {
          "internalType": "uint256",
          "name": "tokenId",
          "type": "uint256"
        }
      ],
      "name": "safeTransferFrom",
      "outputs": [],
      "stateMutability": "nonpayable",
      "type": "function"
    },
    {
      "inputs": [
        {
          "internalType": "address",
          "name": "from",
          "type": "address"
        },
        {
          "internalType": "address",
          "name": "to",
          "type": "address"
        },
        {
          "internalType": "uint256",
          "name": "tokenId",
          "type": "uint256"
        },
        {
          "internalType": "bytes",
          "name": "_data",
          "type": "bytes"
        }
      ],
      "name": "safeTransferFrom",
      "outputs": [],
      "stateMutability": "nonpayable",
      "type": "function"
    },
    {
      "inputs": [
        {
          "internalType": "address",
          "name": "operator",
          "type": "address"
        },
        {
          "internalType": "bool",
          "name": "approved",
          "type": "bool"
        }
      ],
      "name": "setApprovalForAll",
      "outputs": [],
      "stateMutability": "nonpayable",
      "type": "function"
    },
    {
      "inputs": [
        {
          "internalType": "address",
          "name": "_GameManager",
          "type": "address"
        }
      ],
      "name": "setGameManager",
      "outputs": [],
      "stateMutability": "nonpayable",
      "type": "function"
    },
    {
      "inputs": [
        {
          "internalType": "bytes4",
          "name": "interfaceId",
          "type": "bytes4"
        }
      ],
      "name": "supportsInterface",
      "outputs": [
        {
          "internalType": "bool",
          "name": "",
          "type": "bool"
        }
      ],
      "stateMutability": "view",
      "type": "function",
      "constant": true
    },
    {
      "inputs": [],
      "name": "symbol",
      "outputs": [
        {
          "internalType": "string",
          "name": "",
          "type": "string"
        }
      ],
      "stateMutability": "view",
      "type": "function",
      "constant": true
    },
    {
      "inputs": [
        {
          "internalType": "uint256",
          "name": "index",
          "type": "uint256"
        }
      ],
      "name": "tokenByIndex",
      "outputs": [
        {
          "internalType": "uint256",
          "name": "",
          "type": "uint256"
        }
      ],
      "stateMutability": "view",
      "type": "function",
      "constant": true
    },
    {
      "inputs": [
        {
          "internalType": "address",
          "name": "owner",
          "type": "address"
        },
        {
          "internalType": "uint256",
          "name": "index",
          "type": "uint256"
        }
      ],
      "name": "tokenOfOwnerByIndex",
      "outputs": [
        {
          "internalType": "uint256",
          "name": "",
          "type": "uint256"
        }
      ],
      "stateMutability": "view",
      "type": "function",
      "constant": true
    },
    {
      "inputs": [
        {
          "internalType": "uint256",
          "name": "tokenId",
          "type": "uint256"
        }
      ],
      "name": "tokenURI",
      "outputs": [
        {
          "internalType": "string",
          "name": "",
          "type": "string"
        }
      ],
      "stateMutability": "view",
      "type": "function",
      "constant": true
    },
    {
      "inputs": [],
      "name": "totalSupply",
      "outputs": [
        {
          "internalType": "uint256",
          "name": "",
          "type": "uint256"
        }
      ],
      "stateMutability": "view",
      "type": "function",
      "constant": true
    },
    {
      "inputs": [
        {
          "internalType": "address",
          "name": "_DAO",
          "type": "address"
        }
      ],
      "name": "transferDAO",
      "outputs": [],
      "stateMutability": "nonpayable",
      "type": "function"
    },
    {
      "inputs": [
        {
          "internalType": "address",
          "name": "from",
          "type": "address"
        },
        {
          "internalType": "address",
          "name": "to",
          "type": "address"
        },
        {
          "internalType": "uint256",
          "name": "tokenId",
          "type": "uint256"
        }
      ],
      "name": "transferFrom",
      "outputs": [],
      "stateMutability": "nonpayable",
      "type": "function"
    },
    {
      "inputs": [
        {
          "internalType": "address",
          "name": "_DAO",
          "type": "address"
        },
        {
          "internalType": "string",
          "name": "_nftBaseURI",
          "type": "string"
        }
      ],
      "name": "initialize",
      "outputs": [],
      "stateMutability": "nonpayable",
      "type": "function"
    },
    {
      "inputs": [
        {
          "internalType": "string",
          "name": "newURI",
          "type": "string"
        }
      ],
      "name": "setBaseURI",
      "outputs": [],
      "stateMutability": "nonpayable",
      "type": "function"
    },
    {
      "inputs": [
        {
          "internalType": "address",
          "name": "receiver",
          "type": "address"
        },
        {
          "internalType": "uint256",
          "name": "tokenId",
          "type": "uint256"
        }
      ],
      "name": "mint",
      "outputs": [],
      "stateMutability": "nonpayable",
      "type": "function"
    },
    {
      "inputs": [],
      "name": "pause",
      "outputs": [],
      "stateMutability": "nonpayable",
      "type": "function"
    },
    {
      "inputs": [],
      "name": "unpause",
      "outputs": [],
      "stateMutability": "nonpayable",
      "type": "function"
    },
    {
      "inputs": [],
      "name": "allTokens",
      "outputs": [
        {
          "internalType": "uint256[]",
          "name": "",
          "type": "uint256[]"
        }
      ],
      "stateMutability": "view",
      "type": "function",
      "constant": true
    },
    {
      "inputs": [],
      "name": "allMyTokens",
      "outputs": [
        {
          "internalType": "uint256[]",
          "name": "",
          "type": "uint256[]"
        }
      ],
      "stateMutability": "view",
      "type": "function",
      "constant": true
    },
    {
      "inputs": [
        {
          "internalType": "uint256",
          "name": "_from",
          "type": "uint256"
        },
        {
          "internalType": "uint256",
          "name": "_to",
          "type": "uint256"
        }
      ],
      "name": "allTokensPaginate",
      "outputs": [
        {
          "internalType": "uint256[]",
          "name": "",
          "type": "uint256[]"
        }
      ],
      "stateMutability": "view",
      "type": "function",
      "constant": true
    },
    {
      "inputs": [
        {
          "internalType": "uint256",
          "name": "tokenId",
          "type": "uint256"
        },
        {
          "internalType": "string",
          "name": "_name",
          "type": "string"
        }
      ],
      "name": "setName",
      "outputs": [],
      "stateMutability": "nonpayable",
      "type": "function"
    },
    {
      "inputs": [
        {
          "internalType": "uint256",
          "name": "tokenId",
          "type": "uint256"
        }
      ],
      "name": "getName",
      "outputs": [
        {
          "internalType": "string",
          "name": "",
          "type": "string"
        }
      ],
      "stateMutability": "view",
      "type": "function",
      "constant": true
    }
  ],
  "bytecode": "0x608060405234801561001057600080fd5b506148dc806100206000396000f3fe608060405234801561001057600080fd5b50600436106101f05760003560e01c80636ff97f1d1161010f578063a8ee0689116100a2578063c87b56dd11610071578063c87b56dd146105a5578063e985e9c5146105d5578063f399e22e14610605578063fe55932a14610621576101f0565b8063a8ee068914610531578063b7127e411461054f578063b88d4fde1461056b578063bac6585414610587576101f0565b80638cabaaee116100de5780638cabaaee146104a957806395d89b41146104d957806398fabd3a146104f7578063a22cb46514610515576101f0565b80636ff97f1d1461043557806370a08231146104535780637a318866146104835780638456cb591461049f576101f0565b806340c10f191161018757806355f804b31161015657806355f804b31461039b5780635c975abb146103b75780636352211e146103d55780636b8ff57414610405576101f0565b806340c10f191461030357806342842e0e1461031f5780634622ab031461033b5780634f6ccce71461036b576101f0565b806318160ddd116101c357806318160ddd1461028f57806323b872dd146102ad5780632f745c59146102c95780633f4ba83a146102f9576101f0565b806301ffc9a7146101f557806306fdde0314610225578063081812fc14610243578063095ea7b314610273575b600080fd5b61020f600480360381019061020a9190613406565b61063d565b60405161021c9190613a99565b60405180910390f35b61022d6106b7565b60405161023a9190613ab4565b60405180910390f35b61025d600480360381019061025891906134a9565b610749565b60405161026a9190613a10565b60405180910390f35b61028d600480360381019061028891906133c6565b6107ce565b005b6102976108e6565b6040516102a49190613db6565b60405180910390f35b6102c760048036038101906102c29190613254565b6108f3565b005b6102e360048036038101906102de91906133c6565b610953565b6040516102f09190613db6565b60405180910390f35b6103016109f8565b005b61031d600480360381019061031891906133c6565b610a92565b005b61033960048036038101906103349190613254565b610b78565b005b610355600480360381019061035091906134a9565b610b98565b6040516103629190613ab4565b60405180910390f35b610385600480360381019061038091906134a9565b610c39565b6040516103929190613db6565b60405180910390f35b6103b560048036038101906103b09190613460565b610caa565b005b6103bf610d9d565b6040516103cc9190613a99565b60405180910390f35b6103ef60048036038101906103ea91906134a9565b610db4565b6040516103fc9190613a10565b60405180910390f35b61041f600480360381019061041a91906134a9565b610e66565b60405161042c9190613ab4565b60405180910390f35b61043d610f0c565b60405161044a9190613a77565b60405180910390f35b61046d600480360381019061046891906131e7565b610f64565b60405161047a9190613db6565b60405180910390f35b61049d600480360381019061049891906131e7565b61101c565b005b6104a76110f0565b005b6104c360048036038101906104be9190613532565b61118a565b6040516104d09190613a77565b60405180910390f35b6104e16112d4565b6040516104ee9190613ab4565b60405180910390f35b6104ff611366565b60405161050c9190613a10565b60405180910390f35b61052f600480360381019061052a919061332a565b61138c565b005b6105396113a2565b6040516105469190613a77565b60405180910390f35b610569600480360381019061056491906131e7565b6114aa565b005b610585600480360381019061058091906132a7565b61157e565b005b61058f6115e0565b60405161059c9190613a10565b60405180910390f35b6105bf60048036038101906105ba91906134a9565b611606565b6040516105cc9190613ab4565b60405180910390f35b6105ef60048036038101906105ea9190613214565b6116ad565b6040516105fc9190613a99565b60405180910390f35b61061f600480360381019061061a919061336a565b611741565b005b61063b600480360381019061063691906134d6565b6118cc565b005b60007f780e9d63000000000000000000000000000000000000000000000000000000007bffffffffffffffffffffffffffffffffffffffffffffffffffffffff1916827bffffffffffffffffffffffffffffffffffffffffffffffffffffffff191614806106b057506106af8261196f565b5b9050919050565b6060606580546106c690614045565b80601f01602080910402602001604051908101604052809291908181526020018280546106f290614045565b801561073f5780601f106107145761010080835404028352916020019161073f565b820191906000526020600020905b81548152906001019060200180831161072257829003601f168201915b5050505050905090565b600061075482611a51565b610793576040517f08c379a000000000000000000000000000000000000000000000000000000000815260040161078a90613cb6565b60405180910390fd5b6069600083815260200190815260200160002060009054906101000a900473ffffffffffffffffffffffffffffffffffffffff169050919050565b60006107d982610db4565b90508073ffffffffffffffffffffffffffffffffffffffff168373ffffffffffffffffffffffffffffffffffffffff16141561084a576040517f08c379a000000000000000000000000000000000000000000000000000000000815260040161084190613d16565b60405180910390fd5b8073ffffffffffffffffffffffffffffffffffffffff16610869611abd565b73ffffffffffffffffffffffffffffffffffffffff161480610898575061089781610892611abd565b6116ad565b5b6108d7576040517f08c379a00000000000000000000000000000000000000000000000000000000081526004016108ce90613bf6565b60405180910390fd5b6108e18383611ac5565b505050565b6000609980549050905090565b6109046108fe611abd565b82611b7e565b610943576040517f08c379a000000000000000000000000000000000000000000000000000000000815260040161093a90613d56565b60405180910390fd5b61094e838383611c5c565b505050565b600061095e83610f64565b821061099f576040517f08c379a000000000000000000000000000000000000000000000000000000000815260040161099690613af6565b60405180910390fd5b609760008473ffffffffffffffffffffffffffffffffffffffff1673ffffffffffffffffffffffffffffffffffffffff168152602001908152602001600020600083815260200190815260200160002054905092915050565b60c960009054906101000a900473ffffffffffffffffffffffffffffffffffffffff1673ffffffffffffffffffffffffffffffffffffffff163373ffffffffffffffffffffffffffffffffffffffff1614610a88576040517f08c379a0000000000000000000000000000000000000000000000000000000008152600401610a7f90613d36565b60405180910390fd5b610a90611eb8565b565b60c960009054906101000a900473ffffffffffffffffffffffffffffffffffffffff1673ffffffffffffffffffffffffffffffffffffffff163373ffffffffffffffffffffffffffffffffffffffff1614610b22576040517f08c379a0000000000000000000000000000000000000000000000000000000008152600401610b1990613d36565b60405180910390fd5b610b2a610d9d565b15610b6a576040517f08c379a0000000000000000000000000000000000000000000000000000000008152600401610b6190613bd6565b60405180910390fd5b610b748282611f5a565b5050565b610b938383836040518060200160405280600081525061157e565b505050565b6101306020528060005260406000206000915090508054610bb890614045565b80601f0160208091040260200160405190810160405280929190818152602001828054610be490614045565b8015610c315780601f10610c0657610100808354040283529160200191610c31565b820191906000526020600020905b815481529060010190602001808311610c1457829003601f168201915b505050505081565b6000610c436108e6565b8210610c84576040517f08c379a0000000000000000000000000000000000000000000000000000000008152600401610c7b90613d76565b60405180910390fd5b60998281548110610c9857610c976141de565b5b90600052602060002001549050919050565b60ca60009054906101000a900473ffffffffffffffffffffffffffffffffffffffff1673ffffffffffffffffffffffffffffffffffffffff163373ffffffffffffffffffffffffffffffffffffffff1614610d3a576040517f08c379a0000000000000000000000000000000000000000000000000000000008152600401610d3190613b56565b60405180910390fd5b610d42610d9d565b15610d82576040517f08c379a0000000000000000000000000000000000000000000000000000000008152600401610d7990613bd6565b60405180910390fd5b8061012f9080519060200190610d99929190612ffb565b5050565b600060fd60009054906101000a900460ff16905090565b6000806067600084815260200190815260200160002060009054906101000a900473ffffffffffffffffffffffffffffffffffffffff169050600073ffffffffffffffffffffffffffffffffffffffff168173ffffffffffffffffffffffffffffffffffffffff161415610e5d576040517f08c379a0000000000000000000000000000000000000000000000000000000008152600401610e5490613c36565b60405180910390fd5b80915050919050565b606061013060008381526020019081526020016000208054610e8790614045565b80601f0160208091040260200160405190810160405280929190818152602001828054610eb390614045565b8015610f005780601f10610ed557610100808354040283529160200191610f00565b820191906000526020600020905b815481529060010190602001808311610ee357829003601f168201915b50505050509050919050565b60606099805480602002602001604051908101604052809291908181526020018280548015610f5a57602002820191906000526020600020905b815481526020019060010190808311610f46575b5050505050905090565b60008073ffffffffffffffffffffffffffffffffffffffff168273ffffffffffffffffffffffffffffffffffffffff161415610fd5576040517f08c379a0000000000000000000000000000000000000000000000000000000008152600401610fcc90613c16565b60405180910390fd5b606860008373ffffffffffffffffffffffffffffffffffffffff1673ffffffffffffffffffffffffffffffffffffffff168152602001908152602001600020549050919050565b60ca60009054906101000a900473ffffffffffffffffffffffffffffffffffffffff1673ffffffffffffffffffffffffffffffffffffffff163373ffffffffffffffffffffffffffffffffffffffff16146110ac576040517f08c379a00000000000000000000000000000000000000000000000000000000081526004016110a390613b56565b60405180910390fd5b8060ca60006101000a81548173ffffffffffffffffffffffffffffffffffffffff021916908373ffffffffffffffffffffffffffffffffffffffff16021790555050565b60c960009054906101000a900473ffffffffffffffffffffffffffffffffffffffff1673ffffffffffffffffffffffffffffffffffffffff163373ffffffffffffffffffffffffffffffffffffffff1614611180576040517f08c379a000000000000000000000000000000000000000000000000000000000815260040161117790613d36565b60405180910390fd5b611188611f78565b565b606060006111966108e6565b9050838110806111a557508284115b156111fc57600067ffffffffffffffff8111156111c5576111c461420d565b5b6040519080825280602002602001820160405280156111f35781602001602082028036833780820191505090505b509150506112ce565b600083821161120b578161120d565b835b905060006001868361121f9190613f5b565b6112299190613ed4565b67ffffffffffffffff8111156112425761124161420d565b5b6040519080825280602002602001820160405280156112705781602001602082028036833780820191505090505b50905060008690505b8281116112c65761128981610c39565b8288836112969190613f5b565b815181106112a7576112a66141de565b5b60200260200101818152505080806112be906140a8565b915050611279565b508093505050505b92915050565b6060606680546112e390614045565b80601f016020809104026020016040519081016040528092919081815260200182805461130f90614045565b801561135c5780601f106113315761010080835404028352916020019161135c565b820191906000526020600020905b81548152906001019060200180831161133f57829003601f168201915b5050505050905090565b60ca60009054906101000a900473ffffffffffffffffffffffffffffffffffffffff1681565b61139e611397611abd565b838361201b565b5050565b606060006113af33610f64565b9050600081141561140c57600067ffffffffffffffff8111156113d5576113d461420d565b5b6040519080825280602002602001820160405280156114035781602001602082028036833780820191505090505b509150506114a7565b60008167ffffffffffffffff8111156114285761142761420d565b5b6040519080825280602002602001820160405280156114565781602001602082028036833780820191505090505b50905060005b828110156114a05761146e3382610953565b828281518110611481576114806141de565b5b6020026020010181815250508080611498906140a8565b91505061145c565b5080925050505b90565b60ca60009054906101000a900473ffffffffffffffffffffffffffffffffffffffff1673ffffffffffffffffffffffffffffffffffffffff163373ffffffffffffffffffffffffffffffffffffffff161461153a576040517f08c379a000000000000000000000000000000000000000000000000000000000815260040161153190613b56565b60405180910390fd5b8060c960006101000a81548173ffffffffffffffffffffffffffffffffffffffff021916908373ffffffffffffffffffffffffffffffffffffffff16021790555050565b61158f611589611abd565b83611b7e565b6115ce576040517f08c379a00000000000000000000000000000000000000000000000000000000081526004016115c590613d56565b60405180910390fd5b6115da84848484612188565b50505050565b60c960009054906101000a900473ffffffffffffffffffffffffffffffffffffffff1681565b606061161182611a51565b611650576040517f08c379a000000000000000000000000000000000000000000000000000000000815260040161164790613cf6565b60405180910390fd5b600061165a6121e4565b9050600081511161167a57604051806020016040528060008152506116a5565b8061168484612277565b6040516020016116959291906139ec565b6040516020818303038152906040525b915050919050565b6000606a60008473ffffffffffffffffffffffffffffffffffffffff1673ffffffffffffffffffffffffffffffffffffffff16815260200190815260200160002060008373ffffffffffffffffffffffffffffffffffffffff1673ffffffffffffffffffffffffffffffffffffffff16815260200190815260200160002060009054906101000a900460ff16905092915050565b600060019054906101000a900460ff166117695760008054906101000a900460ff1615611772565b6117716123d8565b5b6117b1576040517f08c379a00000000000000000000000000000000000000000000000000000000081526004016117a890613c56565b60405180910390fd5b60008060019054906101000a900460ff161590508015611801576001600060016101000a81548160ff02191690831515021790555060016000806101000a81548160ff0219169083151502179055505b6118096123e9565b61187d6040518060400160405280600a81526020017f4d617273436f6c6f6e79000000000000000000000000000000000000000000008152506040518060400160405280600281526020017f4d43000000000000000000000000000000000000000000000000000000000000815250612452565b611886836124bf565b61188e61255e565b8161012f90805190602001906118a5929190612ffb565b5080156118c75760008060016101000a81548160ff0219169083151502179055505b505050565b3373ffffffffffffffffffffffffffffffffffffffff166118ec83610db4565b73ffffffffffffffffffffffffffffffffffffffff1614611942576040517f08c379a000000000000000000000000000000000000000000000000000000000815260040161193990613c96565b60405180910390fd5b806101306000848152602001908152602001600020908051906020019061196a929190612ffb565b505050565b60007f80ac58cd000000000000000000000000000000000000000000000000000000007bffffffffffffffffffffffffffffffffffffffffffffffffffffffff1916827bffffffffffffffffffffffffffffffffffffffffffffffffffffffff19161480611a3a57507f5b5e139f000000000000000000000000000000000000000000000000000000007bffffffffffffffffffffffffffffffffffffffffffffffffffffffff1916827bffffffffffffffffffffffffffffffffffffffffffffffffffffffff1916145b80611a4a5750611a49826125bf565b5b9050919050565b60008073ffffffffffffffffffffffffffffffffffffffff166067600084815260200190815260200160002060009054906101000a900473ffffffffffffffffffffffffffffffffffffffff1673ffffffffffffffffffffffffffffffffffffffff1614159050919050565b600033905090565b816069600083815260200190815260200160002060006101000a81548173ffffffffffffffffffffffffffffffffffffffff021916908373ffffffffffffffffffffffffffffffffffffffff160217905550808273ffffffffffffffffffffffffffffffffffffffff16611b3883610db4565b73ffffffffffffffffffffffffffffffffffffffff167f8c5be1e5ebec7d5bd14f71427d1e84f3dd0314c0f7b2291e5b200ac8c7c3b92560405160405180910390a45050565b6000611b8982611a51565b611bc8576040517f08c379a0000000000000000000000000000000000000000000000000000000008152600401611bbf90613bb6565b60405180910390fd5b6000611bd383610db4565b90508073ffffffffffffffffffffffffffffffffffffffff168473ffffffffffffffffffffffffffffffffffffffff161480611c4257508373ffffffffffffffffffffffffffffffffffffffff16611c2a84610749565b73ffffffffffffffffffffffffffffffffffffffff16145b80611c535750611c5281856116ad565b5b91505092915050565b8273ffffffffffffffffffffffffffffffffffffffff16611c7c82610db4565b73ffffffffffffffffffffffffffffffffffffffff1614611cd2576040517f08c379a0000000000000000000000000000000000000000000000000000000008152600401611cc990613cd6565b60405180910390fd5b600073ffffffffffffffffffffffffffffffffffffffff168273ffffffffffffffffffffffffffffffffffffffff161415611d42576040517f08c379a0000000000000000000000000000000000000000000000000000000008152600401611d3990613b76565b60405180910390fd5b611d4d838383612629565b611d58600082611ac5565b6001606860008573ffffffffffffffffffffffffffffffffffffffff1673ffffffffffffffffffffffffffffffffffffffff1681526020019081526020016000206000828254611da89190613f5b565b925050819055506001606860008473ffffffffffffffffffffffffffffffffffffffff1673ffffffffffffffffffffffffffffffffffffffff1681526020019081526020016000206000828254611dff9190613ed4565b92505081905550816067600083815260200190815260200160002060006101000a81548173ffffffffffffffffffffffffffffffffffffffff021916908373ffffffffffffffffffffffffffffffffffffffff160217905550808273ffffffffffffffffffffffffffffffffffffffff168473ffffffffffffffffffffffffffffffffffffffff167fddf252ad1be2c89b69c2b068fc378daa952ba7f163c4a11628f55a4df523b3ef60405160405180910390a4505050565b611ec0610d9d565b611eff576040517f08c379a0000000000000000000000000000000000000000000000000000000008152600401611ef690613ad6565b60405180910390fd5b600060fd60006101000a81548160ff0219169083151502179055507f5db9ee0a495bf2e6ff9c91a7834c1ba4fdd244a5e8aa4e537bd38aeae4b073aa611f43611abd565b604051611f509190613a10565b60405180910390a1565b611f7482826040518060200160405280600081525061273d565b5050565b611f80610d9d565b15611fc0576040517f08c379a0000000000000000000000000000000000000000000000000000000008152600401611fb790613bd6565b60405180910390fd5b600160fd60006101000a81548160ff0219169083151502179055507f62e78cea01bee320cd4e420270b5ea74000d11b0c9f74754ebdbfc544b05a258612004611abd565b6040516120119190613a10565b60405180910390a1565b8173ffffffffffffffffffffffffffffffffffffffff168373ffffffffffffffffffffffffffffffffffffffff16141561208a576040517f08c379a000000000000000000000000000000000000000000000000000000000815260040161208190613b96565b60405180910390fd5b80606a60008573ffffffffffffffffffffffffffffffffffffffff1673ffffffffffffffffffffffffffffffffffffffff16815260200190815260200160002060008473ffffffffffffffffffffffffffffffffffffffff1673ffffffffffffffffffffffffffffffffffffffff16815260200190815260200160002060006101000a81548160ff0219169083151502179055508173ffffffffffffffffffffffffffffffffffffffff168373ffffffffffffffffffffffffffffffffffffffff167f17307eab39ab6107e8899845ad3d59bd9653f200f220920489ca2b5937696c318360405161217b9190613a99565b60405180910390a3505050565b612193848484611c5c565b61219f84848484612798565b6121de576040517f08c379a00000000000000000000000000000000000000000000000000000000081526004016121d590613b16565b60405180910390fd5b50505050565b606061012f80546121f490614045565b80601f016020809104026020016040519081016040528092919081815260200182805461222090614045565b801561226d5780601f106122425761010080835404028352916020019161226d565b820191906000526020600020905b81548152906001019060200180831161225057829003601f168201915b5050505050905090565b606060008214156122bf576040518060400160405280600181526020017f300000000000000000000000000000000000000000000000000000000000000081525090506123d3565b600082905060005b600082146122f15780806122da906140a8565b915050600a826122ea9190613f2a565b91506122c7565b60008167ffffffffffffffff81111561230d5761230c61420d565b5b6040519080825280601f01601f19166020018201604052801561233f5781602001600182028036833780820191505090505b5090505b600085146123cc576001826123589190613f5b565b9150600a8561236791906140f1565b60306123739190613ed4565b60f81b818381518110612389576123886141de565b5b60200101907effffffffffffffffffffffffffffffffffffffffffffffffffffffffffffff1916908160001a905350600a856123c59190613f2a565b9450612343565b8093505050505b919050565b60006123e33061292f565b15905090565b600060019054906101000a900460ff16612438576040517f08c379a000000000000000000000000000000000000000000000000000000000815260040161242f90613d96565b60405180910390fd5b612440612942565b612448612993565b6124506129e4565b565b600060019054906101000a900460ff166124a1576040517f08c379a000000000000000000000000000000000000000000000000000000000815260040161249890613d96565b60405180910390fd5b6124a9612942565b6124b1612993565b6124bb8282612a35565b5050565b600073ffffffffffffffffffffffffffffffffffffffff1660ca60009054906101000a900473ffffffffffffffffffffffffffffffffffffffff1673ffffffffffffffffffffffffffffffffffffffff161461251a57600080fd5b8060ca60006101000a81548173ffffffffffffffffffffffffffffffffffffffff021916908373ffffffffffffffffffffffffffffffffffffffff16021790555050565b600060019054906101000a900460ff166125ad576040517f08c379a00000000000000000000000000000000000000000000000000000000081526004016125a490613d96565b60405180910390fd5b6125b5612942565b6125bd612ab6565b565b60007f01ffc9a7000000000000000000000000000000000000000000000000000000007bffffffffffffffffffffffffffffffffffffffffffffffffffffffff1916827bffffffffffffffffffffffffffffffffffffffffffffffffffffffff1916149050919050565b612634838383612b22565b600073ffffffffffffffffffffffffffffffffffffffff168373ffffffffffffffffffffffffffffffffffffffff1614156126775761267281612b27565b6126b6565b8173ffffffffffffffffffffffffffffffffffffffff168373ffffffffffffffffffffffffffffffffffffffff16146126b5576126b48382612b70565b5b5b600073ffffffffffffffffffffffffffffffffffffffff168273ffffffffffffffffffffffffffffffffffffffff1614156126f9576126f481612cdd565b612738565b8273ffffffffffffffffffffffffffffffffffffffff168273ffffffffffffffffffffffffffffffffffffffff1614612737576127368282612dae565b5b5b505050565b6127478383612e2d565b6127546000848484612798565b612793576040517f08c379a000000000000000000000000000000000000000000000000000000000815260040161278a90613b16565b60405180910390fd5b505050565b60006127b98473ffffffffffffffffffffffffffffffffffffffff1661292f565b15612922578373ffffffffffffffffffffffffffffffffffffffff1663150b7a026127e2611abd565b8786866040518563ffffffff1660e01b81526004016128049493929190613a2b565b602060405180830381600087803b15801561281e57600080fd5b505af192505050801561284f57506040513d601f19601f8201168201806040525081019061284c9190613433565b60015b6128d2573d806000811461287f576040519150601f19603f3d011682016040523d82523d6000602084013e612884565b606091505b506000815114156128ca576040517f08c379a00000000000000000000000000000000000000000000000000000000081526004016128c190613b16565b60405180910390fd5b805181602001fd5b63150b7a0260e01b7bffffffffffffffffffffffffffffffffffffffffffffffffffffffff1916817bffffffffffffffffffffffffffffffffffffffffffffffffffffffff191614915050612927565b600190505b949350505050565b600080823b905060008111915050919050565b600060019054906101000a900460ff16612991576040517f08c379a000000000000000000000000000000000000000000000000000000000815260040161298890613d96565b60405180910390fd5b565b600060019054906101000a900460ff166129e2576040517f08c379a00000000000000000000000000000000000000000000000000000000081526004016129d990613d96565b60405180910390fd5b565b600060019054906101000a900460ff16612a33576040517f08c379a0000000000000000000000000000000000000000000000000000000008152600401612a2a90613d96565b60405180910390fd5b565b600060019054906101000a900460ff16612a84576040517f08c379a0000000000000000000000000000000000000000000000000000000008152600401612a7b90613d96565b60405180910390fd5b8160659080519060200190612a9a929190612ffb565b508060669080519060200190612ab1929190612ffb565b505050565b600060019054906101000a900460ff16612b05576040517f08c379a0000000000000000000000000000000000000000000000000000000008152600401612afc90613d96565b60405180910390fd5b600060fd60006101000a81548160ff021916908315150217905550565b505050565b609980549050609a600083815260200190815260200160002081905550609981908060018154018082558091505060019003906000526020600020016000909190919091505550565b60006001612b7d84610f64565b612b879190613f5b565b9050600060986000848152602001908152602001600020549050818114612c6c576000609760008673ffffffffffffffffffffffffffffffffffffffff1673ffffffffffffffffffffffffffffffffffffffff168152602001908152602001600020600084815260200190815260200160002054905080609760008773ffffffffffffffffffffffffffffffffffffffff1673ffffffffffffffffffffffffffffffffffffffff168152602001908152602001600020600084815260200190815260200160002081905550816098600083815260200190815260200160002081905550505b6098600084815260200190815260200160002060009055609760008573ffffffffffffffffffffffffffffffffffffffff1673ffffffffffffffffffffffffffffffffffffffff16815260200190815260200160002060008381526020019081526020016000206000905550505050565b60006001609980549050612cf19190613f5b565b90506000609a6000848152602001908152602001600020549050600060998381548110612d2157612d206141de565b5b906000526020600020015490508060998381548110612d4357612d426141de565b5b906000526020600020018190555081609a600083815260200190815260200160002081905550609a6000858152602001908152602001600020600090556099805480612d9257612d916141af565b5b6001900381819060005260206000200160009055905550505050565b6000612db983610f64565b905081609760008573ffffffffffffffffffffffffffffffffffffffff1673ffffffffffffffffffffffffffffffffffffffff168152602001908152602001600020600083815260200190815260200160002081905550806098600084815260200190815260200160002081905550505050565b600073ffffffffffffffffffffffffffffffffffffffff168273ffffffffffffffffffffffffffffffffffffffff161415612e9d576040517f08c379a0000000000000000000000000000000000000000000000000000000008152600401612e9490613c76565b60405180910390fd5b612ea681611a51565b15612ee6576040517f08c379a0000000000000000000000000000000000000000000000000000000008152600401612edd90613b36565b60405180910390fd5b612ef260008383612629565b6001606860008473ffffffffffffffffffffffffffffffffffffffff1673ffffffffffffffffffffffffffffffffffffffff1681526020019081526020016000206000828254612f429190613ed4565b92505081905550816067600083815260200190815260200160002060006101000a81548173ffffffffffffffffffffffffffffffffffffffff021916908373ffffffffffffffffffffffffffffffffffffffff160217905550808273ffffffffffffffffffffffffffffffffffffffff16600073ffffffffffffffffffffffffffffffffffffffff167fddf252ad1be2c89b69c2b068fc378daa952ba7f163c4a11628f55a4df523b3ef60405160405180910390a45050565b82805461300790614045565b90600052602060002090601f0160209004810192826130295760008555613070565b82601f1061304257805160ff1916838001178555613070565b82800160010185558215613070579182015b8281111561306f578251825591602001919060010190613054565b5b50905061307d9190613081565b5090565b5b8082111561309a576000816000905550600101613082565b5090565b60006130b16130ac84613df6565b613dd1565b9050828152602081018484840111156130cd576130cc614241565b5b6130d8848285614003565b509392505050565b60006130f36130ee84613e27565b613dd1565b90508281526020810184848401111561310f5761310e614241565b5b61311a848285614003565b509392505050565b6000813590506131318161484a565b92915050565b60008135905061314681614861565b92915050565b60008135905061315b81614878565b92915050565b60008151905061317081614878565b92915050565b600082601f83011261318b5761318a61423c565b5b813561319b84826020860161309e565b91505092915050565b600082601f8301126131b9576131b861423c565b5b81356131c98482602086016130e0565b91505092915050565b6000813590506131e18161488f565b92915050565b6000602082840312156131fd576131fc61424b565b5b600061320b84828501613122565b91505092915050565b6000806040838503121561322b5761322a61424b565b5b600061323985828601613122565b925050602061324a85828601613122565b9150509250929050565b60008060006060848603121561326d5761326c61424b565b5b600061327b86828701613122565b935050602061328c86828701613122565b925050604061329d868287016131d2565b9150509250925092565b600080600080608085870312156132c1576132c061424b565b5b60006132cf87828801613122565b94505060206132e087828801613122565b93505060406132f1878288016131d2565b925050606085013567ffffffffffffffff81111561331257613311614246565b5b61331e87828801613176565b91505092959194509250565b600080604083850312156133415761334061424b565b5b600061334f85828601613122565b925050602061336085828601613137565b9150509250929050565b600080604083850312156133815761338061424b565b5b600061338f85828601613122565b925050602083013567ffffffffffffffff8111156133b0576133af614246565b5b6133bc858286016131a4565b9150509250929050565b600080604083850312156133dd576133dc61424b565b5b60006133eb85828601613122565b92505060206133fc858286016131d2565b9150509250929050565b60006020828403121561341c5761341b61424b565b5b600061342a8482850161314c565b91505092915050565b6000602082840312156134495761344861424b565b5b600061345784828501613161565b91505092915050565b6000602082840312156134765761347561424b565b5b600082013567ffffffffffffffff81111561349457613493614246565b5b6134a0848285016131a4565b91505092915050565b6000602082840312156134bf576134be61424b565b5b60006134cd848285016131d2565b91505092915050565b600080604083850312156134ed576134ec61424b565b5b60006134fb858286016131d2565b925050602083013567ffffffffffffffff81111561351c5761351b614246565b5b613528858286016131a4565b9150509250929050565b600080604083850312156135495761354861424b565b5b6000613557858286016131d2565b9250506020613568858286016131d2565b9150509250929050565b600061357e83836139ce565b60208301905092915050565b61359381613f8f565b82525050565b60006135a482613e68565b6135ae8185613e96565b93506135b983613e58565b8060005b838110156135ea5781516135d18882613572565b97506135dc83613e89565b9250506001810190506135bd565b5085935050505092915050565b61360081613fa1565b82525050565b600061361182613e73565b61361b8185613ea7565b935061362b818560208601614012565b61363481614250565b840191505092915050565b600061364a82613e7e565b6136548185613eb8565b9350613664818560208601614012565b61366d81614250565b840191505092915050565b600061368382613e7e565b61368d8185613ec9565b935061369d818560208601614012565b80840191505092915050565b60006136b6601483613eb8565b91506136c182614261565b602082019050919050565b60006136d9602b83613eb8565b91506136e48261428a565b604082019050919050565b60006136fc603283613eb8565b9150613707826142d9565b604082019050919050565b600061371f601c83613eb8565b915061372a82614328565b602082019050919050565b6000613742600883613eb8565b915061374d82614351565b602082019050919050565b6000613765602483613eb8565b91506137708261437a565b604082019050919050565b6000613788601983613eb8565b9150613793826143c9565b602082019050919050565b60006137ab602c83613eb8565b91506137b6826143f2565b604082019050919050565b60006137ce601083613eb8565b91506137d982614441565b602082019050919050565b60006137f1603883613eb8565b91506137fc8261446a565b604082019050919050565b6000613814602a83613eb8565b915061381f826144b9565b604082019050919050565b6000613837602983613eb8565b915061384282614508565b604082019050919050565b600061385a602e83613eb8565b915061386582614557565b604082019050919050565b600061387d602083613eb8565b9150613888826145a6565b602082019050919050565b60006138a0600e83613eb8565b91506138ab826145cf565b602082019050919050565b60006138c3602c83613eb8565b91506138ce826145f8565b604082019050919050565b60006138e6602983613eb8565b91506138f182614647565b604082019050919050565b6000613909602f83613eb8565b915061391482614696565b604082019050919050565b600061392c602183613eb8565b9150613937826146e5565b604082019050919050565b600061394f601083613eb8565b915061395a82614734565b602082019050919050565b6000613972603183613eb8565b915061397d8261475d565b604082019050919050565b6000613995602c83613eb8565b91506139a0826147ac565b604082019050919050565b60006139b8602b83613eb8565b91506139c3826147fb565b604082019050919050565b6139d781613ff9565b82525050565b6139e681613ff9565b82525050565b60006139f88285613678565b9150613a048284613678565b91508190509392505050565b6000602082019050613a25600083018461358a565b92915050565b6000608082019050613a40600083018761358a565b613a4d602083018661358a565b613a5a60408301856139dd565b8181036060830152613a6c8184613606565b905095945050505050565b60006020820190508181036000830152613a918184613599565b905092915050565b6000602082019050613aae60008301846135f7565b92915050565b60006020820190508181036000830152613ace818461363f565b905092915050565b60006020820190508181036000830152613aef816136a9565b9050919050565b60006020820190508181036000830152613b0f816136cc565b9050919050565b60006020820190508181036000830152613b2f816136ef565b9050919050565b60006020820190508181036000830152613b4f81613712565b9050919050565b60006020820190508181036000830152613b6f81613735565b9050919050565b60006020820190508181036000830152613b8f81613758565b9050919050565b60006020820190508181036000830152613baf8161377b565b9050919050565b60006020820190508181036000830152613bcf8161379e565b9050919050565b60006020820190508181036000830152613bef816137c1565b9050919050565b60006020820190508181036000830152613c0f816137e4565b9050919050565b60006020820190508181036000830152613c2f81613807565b9050919050565b60006020820190508181036000830152613c4f8161382a565b9050919050565b60006020820190508181036000830152613c6f8161384d565b9050919050565b60006020820190508181036000830152613c8f81613870565b9050919050565b60006020820190508181036000830152613caf81613893565b9050919050565b60006020820190508181036000830152613ccf816138b6565b9050919050565b60006020820190508181036000830152613cef816138d9565b9050919050565b60006020820190508181036000830152613d0f816138fc565b9050919050565b60006020820190508181036000830152613d2f8161391f565b9050919050565b60006020820190508181036000830152613d4f81613942565b9050919050565b60006020820190508181036000830152613d6f81613965565b9050919050565b60006020820190508181036000830152613d8f81613988565b9050919050565b60006020820190508181036000830152613daf816139ab565b9050919050565b6000602082019050613dcb60008301846139dd565b92915050565b6000613ddb613dec565b9050613de78282614077565b919050565b6000604051905090565b600067ffffffffffffffff821115613e1157613e1061420d565b5b613e1a82614250565b9050602081019050919050565b600067ffffffffffffffff821115613e4257613e4161420d565b5b613e4b82614250565b9050602081019050919050565b6000819050602082019050919050565b600081519050919050565b600081519050919050565b600081519050919050565b6000602082019050919050565b600082825260208201905092915050565b600082825260208201905092915050565b600082825260208201905092915050565b600081905092915050565b6000613edf82613ff9565b9150613eea83613ff9565b9250827fffffffffffffffffffffffffffffffffffffffffffffffffffffffffffffffff03821115613f1f57613f1e614122565b5b828201905092915050565b6000613f3582613ff9565b9150613f4083613ff9565b925082613f5057613f4f614151565b5b828204905092915050565b6000613f6682613ff9565b9150613f7183613ff9565b925082821015613f8457613f83614122565b5b828203905092915050565b6000613f9a82613fd9565b9050919050565b60008115159050919050565b60007fffffffff0000000000000000000000000000000000000000000000000000000082169050919050565b600073ffffffffffffffffffffffffffffffffffffffff82169050919050565b6000819050919050565b82818337600083830152505050565b60005b83811015614030578082015181840152602081019050614015565b8381111561403f576000848401525b50505050565b6000600282049050600182168061405d57607f821691505b6020821081141561407157614070614180565b5b50919050565b61408082614250565b810181811067ffffffffffffffff8211171561409f5761409e61420d565b5b80604052505050565b60006140b382613ff9565b91507fffffffffffffffffffffffffffffffffffffffffffffffffffffffffffffffff8214156140e6576140e5614122565b5b600182019050919050565b60006140fc82613ff9565b915061410783613ff9565b92508261411757614116614151565b5b828206905092915050565b7f4e487b7100000000000000000000000000000000000000000000000000000000600052601160045260246000fd5b7f4e487b7100000000000000000000000000000000000000000000000000000000600052601260045260246000fd5b7f4e487b7100000000000000000000000000000000000000000000000000000000600052602260045260246000fd5b7f4e487b7100000000000000000000000000000000000000000000000000000000600052603160045260246000fd5b7f4e487b7100000000000000000000000000000000000000000000000000000000600052603260045260246000fd5b7f4e487b7100000000000000000000000000000000000000000000000000000000600052604160045260246000fd5b600080fd5b600080fd5b600080fd5b600080fd5b6000601f19601f8301169050919050565b7f5061757361626c653a206e6f7420706175736564000000000000000000000000600082015250565b7f455243373231456e756d657261626c653a206f776e657220696e646578206f7560008201527f74206f6620626f756e6473000000000000000000000000000000000000000000602082015250565b7f4552433732313a207472616e7366657220746f206e6f6e20455243373231526560008201527f63656976657220696d706c656d656e7465720000000000000000000000000000602082015250565b7f4552433732313a20746f6b656e20616c7265616479206d696e74656400000000600082015250565b7f4f6e6c792044414f000000000000000000000000000000000000000000000000600082015250565b7f4552433732313a207472616e7366657220746f20746865207a65726f2061646460008201527f7265737300000000000000000000000000000000000000000000000000000000602082015250565b7f4552433732313a20617070726f766520746f2063616c6c657200000000000000600082015250565b7f4552433732313a206f70657261746f7220717565727920666f72206e6f6e657860008201527f697374656e7420746f6b656e0000000000000000000000000000000000000000602082015250565b7f5061757361626c653a2070617573656400000000000000000000000000000000600082015250565b7f4552433732313a20617070726f76652063616c6c6572206973206e6f74206f7760008201527f6e6572206e6f7220617070726f76656420666f7220616c6c0000000000000000602082015250565b7f4552433732313a2062616c616e636520717565727920666f7220746865207a6560008201527f726f206164647265737300000000000000000000000000000000000000000000602082015250565b7f4552433732313a206f776e657220717565727920666f72206e6f6e657869737460008201527f656e7420746f6b656e0000000000000000000000000000000000000000000000602082015250565b7f496e697469616c697a61626c653a20636f6e747261637420697320616c72656160008201527f647920696e697469616c697a6564000000000000000000000000000000000000602082015250565b7f4552433732313a206d696e7420746f20746865207a65726f2061646472657373600082015250565b7f4e6f7420796f757220746f6b656e000000000000000000000000000000000000600082015250565b7f4552433732313a20617070726f76656420717565727920666f72206e6f6e657860008201527f697374656e7420746f6b656e0000000000000000000000000000000000000000602082015250565b7f4552433732313a207472616e73666572206f6620746f6b656e2074686174206960008201527f73206e6f74206f776e0000000000000000000000000000000000000000000000602082015250565b7f4552433732314d657461646174613a2055524920717565727920666f72206e6f60008201527f6e6578697374656e7420746f6b656e0000000000000000000000000000000000602082015250565b7f4552433732313a20617070726f76616c20746f2063757272656e74206f776e6560008201527f7200000000000000000000000000000000000000000000000000000000000000602082015250565b7f4f6e6c792047616d654d616e6167657200000000000000000000000000000000600082015250565b7f4552433732313a207472616e736665722063616c6c6572206973206e6f74206f60008201527f776e6572206e6f7220617070726f766564000000000000000000000000000000602082015250565b7f455243373231456e756d657261626c653a20676c6f62616c20696e646578206f60008201527f7574206f6620626f756e64730000000000000000000000000000000000000000602082015250565b7f496e697469616c697a61626c653a20636f6e7472616374206973206e6f74206960008201527f6e697469616c697a696e67000000000000000000000000000000000000000000602082015250565b61485381613f8f565b811461485e57600080fd5b50565b61486a81613fa1565b811461487557600080fd5b50565b61488181613fad565b811461488c57600080fd5b50565b61489881613ff9565b81146148a357600080fd5b5056fea2646970667358221220f10c87923c5f51b9c2e4ceba92dae2f3ab36059ad30ce69679ef09477162c97e64736f6c63430008050033",
  "immutableReferences": {},
  "source": "/**\n * ERC721 MC token - land plots\n */\n\n// SPDX-License-Identifier: MIT\npragma solidity >=0.8.0 <0.9.0;\nimport './ERC721EnumerableUpgradeable.sol';\nimport './GameConnection.sol';\nimport '@openzeppelin/contracts-upgradeable/security/PausableUpgradeable.sol';\n\n\ncontract MC is ERC721EnumerableUpgradeable, GameConnection, PausableUpgradeable {\n  string private nftBaseURI;\n  mapping (uint256 => string) public names; // token owner can set a name for their NFT\n\n  uint256[50] private ______mc_gap;\n\n  function initialize(address _DAO, string memory _nftBaseURI) public initializer {\n    ERC721EnumerableUpgradeable.__ERC721Enumerable_init();\n    __ERC721_init('MarsColony', 'MC');\n    GameConnection.__GameConnection_init(_DAO);\n    PausableUpgradeable.__Pausable_init();\n    nftBaseURI = _nftBaseURI;\n  }\n\n  function _baseURI() internal view virtual override returns (string memory) {\n    return nftBaseURI;\n  }\n\n  function setBaseURI(string memory newURI) external onlyDAO whenNotPaused {\n    nftBaseURI = newURI;\n  }\n\n  function mint(address receiver, uint256 tokenId) external onlyGameManager whenNotPaused {\n    _safeMint(receiver, tokenId);\n  }\n\n  function pause() external onlyGameManager {\n    _pause();\n  }\n\n  function unpause() external onlyGameManager {\n    _unpause();\n  }\n\n  function allTokens() external view returns(uint256[] memory) {\n    return _allTokens;\n  }\n\n  function allMyTokens() external view returns(uint256[] memory) {\n    uint256 tokenCount = balanceOf(msg.sender);\n    if (tokenCount == 0) {\n      return new uint256[](0);\n    } else {\n      uint256[] memory result = new uint256[](tokenCount);\n      for (uint256 i = 0; i < tokenCount; i++) {\n        result[i] = tokenOfOwnerByIndex(msg.sender, i);\n      }\n      return result;\n    }\n  }\n\n  function allTokensPaginate(uint256 _from, uint256 _to) external view returns(uint256[] memory) {\n    uint256 tokenCount = ERC721EnumerableUpgradeable.totalSupply();\n    if (tokenCount < _from || _from > _to) {\n      return new uint256[](0);\n    }\n    uint256 to = (tokenCount > _to) ? _to : tokenCount;\n    uint256[] memory result = new uint256[](to - _from + 1);\n    for (uint256 i = _from; i <= to; i++) {\n      result[i - _from] = tokenByIndex(i);\n    }\n    return result;\n  }\n\n  function setName(uint256 tokenId, string memory _name) external {\n    require (ownerOf(tokenId) == msg.sender, 'Not your token');\n    names[tokenId] = _name;\n  }\n\n  function getName(uint256 tokenId) external view returns (string memory) {\n    return names[tokenId];\n  }\n}\n",
  "sourcePath": "/Users/kek/contracts/contracts/MC.sol",
  "compiler": {
    "name": "solc",
    "version": "0.8.5+commit.a4f2e591.Emscripten.clang"
  },
  "schemaVersion": "3.4.3",
  "updatedAt": "2022-01-07T13:52:24.808Z",
  "networkType": "ethereum",
  "devdoc": {
    "kind": "dev",
    "methods": {
      "approve(address,uint256)": {
        "details": "See {IERC721-approve}."
      },
      "balanceOf(address)": {
        "details": "See {IERC721-balanceOf}."
      },
      "getApproved(uint256)": {
        "details": "See {IERC721-getApproved}."
      },
      "isApprovedForAll(address,address)": {
        "details": "See {IERC721-isApprovedForAll}."
      },
      "name()": {
        "details": "See {IERC721Metadata-name}."
      },
      "ownerOf(uint256)": {
        "details": "See {IERC721-ownerOf}."
      },
      "paused()": {
        "details": "Returns true if the contract is paused, and false otherwise."
      },
      "safeTransferFrom(address,address,uint256)": {
        "details": "See {IERC721-safeTransferFrom}."
      },
      "safeTransferFrom(address,address,uint256,bytes)": {
        "details": "See {IERC721-safeTransferFrom}."
      },
      "setApprovalForAll(address,bool)": {
        "details": "See {IERC721-setApprovalForAll}."
      },
      "supportsInterface(bytes4)": {
        "details": "See {IERC165-supportsInterface}."
      },
      "symbol()": {
        "details": "See {IERC721Metadata-symbol}."
      },
      "tokenByIndex(uint256)": {
        "details": "See {IERC721Enumerable-tokenByIndex}."
      },
      "tokenOfOwnerByIndex(address,uint256)": {
        "details": "See {IERC721Enumerable-tokenOfOwnerByIndex}."
      },
      "tokenURI(uint256)": {
        "details": "See {IERC721Metadata-tokenURI}."
      },
      "totalSupply()": {
        "details": "See {IERC721Enumerable-totalSupply}."
      },
      "transferFrom(address,address,uint256)": {
        "details": "See {IERC721-transferFrom}."
      }
    },
    "version": 1
  },
  "userdoc": {
    "kind": "user",
    "methods": {},
    "version": 1
  }
}