{
  "contractName": "GameManager",
  "abi": [
    {
      "anonymous": false,
      "inputs": [
        {
          "indexed": true,
          "internalType": "address",
          "name": "receiver",
          "type": "address"
        },
        {
          "indexed": true,
          "internalType": "uint256",
          "name": "tokenId",
          "type": "uint256"
        }
      ],
      "name": "Airdrop",
      "type": "event"
    },
    {
      "anonymous": false,
      "inputs": [
        {
          "indexed": false,
          "internalType": "uint256",
          "name": "tokenId",
          "type": "uint256"
        },
        {
          "indexed": true,
          "internalType": "address",
          "name": "owner",
          "type": "address"
        }
      ],
      "name": "BuildBaseStation",
      "type": "event"
    },
    {
      "anonymous": false,
      "inputs": [
        {
          "indexed": false,
          "internalType": "uint256",
          "name": "tokenId",
          "type": "uint256"
        },
        {
          "indexed": true,
          "internalType": "address",
          "name": "owner",
          "type": "address"
        },
        {
          "indexed": false,
          "internalType": "uint8",
          "name": "level",
          "type": "uint8"
        }
      ],
      "name": "BuildPowerProduction",
      "type": "event"
    },
    {
      "anonymous": false,
      "inputs": [
        {
          "indexed": false,
          "internalType": "uint256",
          "name": "tokenId",
          "type": "uint256"
        },
        {
          "indexed": true,
          "internalType": "address",
          "name": "owner",
          "type": "address"
        },
        {
          "indexed": false,
          "internalType": "uint8",
          "name": "level",
          "type": "uint8"
        }
      ],
      "name": "BuildRobotAssembly",
      "type": "event"
    },
    {
      "anonymous": false,
      "inputs": [
        {
          "indexed": false,
          "internalType": "uint256",
          "name": "tokenId",
          "type": "uint256"
        },
        {
          "indexed": true,
          "internalType": "address",
          "name": "owner",
          "type": "address"
        },
        {
          "indexed": false,
          "internalType": "uint8",
          "name": "level",
          "type": "uint8"
        }
      ],
      "name": "BuildTransport",
      "type": "event"
    },
    {
      "anonymous": false,
      "inputs": [
        {
          "indexed": false,
          "internalType": "address",
          "name": "account",
          "type": "address"
        }
      ],
      "name": "Paused",
      "type": "event"
    },
    {
      "anonymous": false,
      "inputs": [
        {
          "indexed": false,
          "internalType": "address",
          "name": "account",
          "type": "address"
        }
      ],
      "name": "Unpaused",
      "type": "event"
    },
    {
      "inputs": [],
      "name": "CLNYAddress",
      "outputs": [
        {
          "internalType": "address",
          "name": "",
          "type": "address"
        }
      ],
      "stateMutability": "view",
      "type": "function",
      "constant": true
    },
    {
      "inputs": [],
      "name": "DAO",
      "outputs": [
        {
          "internalType": "address",
          "name": "",
          "type": "address"
        }
      ],
      "stateMutability": "view",
      "type": "function",
      "constant": true
    },
    {
      "inputs": [],
      "name": "MCAddress",
      "outputs": [
        {
          "internalType": "address",
          "name": "",
          "type": "address"
        }
      ],
      "stateMutability": "view",
      "type": "function",
      "constant": true
    },
    {
      "inputs": [],
      "name": "liquidity",
      "outputs": [
        {
          "internalType": "address",
          "name": "",
          "type": "address"
        }
      ],
      "stateMutability": "view",
      "type": "function",
      "constant": true
    },
    {
      "inputs": [],
      "name": "maxTokenId",
      "outputs": [
        {
          "internalType": "uint256",
          "name": "",
          "type": "uint256"
        }
      ],
      "stateMutability": "view",
      "type": "function",
      "constant": true
    },
    {
      "inputs": [],
      "name": "paused",
      "outputs": [
        {
          "internalType": "bool",
          "name": "",
          "type": "bool"
        }
      ],
      "stateMutability": "view",
      "type": "function",
      "constant": true
    },
    {
      "inputs": [],
      "name": "price",
      "outputs": [
        {
          "internalType": "uint256",
          "name": "",
          "type": "uint256"
        }
      ],
      "stateMutability": "view",
      "type": "function",
      "constant": true
    },
    {
      "inputs": [],
      "name": "treasury",
      "outputs": [
        {
          "internalType": "address",
          "name": "",
          "type": "address"
        }
      ],
      "stateMutability": "view",
      "type": "function",
      "constant": true
    },
    {
      "inputs": [
        {
          "internalType": "address",
          "name": "_DAO",
          "type": "address"
        },
        {
          "internalType": "address",
          "name": "_CLNYAddress",
          "type": "address"
        },
        {
          "internalType": "address",
          "name": "_MCAddress",
          "type": "address"
        },
        {
          "internalType": "address",
          "name": "_treasury",
          "type": "address"
        },
        {
          "internalType": "address",
          "name": "_liquidity",
          "type": "address"
        }
      ],
      "name": "initialize",
      "outputs": [],
      "stateMutability": "nonpayable",
      "type": "function"
    },
    {
      "inputs": [
        {
          "internalType": "address",
          "name": "_DAO",
          "type": "address"
        }
      ],
      "name": "transferDAO",
      "outputs": [],
      "stateMutability": "nonpayable",
      "type": "function"
    },
    {
      "inputs": [
        {
          "internalType": "address",
          "name": "_treasury",
          "type": "address"
        }
      ],
      "name": "setTreasury",
      "outputs": [],
      "stateMutability": "nonpayable",
      "type": "function"
    },
    {
      "inputs": [
        {
          "internalType": "address",
          "name": "_liquidity",
          "type": "address"
        }
      ],
      "name": "setLiquidity",
      "outputs": [],
      "stateMutability": "nonpayable",
      "type": "function"
    },
    {
      "inputs": [
        {
          "internalType": "uint256",
          "name": "tokenCount",
          "type": "uint256"
        }
      ],
      "name": "getFee",
      "outputs": [
        {
          "internalType": "uint256",
          "name": "",
          "type": "uint256"
        }
      ],
      "stateMutability": "view",
      "type": "function",
      "constant": true
    },
    {
      "inputs": [
        {
          "internalType": "uint256",
          "name": "_price",
          "type": "uint256"
        }
      ],
      "name": "setPrice",
      "outputs": [],
      "stateMutability": "nonpayable",
      "type": "function"
    },
    {
      "inputs": [
        {
          "internalType": "uint256",
          "name": "_id",
          "type": "uint256"
        }
      ],
      "name": "setMaxTokenId",
      "outputs": [],
      "stateMutability": "nonpayable",
      "type": "function"
    },
    {
      "inputs": [
        {
          "internalType": "address",
          "name": "_address",
          "type": "address"
        }
      ],
      "name": "setCLNYAddress",
      "outputs": [],
      "stateMutability": "nonpayable",
      "type": "function"
    },
    {
      "inputs": [
        {
          "internalType": "address",
          "name": "_address",
          "type": "address"
        }
      ],
      "name": "setMCAddress",
      "outputs": [],
      "stateMutability": "nonpayable",
      "type": "function"
    },
    {
      "inputs": [
        {
          "internalType": "uint256",
          "name": "tokenId",
          "type": "uint256"
        }
      ],
      "name": "claimOne",
      "outputs": [],
      "stateMutability": "payable",
      "type": "function",
      "payable": true
    },
    {
      "inputs": [
        {
          "internalType": "uint256[]",
          "name": "tokenIds",
          "type": "uint256[]"
        }
      ],
      "name": "claim",
      "outputs": [],
      "stateMutability": "payable",
      "type": "function",
      "payable": true
    },
    {
      "inputs": [],
      "name": "pause",
      "outputs": [],
      "stateMutability": "nonpayable",
      "type": "function"
    },
    {
      "inputs": [],
      "name": "unpause",
      "outputs": [],
      "stateMutability": "nonpayable",
      "type": "function"
    },
    {
      "inputs": [
        {
          "internalType": "address",
          "name": "receiver",
          "type": "address"
        },
        {
          "internalType": "uint256",
          "name": "tokenId",
          "type": "uint256"
        }
      ],
      "name": "airdrop",
      "outputs": [],
      "stateMutability": "nonpayable",
      "type": "function"
    },
    {
      "inputs": [
        {
          "internalType": "uint256",
          "name": "tokenId",
          "type": "uint256"
        }
      ],
      "name": "getLastCheckout",
      "outputs": [
        {
          "internalType": "uint256",
          "name": "",
          "type": "uint256"
        }
      ],
      "stateMutability": "view",
      "type": "function",
      "constant": true
    },
    {
      "inputs": [
        {
          "internalType": "uint256",
          "name": "tokenId",
          "type": "uint256"
        }
      ],
      "name": "getEarned",
      "outputs": [
        {
          "internalType": "uint256",
          "name": "",
          "type": "uint256"
        }
      ],
      "stateMutability": "view",
      "type": "function",
      "constant": true
    },
    {
      "inputs": [
        {
          "internalType": "uint256[]",
          "name": "tokenIds",
          "type": "uint256[]"
        }
      ],
      "name": "getEarningData",
      "outputs": [
        {
          "internalType": "uint256",
          "name": "",
          "type": "uint256"
        },
        {
          "internalType": "uint256",
          "name": "",
          "type": "uint256"
        }
      ],
      "stateMutability": "view",
      "type": "function",
      "constant": true
    },
    {
      "inputs": [
        {
          "internalType": "uint256",
          "name": "tokenId",
          "type": "uint256"
        }
      ],
      "name": "getEarningSpeed",
      "outputs": [
        {
          "internalType": "uint256",
          "name": "",
          "type": "uint256"
        }
      ],
      "stateMutability": "view",
      "type": "function",
      "constant": true
    },
    {
      "inputs": [
        {
          "internalType": "uint256",
          "name": "tokenId",
          "type": "uint256"
        }
      ],
      "name": "buildBaseStation",
      "outputs": [],
      "stateMutability": "nonpayable",
      "type": "function"
    },
    {
      "inputs": [
        {
          "internalType": "uint256",
          "name": "tokenId",
          "type": "uint256"
        },
        {
          "internalType": "uint8",
          "name": "level",
          "type": "uint8"
        }
      ],
      "name": "buildTransport",
      "outputs": [],
      "stateMutability": "nonpayable",
      "type": "function"
    },
    {
      "inputs": [
        {
          "internalType": "uint256",
          "name": "tokenId",
          "type": "uint256"
        },
        {
          "internalType": "uint8",
          "name": "level",
          "type": "uint8"
        }
      ],
      "name": "buildRobotAssembly",
      "outputs": [],
      "stateMutability": "nonpayable",
      "type": "function"
    },
    {
      "inputs": [
        {
          "internalType": "uint256",
          "name": "tokenId",
          "type": "uint256"
        },
        {
          "internalType": "uint8",
          "name": "level",
          "type": "uint8"
        }
      ],
      "name": "buildPowerProduction",
      "outputs": [],
      "stateMutability": "nonpayable",
      "type": "function"
    },
    {
      "inputs": [
        {
          "internalType": "uint256",
          "name": "tokenId",
          "type": "uint256"
        }
      ],
      "name": "getEnhancements",
      "outputs": [
        {
          "internalType": "uint8",
          "name": "",
          "type": "uint8"
        },
        {
          "internalType": "uint8",
          "name": "",
          "type": "uint8"
        },
        {
          "internalType": "uint8",
          "name": "",
          "type": "uint8"
        },
        {
          "internalType": "uint8",
          "name": "",
          "type": "uint8"
        }
      ],
      "stateMutability": "view",
      "type": "function",
      "constant": true
    },
    {
      "inputs": [
        {
          "internalType": "uint256",
          "name": "tokenId",
          "type": "uint256"
        }
      ],
      "name": "getAttributes",
      "outputs": [
        {
          "internalType": "uint8",
          "name": "",
          "type": "uint8"
        },
        {
          "internalType": "uint8",
          "name": "",
          "type": "uint8"
        },
        {
          "internalType": "uint8",
          "name": "",
          "type": "uint8"
        },
        {
          "internalType": "uint8",
          "name": "",
          "type": "uint8"
        },
        {
          "internalType": "uint256",
          "name": "",
          "type": "uint256"
        },
        {
          "internalType": "uint256",
          "name": "",
          "type": "uint256"
        }
      ],
      "stateMutability": "view",
      "type": "function",
      "constant": true
    },
    {
      "inputs": [
        {
          "internalType": "uint256[]",
          "name": "tokenIds",
          "type": "uint256[]"
        }
      ],
      "name": "claimEarned",
      "outputs": [],
      "stateMutability": "nonpayable",
      "type": "function"
    },
    {
      "inputs": [],
      "name": "withdraw",
      "outputs": [],
      "stateMutability": "nonpayable",
      "type": "function"
    },
    {
      "inputs": [
        {
          "internalType": "uint256",
          "name": "value",
          "type": "uint256"
        }
      ],
      "name": "withdrawValue",
      "outputs": [],
      "stateMutability": "nonpayable",
      "type": "function"
    },
    {
      "inputs": [],
      "name": "burn10kLiquidity",
      "outputs": [],
      "stateMutability": "nonpayable",
      "type": "function"
    }
  ],
  "bytecode": "0x608060405234801561001057600080fd5b5061480e806100206000396000f3fe60806040526004361061020f5760003560e01c806381fd61cc116101185780639a3274c4116100a0578063d26a0dfb1161006f578063d26a0dfb14610724578063e93875041461073b578063f0f4426014610778578063fcee45f4146107a1578063fd5da729146107de5761020f565b80639a3274c41461067e578063a035b1fe146106a7578063cb6ff6f9146106d2578063cfc26d99146106fb5761020f565b806391b7f5ed116100e757806391b7f5ed1461059957806391ba317a146105c257806391cdd9f0146105ed578063932070cd1461061657806398fabd3a146106535761020f565b806381fd61cc146105055780638451938c1461052e5780638456cb59146105595780638ba4cc3c146105705761020f565b80634378a6e31161019b578063662331261161016a57806366233126146104505780636ba4c1381461046c5780636e13b00a1461048857806372cab4b8146104b35780637a318866146104dc5761020f565b80634378a6e3146103785780635bde71ac146103ba5780635c975abb146103fa57806361d027b3146104255761020f565b806333e3480f116101e257806333e3480f146102cf57806336171e0e146102f85780633ccfd60b146103215780633f4ba83a1461033857806342aa65f41461034f5761020f565b806308cfe44b146102145780631459457a146102525780631a6865021461027b578063202fcbbd146102a6575b600080fd5b34801561022057600080fd5b5061023b6004803603810190610236919061396c565b61081b565b604051610249929190614016565b60405180910390f35b34801561025e57600080fd5b5061027960048036038101906102749190613864565b6108ae565b005b34801561028757600080fd5b50610290610afd565b60405161029d9190613d31565b60405180910390f35b3480156102b257600080fd5b506102cd60048036038101906102c891906139b5565b610b23565b005b3480156102db57600080fd5b506102f660048036038101906102f191906139e2565b610c01565b005b34801561030457600080fd5b5061031f600480360381019061031a919061380a565b610ea3565b005b34801561032d57600080fd5b50610336610f77565b005b34801561034457600080fd5b5061034d61111c565b005b34801561035b57600080fd5b506103766004803603810190610371919061391f565b6112ba565b005b34801561038457600080fd5b5061039f600480360381019061039a91906139b5565b61174c565b6040516103b1969594939291906140ad565b60405180910390f35b3480156103c657600080fd5b506103e160048036038101906103dc91906139b5565b61180c565b6040516103f19493929190614068565b60405180910390f35b34801561040657600080fd5b5061040f6118b1565b60405161041c9190613d9e565b60405180910390f35b34801561043157600080fd5b5061043a6118c8565b6040516104479190613d31565b60405180910390f35b61046a600480360381019061046591906139b5565b6118ee565b005b6104866004803603810190610481919061391f565b611987565b005b34801561049457600080fd5b5061049d611ab2565b6040516104aa9190613d31565b60405180910390f35b3480156104bf57600080fd5b506104da60048036038101906104d5919061380a565b611ad8565b005b3480156104e857600080fd5b5061050360048036038101906104fe919061380a565b611bac565b005b34801561051157600080fd5b5061052c6004803603810190610527919061380a565b611c80565b005b34801561053a57600080fd5b50610543611d54565b6040516105509190613d31565b60405180910390f35b34801561056557600080fd5b5061056e611d7a565b005b34801561057c57600080fd5b50610597600480360381019061059291906138df565b611f18565b005b3480156105a557600080fd5b506105c060048036038101906105bb91906139b5565b612042565b005b3480156105ce57600080fd5b506105d761213d565b6040516105e49190613ffb565b60405180910390f35b3480156105f957600080fd5b50610614600480360381019061060f91906139b5565b612143565b005b34801561062257600080fd5b5061063d600480360381019061063891906139b5565b6122e9565b60405161064a9190613ffb565b60405180910390f35b34801561065f57600080fd5b50610668612327565b6040516106759190613d31565b60405180910390f35b34801561068a57600080fd5b506106a560048036038101906106a091906139e2565b61234d565b005b3480156106b357600080fd5b506106bc6125ef565b6040516106c99190613ffb565b60405180910390f35b3480156106de57600080fd5b506106f960048036038101906106f491906139e2565b6125f5565b005b34801561070757600080fd5b50610722600480360381019061071d91906139b5565b612897565b005b34801561073057600080fd5b50610739612af6565b005b34801561074757600080fd5b50610762600480360381019061075d91906139b5565b612c41565b60405161076f9190613ffb565b60405180910390f35b34801561078457600080fd5b5061079f600480360381019061079a919061380a565b612ce7565b005b3480156107ad57600080fd5b506107c860048036038101906107c391906139b5565b612dbb565b6040516107d59190613ffb565b60405180910390f35b3480156107ea57600080fd5b50610805600480360381019061080091906139b5565b612dd2565b6040516108129190613ffb565b60405180910390f35b60008060008060005b85518110156108a05761085086828151811061084357610842614403565b5b6020026020010151612c41565b8361085b9190614186565b925061088086828151811061087357610872614403565b5b6020026020010151612dd2565b8261088b9190614186565b9150808061089890614332565b915050610824565b508181935093505050915091565b600060019054906101000a900460ff166108d65760008054906101000a900460ff16156108df565b6108de6130ee565b5b61091e576040517f08c379a000000000000000000000000000000000000000000000000000000000815260040161091590613f5b565b60405180910390fd5b60008060019054906101000a900460ff16159050801561096e576001600060016101000a81548160ff02191690831515021790555060016000806101000a81548160ff0219169083151502179055505b6109766130ff565b85609760006101000a81548173ffffffffffffffffffffffffffffffffffffffff021916908373ffffffffffffffffffffffffffffffffffffffff16021790555084609b60006101000a81548173ffffffffffffffffffffffffffffffffffffffff021916908373ffffffffffffffffffffffffffffffffffffffff16021790555083609d60006101000a81548173ffffffffffffffffffffffffffffffffffffffff021916908373ffffffffffffffffffffffffffffffffffffffff160217905550615208609c81905550680d8d726b7177a80000609a8190555082609860006101000a81548173ffffffffffffffffffffffffffffffffffffffff021916908373ffffffffffffffffffffffffffffffffffffffff16021790555081609960006101000a81548173ffffffffffffffffffffffffffffffffffffffff021916908373ffffffffffffffffffffffffffffffffffffffff1602179055508015610af55760008060016101000a81548160ff0219169083151502179055505b505050505050565b609960009054906101000a900473ffffffffffffffffffffffffffffffffffffffff1681565b609760009054906101000a900473ffffffffffffffffffffffffffffffffffffffff1673ffffffffffffffffffffffffffffffffffffffff163373ffffffffffffffffffffffffffffffffffffffff1614610bb3576040517f08c379a0000000000000000000000000000000000000000000000000000000008152600401610baa90613edb565b60405180910390fd5b609c548111610bf7576040517f08c379a0000000000000000000000000000000000000000000000000000000008152600401610bee90613e9b565b60405180910390fd5b80609c8190555050565b813373ffffffffffffffffffffffffffffffffffffffff16609d60009054906101000a900473ffffffffffffffffffffffffffffffffffffffff1673ffffffffffffffffffffffffffffffffffffffff16636352211e836040518263ffffffff1660e01b8152600401610c749190613ffb565b60206040518083038186803b158015610c8c57600080fd5b505afa158015610ca0573d6000803e3d6000fd5b505050506040513d601f19601f82011682018060405250810190610cc49190613837565b73ffffffffffffffffffffffffffffffffffffffff1614610d1a576040517f08c379a0000000000000000000000000000000000000000000000000000000008152600401610d1190613e3b565b60405180910390fd5b610d226118b1565b15610d62576040517f08c379a0000000000000000000000000000000000000000000000000000000008152600401610d5990613f3b565b60405180910390fd5b610da68260ff1660016040518060400160405280600a81526020017f4d617468206572726f7200000000000000000000000000000000000000000000815250613160565b60d0600085815260200190815260200160002060010160099054906101000a900460ff1660ff1614610e0d576040517f08c379a0000000000000000000000000000000000000000000000000000000008152600401610e0490613f7b565b60405180910390fd5b610e16826131b5565b610e1f83613321565b8160d0600085815260200190815260200160002060010160096101000a81548160ff021916908360ff1602179055503373ffffffffffffffffffffffffffffffffffffffff167fbce74c3d6a81a6ea4b55a703751c4fbad439c2ce8997bc12bb2463cb3f6d987b8484604051610e9692919061403f565b60405180910390a2505050565b609760009054906101000a900473ffffffffffffffffffffffffffffffffffffffff1673ffffffffffffffffffffffffffffffffffffffff163373ffffffffffffffffffffffffffffffffffffffff1614610f33576040517f08c379a0000000000000000000000000000000000000000000000000000000008152600401610f2a90613edb565b60405180910390fd5b80609960006101000a81548173ffffffffffffffffffffffffffffffffffffffff021916908373ffffffffffffffffffffffffffffffffffffffff16021790555050565b609760009054906101000a900473ffffffffffffffffffffffffffffffffffffffff1673ffffffffffffffffffffffffffffffffffffffff163373ffffffffffffffffffffffffffffffffffffffff1614611007576040517f08c379a0000000000000000000000000000000000000000000000000000000008152600401610ffe90613edb565b60405180910390fd5b600047141561104b576040517f08c379a000000000000000000000000000000000000000000000000000000000815260040161104290613e5b565b60405180910390fd5b6000609760009054906101000a900473ffffffffffffffffffffffffffffffffffffffff1673ffffffffffffffffffffffffffffffffffffffff164760405161109390613d1c565b60006040518083038185875af1925050503d80600081146110d0576040519150601f19603f3d011682016040523d82523d6000602084013e6110d5565b606091505b5050905080611119576040517f08c379a000000000000000000000000000000000000000000000000000000000815260040161111090613e7b565b60405180910390fd5b50565b609760009054906101000a900473ffffffffffffffffffffffffffffffffffffffff1673ffffffffffffffffffffffffffffffffffffffff163373ffffffffffffffffffffffffffffffffffffffff16146111ac576040517f08c379a00000000000000000000000000000000000000000000000000000000081526004016111a390613edb565b60405180910390fd5b6111b4613384565b609b60009054906101000a900473ffffffffffffffffffffffffffffffffffffffff1673ffffffffffffffffffffffffffffffffffffffff16633f4ba83a6040518163ffffffff1660e01b8152600401600060405180830381600087803b15801561121e57600080fd5b505af1158015611232573d6000803e3d6000fd5b50505050609d60009054906101000a900473ffffffffffffffffffffffffffffffffffffffff1673ffffffffffffffffffffffffffffffffffffffff16633f4ba83a6040518163ffffffff1660e01b8152600401600060405180830381600087803b1580156112a057600080fd5b505af11580156112b4573d6000803e3d6000fd5b50505050565b6112c26118b1565b15611302576040517f08c379a00000000000000000000000000000000000000000000000000000000081526004016112f990613f3b565b60405180910390fd5b6000828290501415611349576040517f08c379a000000000000000000000000000000000000000000000000000000000815260040161134090613fbb565b60405180910390fd5b60005b828290508160ff16101561174757609d60009054906101000a900473ffffffffffffffffffffffffffffffffffffffff1673ffffffffffffffffffffffffffffffffffffffff16636352211e84848460ff168181106113ae576113ad614403565b5b905060200201356040518263ffffffff1660e01b81526004016113d19190613ffb565b60206040518083038186803b1580156113e957600080fd5b505afa1580156113fd573d6000803e3d6000fd5b505050506040513d601f19601f820116820180604052508101906114219190613837565b73ffffffffffffffffffffffffffffffffffffffff163373ffffffffffffffffffffffffffffffffffffffff161461145857600080fd5b600061147f84848460ff1681811061147357611472614403565b5b90506020020135612c41565b9050609b60009054906101000a900473ffffffffffffffffffffffffffffffffffffffff1673ffffffffffffffffffffffffffffffffffffffff166340c10f1933836040518363ffffffff1660e01b81526004016114de929190613d75565b600060405180830381600087803b1580156114f857600080fd5b505af115801561150c573d6000803e3d6000fd5b50505050609b60009054906101000a900473ffffffffffffffffffffffffffffffffffffffff1673ffffffffffffffffffffffffffffffffffffffff166340c10f19609860009054906101000a900473ffffffffffffffffffffffffffffffffffffffff166031601f85611580919061420d565b61158a91906141dc565b6040518363ffffffff1660e01b81526004016115a7929190613d75565b600060405180830381600087803b1580156115c157600080fd5b505af11580156115d5573d6000803e3d6000fd5b50505050609b60009054906101000a900473ffffffffffffffffffffffffffffffffffffffff1673ffffffffffffffffffffffffffffffffffffffff166340c10f19609960009054906101000a900473ffffffffffffffffffffffffffffffffffffffff166031601485611649919061420d565b61165391906141dc565b6040518363ffffffff1660e01b8152600401611670929190613d75565b600060405180830381600087803b15801561168a57600080fd5b505af115801561169e573d6000803e3d6000fd5b50505050600060d0600086868660ff168181106116be576116bd614403565b5b905060200201358152602001908152602001600020600001819055504260d0600086868660ff168181106116f5576116f4614403565b5b90506020020135815260200190815260200160002060010160006101000a81548167ffffffffffffffff021916908367ffffffffffffffff16021790555050808061173f9061437b565b91505061134c565b505050565b60008060008060008060d0600088815260200190815260200160002060010160089054906101000a900460ff1660d0600089815260200190815260200160002060010160099054906101000a900460ff1660d060008a8152602001908152602001600020600101600a9054906101000a900460ff1660d060008b8152602001908152602001600020600101600b9054906101000a900460ff166117ee8b612c41565b6117f78c612dd2565b95509550955095509550955091939550919395565b60008060008060d0600086815260200190815260200160002060010160089054906101000a900460ff1660d0600087815260200190815260200160002060010160099054906101000a900460ff1660d06000888152602001908152602001600020600101600a9054906101000a900460ff1660d06000898152602001908152602001600020600101600b9054906101000a900460ff1693509350935093509193509193565b6000603360009054906101000a900460ff16905090565b609860009054906101000a900473ffffffffffffffffffffffffffffffffffffffff1681565b6118f66118b1565b15611936576040517f08c379a000000000000000000000000000000000000000000000000000000000815260040161192d90613f3b565b60405180910390fd5b609a54341461197a576040517f08c379a000000000000000000000000000000000000000000000000000000000815260040161197190613f1b565b60405180910390fd5b6119843382613426565b50565b61198f6118b1565b156119cf576040517f08c379a00000000000000000000000000000000000000000000000000000000081526004016119c690613f3b565b60405180910390fd5b6000828290501415611a16576040517f08c379a0000000000000000000000000000000000000000000000000000000008152600401611a0d90613f9b565b60405180910390fd5b611a2282829050612dbb565b3414611a63576040517f08c379a0000000000000000000000000000000000000000000000000000000008152600401611a5a90613f1b565b60405180910390fd5b60005b828290508160ff161015611aad57611a9a3384848460ff16818110611a8e57611a8d614403565b5b90506020020135613426565b8080611aa59061437b565b915050611a66565b505050565b609d60009054906101000a900473ffffffffffffffffffffffffffffffffffffffff1681565b609760009054906101000a900473ffffffffffffffffffffffffffffffffffffffff1673ffffffffffffffffffffffffffffffffffffffff163373ffffffffffffffffffffffffffffffffffffffff1614611b68576040517f08c379a0000000000000000000000000000000000000000000000000000000008152600401611b5f90613edb565b60405180910390fd5b80609b60006101000a81548173ffffffffffffffffffffffffffffffffffffffff021916908373ffffffffffffffffffffffffffffffffffffffff16021790555050565b609760009054906101000a900473ffffffffffffffffffffffffffffffffffffffff1673ffffffffffffffffffffffffffffffffffffffff163373ffffffffffffffffffffffffffffffffffffffff1614611c3c576040517f08c379a0000000000000000000000000000000000000000000000000000000008152600401611c3390613edb565b60405180910390fd5b80609760006101000a81548173ffffffffffffffffffffffffffffffffffffffff021916908373ffffffffffffffffffffffffffffffffffffffff16021790555050565b609760009054906101000a900473ffffffffffffffffffffffffffffffffffffffff1673ffffffffffffffffffffffffffffffffffffffff163373ffffffffffffffffffffffffffffffffffffffff1614611d10576040517f08c379a0000000000000000000000000000000000000000000000000000000008152600401611d0790613edb565b60405180910390fd5b80609d60006101000a81548173ffffffffffffffffffffffffffffffffffffffff021916908373ffffffffffffffffffffffffffffffffffffffff16021790555050565b609b60009054906101000a900473ffffffffffffffffffffffffffffffffffffffff1681565b609760009054906101000a900473ffffffffffffffffffffffffffffffffffffffff1673ffffffffffffffffffffffffffffffffffffffff163373ffffffffffffffffffffffffffffffffffffffff1614611e0a576040517f08c379a0000000000000000000000000000000000000000000000000000000008152600401611e0190613edb565b60405180910390fd5b611e12613547565b609b60009054906101000a900473ffffffffffffffffffffffffffffffffffffffff1673ffffffffffffffffffffffffffffffffffffffff16638456cb596040518163ffffffff1660e01b8152600401600060405180830381600087803b158015611e7c57600080fd5b505af1158015611e90573d6000803e3d6000fd5b50505050609d60009054906101000a900473ffffffffffffffffffffffffffffffffffffffff1673ffffffffffffffffffffffffffffffffffffffff16638456cb596040518163ffffffff1660e01b8152600401600060405180830381600087803b158015611efe57600080fd5b505af1158015611f12573d6000803e3d6000fd5b50505050565b611f206118b1565b15611f60576040517f08c379a0000000000000000000000000000000000000000000000000000000008152600401611f5790613f3b565b60405180910390fd5b609760009054906101000a900473ffffffffffffffffffffffffffffffffffffffff1673ffffffffffffffffffffffffffffffffffffffff163373ffffffffffffffffffffffffffffffffffffffff1614611ff0576040517f08c379a0000000000000000000000000000000000000000000000000000000008152600401611fe790613edb565b60405180910390fd5b611ffa8282613426565b808273ffffffffffffffffffffffffffffffffffffffff167f8c32c568416fcf97be35ce5b27844cfddcd63a67a1a602c3595ba5dac38f303a60405160405180910390a35050565b609760009054906101000a900473ffffffffffffffffffffffffffffffffffffffff1673ffffffffffffffffffffffffffffffffffffffff163373ffffffffffffffffffffffffffffffffffffffff16146120d2576040517f08c379a00000000000000000000000000000000000000000000000000000000081526004016120c990613edb565b60405180910390fd5b67016345785d8a000081101580156120f4575069021e19e0c9bab24000008111155b612133576040517f08c379a000000000000000000000000000000000000000000000000000000000815260040161212a90613ebb565b60405180910390fd5b80609a8190555050565b609c5481565b609760009054906101000a900473ffffffffffffffffffffffffffffffffffffffff1673ffffffffffffffffffffffffffffffffffffffff163373ffffffffffffffffffffffffffffffffffffffff16146121d3576040517f08c379a00000000000000000000000000000000000000000000000000000000081526004016121ca90613edb565b60405180910390fd5b6000471415612217576040517f08c379a000000000000000000000000000000000000000000000000000000000815260040161220e90613e5b565b60405180910390fd5b6000609760009054906101000a900473ffffffffffffffffffffffffffffffffffffffff1673ffffffffffffffffffffffffffffffffffffffff168260405161225f90613d1c565b60006040518083038185875af1925050503d806000811461229c576040519150601f19603f3d011682016040523d82523d6000602084013e6122a1565b606091505b50509050806122e5576040517f08c379a00000000000000000000000000000000000000000000000000000000081526004016122dc90613e7b565b60405180910390fd5b5050565b600060d0600083815260200190815260200160002060010160009054906101000a900467ffffffffffffffff1667ffffffffffffffff169050919050565b609760009054906101000a900473ffffffffffffffffffffffffffffffffffffffff1681565b813373ffffffffffffffffffffffffffffffffffffffff16609d60009054906101000a900473ffffffffffffffffffffffffffffffffffffffff1673ffffffffffffffffffffffffffffffffffffffff16636352211e836040518263ffffffff1660e01b81526004016123c09190613ffb565b60206040518083038186803b1580156123d857600080fd5b505afa1580156123ec573d6000803e3d6000fd5b505050506040513d601f19601f820116820180604052508101906124109190613837565b73ffffffffffffffffffffffffffffffffffffffff1614612466576040517f08c379a000000000000000000000000000000000000000000000000000000000815260040161245d90613e3b565b60405180910390fd5b61246e6118b1565b156124ae576040517f08c379a00000000000000000000000000000000000000000000000000000000081526004016124a590613f3b565b60405180910390fd5b6124f28260ff1660016040518060400160405280600a81526020017f4d617468206572726f7200000000000000000000000000000000000000000000815250613160565b60d06000858152602001908152602001600020600101600a9054906101000a900460ff1660ff1614612559576040517f08c379a000000000000000000000000000000000000000000000000000000000815260040161255090613f7b565b60405180910390fd5b612562826131b5565b61256b83613321565b8160d06000858152602001908152602001600020600101600a6101000a81548160ff021916908360ff1602179055503373ffffffffffffffffffffffffffffffffffffffff167f6f4c6fa65abfbdb878065cf56239c87467b1308866c1f27dad012e666a589b6884846040516125e292919061403f565b60405180910390a2505050565b609a5481565b813373ffffffffffffffffffffffffffffffffffffffff16609d60009054906101000a900473ffffffffffffffffffffffffffffffffffffffff1673ffffffffffffffffffffffffffffffffffffffff16636352211e836040518263ffffffff1660e01b81526004016126689190613ffb565b60206040518083038186803b15801561268057600080fd5b505afa158015612694573d6000803e3d6000fd5b505050506040513d601f19601f820116820180604052508101906126b89190613837565b73ffffffffffffffffffffffffffffffffffffffff161461270e576040517f08c379a000000000000000000000000000000000000000000000000000000000815260040161270590613e3b565b60405180910390fd5b6127166118b1565b15612756576040517f08c379a000000000000000000000000000000000000000000000000000000000815260040161274d90613f3b565b60405180910390fd5b61279a8260ff1660016040518060400160405280600a81526020017f4d617468206572726f7200000000000000000000000000000000000000000000815250613160565b60d06000858152602001908152602001600020600101600b9054906101000a900460ff1660ff1614612801576040517f08c379a00000000000000000000000000000000000000000000000000000000081526004016127f890613f7b565b60405180910390fd5b61280a826131b5565b61281383613321565b8160d06000858152602001908152602001600020600101600b6101000a81548160ff021916908360ff1602179055503373ffffffffffffffffffffffffffffffffffffffff167f9914b04dac571a45d7a7b33184088cbd4d62a2ed88e64602a6b8a6a93b3fb0a6848460405161288a92919061403f565b60405180910390a2505050565b803373ffffffffffffffffffffffffffffffffffffffff16609d60009054906101000a900473ffffffffffffffffffffffffffffffffffffffff1673ffffffffffffffffffffffffffffffffffffffff16636352211e836040518263ffffffff1660e01b815260040161290a9190613ffb565b60206040518083038186803b15801561292257600080fd5b505afa158015612936573d6000803e3d6000fd5b505050506040513d601f19601f8201168201806040525081019061295a9190613837565b73ffffffffffffffffffffffffffffffffffffffff16146129b0576040517f08c379a00000000000000000000000000000000000000000000000000000000081526004016129a790613e3b565b60405180910390fd5b6129b86118b1565b156129f8576040517f08c379a00000000000000000000000000000000000000000000000000000000081526004016129ef90613f3b565b60405180910390fd5b600060d0600084815260200190815260200160002060010160089054906101000a900460ff1660ff1614612a61576040517f08c379a0000000000000000000000000000000000000000000000000000000008152600401612a5890613efb565b60405180910390fd5b612a6b60006131b5565b612a7482613321565b600160d0600084815260200190815260200160002060010160086101000a81548160ff021916908360ff1602179055503373ffffffffffffffffffffffffffffffffffffffff167ff9917faa5009c58ed8bd6a1c70b79e1fbefc8afe3e7142ba8b854ccb887fb26283604051612aea9190613ffb565b60405180910390a25050565b609760009054906101000a900473ffffffffffffffffffffffffffffffffffffffff1673ffffffffffffffffffffffffffffffffffffffff163373ffffffffffffffffffffffffffffffffffffffff1614612b86576040517f08c379a0000000000000000000000000000000000000000000000000000000008152600401612b7d90613edb565b60405180910390fd5b609b60009054906101000a900473ffffffffffffffffffffffffffffffffffffffff1673ffffffffffffffffffffffffffffffffffffffff16639dc29fac609960009054906101000a900473ffffffffffffffffffffffffffffffffffffffff16678ac7230489e800006040518363ffffffff1660e01b8152600401612c0d929190613d4c565b600060405180830381600087803b158015612c2757600080fd5b505af1158015612c3b573d6000803e3d6000fd5b50505050565b600060d060008381526020019081526020016000206000015462015180670de0b6b3a7640000612caf42612c74876122e9565b6040518060400160405280600a81526020017f4d617468206572726f7200000000000000000000000000000000000000000000815250613160565b612cb886612dd2565b612cc2919061420d565b612ccc919061420d565b612cd691906141dc565b612ce09190614186565b9050919050565b609760009054906101000a900473ffffffffffffffffffffffffffffffffffffffff1673ffffffffffffffffffffffffffffffffffffffff163373ffffffffffffffffffffffffffffffffffffffff1614612d77576040517f08c379a0000000000000000000000000000000000000000000000000000000008152600401612d6e90613edb565b60405180910390fd5b80609860006101000a81548173ffffffffffffffffffffffffffffffffffffffff021916908373ffffffffffffffffffffffffffffffffffffffff16021790555050565b600081609a54612dcb919061420d565b9050919050565b60008073ffffffffffffffffffffffffffffffffffffffff16609d60009054906101000a900473ffffffffffffffffffffffffffffffffffffffff1673ffffffffffffffffffffffffffffffffffffffff16636352211e846040518263ffffffff1660e01b8152600401612e469190613ffb565b60206040518083038186803b158015612e5e57600080fd5b505afa158015612e72573d6000803e3d6000fd5b505050506040513d601f19601f82011682018060405250810190612e969190613837565b73ffffffffffffffffffffffffffffffffffffffff161415612eb757600080fd5b600060019050600060d0600085815260200190815260200160002060010160089054906101000a900460ff1660ff161115612efc57600181612ef99190614186565b90505b600060d0600085815260200190815260200160002060010160099054906101000a900460ff1660ff16118015612f595750600360d0600085815260200190815260200160002060010160099054906101000a900460ff1660ff1611155b15612f9f57600160d0600085815260200190815260200160002060010160099054906101000a900460ff1660ff1682612f929190614186565b612f9c9190614186565b90505b600060d06000858152602001908152602001600020600101600a9054906101000a900460ff1660ff16118015612ffc5750600360d06000858152602001908152602001600020600101600a9054906101000a900460ff1660ff1611155b1561304257600160d06000858152602001908152602001600020600101600a9054906101000a900460ff1660ff16826130359190614186565b61303f9190614186565b90505b600060d06000858152602001908152602001600020600101600b9054906101000a900460ff1660ff1611801561309f5750600360d06000858152602001908152602001600020600101600b9054906101000a900460ff1660ff1611155b156130e557600160d06000858152602001908152602001600020600101600b9054906101000a900460ff1660ff16826130d89190614186565b6130e29190614186565b90505b80915050919050565b60006130f9306135ea565b15905090565b600060019054906101000a900460ff1661314e576040517f08c379a000000000000000000000000000000000000000000000000000000000815260040161314590613fdb565b60405180910390fd5b6131566135fd565b61315e61364e565b565b60008383111582906131a8576040517f08c379a000000000000000000000000000000000000000000000000000000000815260040161319f9190613db9565b60405180910390fd5b5082840390509392505050565b60008060ff168260ff1614156131dd57670de0b6b3a7640000601e6131da919061420d565b90505b60018260ff16141561320157670de0b6b3a764000060786131fe919061420d565b90505b60028260ff16141561322657670de0b6b3a764000061010e613223919061420d565b90505b60038260ff16141561324b57670de0b6b3a76400006101e0613248919061420d565b90505b6000811161328e576040517f08c379a000000000000000000000000000000000000000000000000000000000815260040161328590613e1b565b60405180910390fd5b609b60009054906101000a900473ffffffffffffffffffffffffffffffffffffffff1673ffffffffffffffffffffffffffffffffffffffff16639dc29fac33836040518363ffffffff1660e01b81526004016132eb929190613d75565b600060405180830381600087803b15801561330557600080fd5b505af1158015613319573d6000803e3d6000fd5b505050505050565b61332a81612c41565b60d06000838152602001908152602001600020600001819055504260d0600083815260200190815260200160002060010160006101000a81548167ffffffffffffffff021916908367ffffffffffffffff16021790555050565b61338c6118b1565b6133cb576040517f08c379a00000000000000000000000000000000000000000000000000000000081526004016133c290613dfb565b60405180910390fd5b6000603360006101000a81548160ff0219169083151502179055507f5db9ee0a495bf2e6ff9c91a7834c1ba4fdd244a5e8aa4e537bd38aeae4b073aa61340f6136ba565b60405161341c9190613d31565b60405180910390a1565b6000811180156134385750609c548111155b613477576040517f08c379a000000000000000000000000000000000000000000000000000000000815260040161346e90613ddb565b60405180910390fd5b609d60009054906101000a900473ffffffffffffffffffffffffffffffffffffffff1673ffffffffffffffffffffffffffffffffffffffff166340c10f1983836040518363ffffffff1660e01b81526004016134d4929190613d75565b600060405180830381600087803b1580156134ee57600080fd5b505af1158015613502573d6000803e3d6000fd5b505050504260d0600083815260200190815260200160002060010160006101000a81548167ffffffffffffffff021916908367ffffffffffffffff1602179055505050565b61354f6118b1565b1561358f576040517f08c379a000000000000000000000000000000000000000000000000000000000815260040161358690613f3b565b60405180910390fd5b6001603360006101000a81548160ff0219169083151502179055507f62e78cea01bee320cd4e420270b5ea74000d11b0c9f74754ebdbfc544b05a2586135d36136ba565b6040516135e09190613d31565b60405180910390a1565b600080823b905060008111915050919050565b600060019054906101000a900460ff1661364c576040517f08c379a000000000000000000000000000000000000000000000000000000000815260040161364390613fdb565b60405180910390fd5b565b600060019054906101000a900460ff1661369d576040517f08c379a000000000000000000000000000000000000000000000000000000000815260040161369490613fdb565b60405180910390fd5b6000603360006101000a81548160ff021916908315150217905550565b600033905090565b60006136d56136d084614133565b61410e565b905080838252602082019050828560208602820111156136f8576136f761446b565b5b60005b85811015613728578161370e88826137e0565b8452602084019350602083019250506001810190506136fb565b5050509392505050565b60008135905061374181614793565b92915050565b60008151905061375681614793565b92915050565b60008083601f84011261377257613771614466565b5b8235905067ffffffffffffffff81111561378f5761378e614461565b5b6020830191508360208202830111156137ab576137aa61446b565b5b9250929050565b600082601f8301126137c7576137c6614466565b5b81356137d78482602086016136c2565b91505092915050565b6000813590506137ef816147aa565b92915050565b600081359050613804816147c1565b92915050565b6000602082840312156138205761381f614475565b5b600061382e84828501613732565b91505092915050565b60006020828403121561384d5761384c614475565b5b600061385b84828501613747565b91505092915050565b600080600080600060a086880312156138805761387f614475565b5b600061388e88828901613732565b955050602061389f88828901613732565b94505060406138b088828901613732565b93505060606138c188828901613732565b92505060806138d288828901613732565b9150509295509295909350565b600080604083850312156138f6576138f5614475565b5b600061390485828601613732565b9250506020613915858286016137e0565b9150509250929050565b6000806020838503121561393657613935614475565b5b600083013567ffffffffffffffff81111561395457613953614470565b5b6139608582860161375c565b92509250509250929050565b60006020828403121561398257613981614475565b5b600082013567ffffffffffffffff8111156139a05761399f614470565b5b6139ac848285016137b2565b91505092915050565b6000602082840312156139cb576139ca614475565b5b60006139d9848285016137e0565b91505092915050565b600080604083850312156139f9576139f8614475565b5b6000613a07858286016137e0565b9250506020613a18858286016137f5565b9150509250929050565b613a2b81614267565b82525050565b613a3a81614279565b82525050565b613a49816142bc565b82525050565b6000613a5a8261415f565b613a648185614175565b9350613a748185602086016142ce565b613a7d8161447a565b840191505092915050565b6000613a95601683614175565b9150613aa08261448b565b602082019050919050565b6000613ab8601483614175565b9150613ac3826144b4565b602082019050919050565b6000613adb600b83614175565b9150613ae6826144dd565b602082019050919050565b6000613afe601a83614175565b9150613b0982614506565b602082019050919050565b6000613b21601383614175565b9150613b2c8261452f565b602082019050919050565b6000613b44600f83614175565b9150613b4f82614558565b602082019050919050565b6000613b67601e83614175565b9150613b7282614581565b602082019050919050565b6000613b8a601a83614175565b9150613b95826145aa565b602082019050919050565b6000613bad600883614175565b9150613bb8826145d3565b602082019050919050565b6000613bd0601f83614175565b9150613bdb826145fc565b602082019050919050565b6000613bf3601283614175565b9150613bfe82614625565b602082019050919050565b6000613c16601083614175565b9150613c218261464e565b602082019050919050565b6000613c39602e83614175565b9150613c4482614677565b604082019050919050565b6000613c5c601783614175565b9150613c67826146c6565b602082019050919050565b6000613c7f601883614175565b9150613c8a826146ef565b602082019050919050565b6000613ca2600b83614175565b9150613cad82614718565b602082019050919050565b6000613cc560008361416a565b9150613cd082614741565b600082019050919050565b6000613ce8602b83614175565b9150613cf382614744565b604082019050919050565b613d07816142a5565b82525050565b613d16816142af565b82525050565b6000613d2782613cb8565b9150819050919050565b6000602082019050613d466000830184613a22565b92915050565b6000604082019050613d616000830185613a22565b613d6e6020830184613a40565b9392505050565b6000604082019050613d8a6000830185613a22565b613d976020830184613cfe565b9392505050565b6000602082019050613db36000830184613a31565b92915050565b60006020820190508181036000830152613dd38184613a4f565b905092915050565b60006020820190508181036000830152613df481613a88565b9050919050565b60006020820190508181036000830152613e1481613aab565b9050919050565b60006020820190508181036000830152613e3481613ace565b9050919050565b60006020820190508181036000830152613e5481613af1565b9050919050565b60006020820190508181036000830152613e7481613b14565b9050919050565b60006020820190508181036000830152613e9481613b37565b9050919050565b60006020820190508181036000830152613eb481613b5a565b9050919050565b60006020820190508181036000830152613ed481613b7d565b9050919050565b60006020820190508181036000830152613ef481613ba0565b9050919050565b60006020820190508181036000830152613f1481613bc3565b9050919050565b60006020820190508181036000830152613f3481613be6565b9050919050565b60006020820190508181036000830152613f5481613c09565b9050919050565b60006020820190508181036000830152613f7481613c2c565b9050919050565b60006020820190508181036000830152613f9481613c4f565b9050919050565b60006020820190508181036000830152613fb481613c72565b9050919050565b60006020820190508181036000830152613fd481613c95565b9050919050565b60006020820190508181036000830152613ff481613cdb565b9050919050565b60006020820190506140106000830184613cfe565b92915050565b600060408201905061402b6000830185613cfe565b6140386020830184613cfe565b9392505050565b60006040820190506140546000830185613cfe565b6140616020830184613d0d565b9392505050565b600060808201905061407d6000830187613d0d565b61408a6020830186613d0d565b6140976040830185613d0d565b6140a46060830184613d0d565b95945050505050565b600060c0820190506140c26000830189613d0d565b6140cf6020830188613d0d565b6140dc6040830187613d0d565b6140e96060830186613d0d565b6140f66080830185613cfe565b61410360a0830184613cfe565b979650505050505050565b6000614118614129565b90506141248282614301565b919050565b6000604051905090565b600067ffffffffffffffff82111561414e5761414d614432565b5b602082029050602081019050919050565b600081519050919050565b600081905092915050565b600082825260208201905092915050565b6000614191826142a5565b915061419c836142a5565b9250827fffffffffffffffffffffffffffffffffffffffffffffffffffffffffffffffff038211156141d1576141d06143a5565b5b828201905092915050565b60006141e7826142a5565b91506141f2836142a5565b925082614202576142016143d4565b5b828204905092915050565b6000614218826142a5565b9150614223836142a5565b9250817fffffffffffffffffffffffffffffffffffffffffffffffffffffffffffffffff048311821515161561425c5761425b6143a5565b5b828202905092915050565b600061427282614285565b9050919050565b60008115159050919050565b600073ffffffffffffffffffffffffffffffffffffffff82169050919050565b6000819050919050565b600060ff82169050919050565b60006142c7826142a5565b9050919050565b60005b838110156142ec5780820151818401526020810190506142d1565b838111156142fb576000848401525b50505050565b61430a8261447a565b810181811067ffffffffffffffff8211171561432957614328614432565b5b80604052505050565b600061433d826142a5565b91507fffffffffffffffffffffffffffffffffffffffffffffffffffffffffffffffff8214156143705761436f6143a5565b5b600182019050919050565b6000614386826142af565b915060ff82141561439a576143996143a5565b5b600182019050919050565b7f4e487b7100000000000000000000000000000000000000000000000000000000600052601160045260246000fd5b7f4e487b7100000000000000000000000000000000000000000000000000000000600052601260045260246000fd5b7f4e487b7100000000000000000000000000000000000000000000000000000000600052603260045260246000fd5b7f4e487b7100000000000000000000000000000000000000000000000000000000600052604160045260246000fd5b600080fd5b600080fd5b600080fd5b600080fd5b600080fd5b6000601f19601f8301169050919050565b7f546f6b656e206964206f7574206f6620626f756e647300000000000000000000600082015250565b7f5061757361626c653a206e6f7420706175736564000000000000000000000000600082015250565b7f57726f6e67206c6576656c000000000000000000000000000000000000000000600082015250565b7f596f75206172656e27742074686520746f6b656e206f776e6572000000000000600082015250565b7f4e6f7468696e6720746f20776974686472617700000000000000000000000000600082015250565b7f5769746864726177206661696c65640000000000000000000000000000000000600082015250565b7f4e6577206d6178206964206973206e6f74206f7665722063757272656e740000600082015250565b7f4e6577207072696365206973206f7574206f6620626f756e6473000000000000600082015250565b7f4f6e6c792044414f000000000000000000000000000000000000000000000000600082015250565b7f546865726520697320616c7265616479206120626173652073746174696f6e00600082015250565b7f57726f6e6720636c61696d696e67206665650000000000000000000000000000600082015250565b7f5061757361626c653a2070617573656400000000000000000000000000000000600082015250565b7f496e697469616c697a61626c653a20636f6e747261637420697320616c72656160008201527f647920696e697469616c697a6564000000000000000000000000000000000000602082015250565b7f43616e20627579206f6e6c79206e657874206c6576656c000000000000000000600082015250565b7f596f752063616e277420636c61696d203020746f6b656e730000000000000000600082015250565b7f456d707479206172726179000000000000000000000000000000000000000000600082015250565b50565b7f496e697469616c697a61626c653a20636f6e7472616374206973206e6f74206960008201527f6e697469616c697a696e67000000000000000000000000000000000000000000602082015250565b61479c81614267565b81146147a757600080fd5b50565b6147b3816142a5565b81146147be57600080fd5b50565b6147ca816142af565b81146147d557600080fd5b5056fea2646970667358221220844b05321baf09e5a60476e8630ca2557e56590bbbf4fcaae678578745eb3e7c64736f6c63430008050033",
  "immutableReferences": {},
  "source": "// SPDX-License-Identifier: MIT\npragma solidity >=0.8.0 <0.9.0;\n\nimport '@openzeppelin/contracts-upgradeable/security/PausableUpgradeable.sol';\nimport './interfaces/NFTMintableInterface.sol';\nimport './interfaces/PauseInterface.sol';\nimport './interfaces/ERC20MintBurnInterface.sol';\n\n\n/**\n * Game logic; upgradable\n */\ncontract GameManager is PausableUpgradeable {\n  uint256[50] private ______gm_gap_0;\n\n  address public DAO; // owner\n\n  address public treasury;\n  \n  address public liquidity;\n\n  uint256 public price;\n\n  address public CLNYAddress;\n\n  uint256 public maxTokenId;\n\n  address public MCAddress;\n\n  uint256[50] private ______gm_gap_1;\n\n  struct LandData {\n    uint256 fixedEarnings; // already earned CLNY, but not withdrawn yet\n    uint64 lastCLNYCheckout; // (now - lastCLNYCheckout) * 'earning speed' + fixedEarnings = farmed so far\n    uint8 baseStation; // 0 or 1\n    uint8 transport; // 0 or 1, 2, 3 (levels)\n    uint8 robotAssembly; // 0 or 1, 2, 3 (levels)\n    uint8 powerProduction; // 0 or 1, 2, 3 (levels)\n  }\n\n  mapping (uint256 => LandData) private tokenData;\n\n  uint256[50] private ______gm_gap_2;\n\n  event Airdrop (address indexed receiver, uint256 indexed tokenId);\n  event BuildBaseStation (uint256 tokenId, address indexed owner);\n  event BuildTransport (uint256 tokenId, address indexed owner, uint8 level);\n  event BuildRobotAssembly (uint256 tokenId, address indexed owner, uint8 level);\n  event BuildPowerProduction (uint256 tokenId, address indexed owner, uint8 level);\n\n  modifier onlyDAO {\n    require(msg.sender == DAO, 'Only DAO');\n    _;\n  }\n\n  modifier onlyTokenOwner(uint256 tokenId) {\n    require(NFTMintableInterface(MCAddress).ownerOf(tokenId) == msg.sender, \"You aren't the token owner\");\n    _;\n  }\n\n  function initialize(\n    address _DAO,\n    address _CLNYAddress,\n    address _MCAddress,\n    address _treasury,\n    address _liquidity\n  ) public initializer {\n    __Pausable_init();\n    DAO = _DAO;\n    CLNYAddress = _CLNYAddress;\n    MCAddress = _MCAddress;\n    maxTokenId = 21000;\n    price = 250 ether;\n    treasury = _treasury;\n    liquidity = _liquidity;\n  }\n\n  /**\n   * From SafeMath\n   */\n  function sub(\n    uint256 a,\n    uint256 b,\n    string memory errorMessage\n  ) internal pure returns (uint256) {\n    unchecked {\n      require(b <= a, errorMessage);\n      return a - b;\n    }\n  }\n\n  /**\n   * Tranfers ownership\n   */\n  function transferDAO(address _DAO) external onlyDAO {\n    DAO = _DAO;\n  }\n\n  /**\n   * Sets treasury address\n   */\n  function setTreasury(address _treasury) external onlyDAO {\n    treasury = _treasury;\n  }\n\n  /**\n   * Sets liquidity address\n   */\n  function setLiquidity(address _liquidity) external onlyDAO {\n    liquidity = _liquidity;\n  }\n\n  /**\n   * Cost of minting for `tokenCount` tokens\n   */\n  function getFee(uint256 tokenCount) public view returns (uint256) {\n    return price * tokenCount;\n  }\n\n  /**\n   * Sets the cost of minting for 1 token\n   */\n  function setPrice(uint256 _price) external onlyDAO {\n    require(_price >= 0.1 ether && _price <= 10000 ether, 'New price is out of bounds');\n    price = _price;\n  }\n\n  /**\n   * `maxTokenId` increase may be needed if we decide to merge tokens or to sell poles (they are not tokenized yet)\n   */\n  function setMaxTokenId(uint256 _id) external onlyDAO {\n    require(_id > maxTokenId, 'New max id is not over current');\n    maxTokenId = _id;\n  }\n\n  /**\n   * Sets ERC20 token address\n   */\n  function setCLNYAddress(address _address) external onlyDAO {\n    CLNYAddress = _address;\n  }\n\n  /**\n   * Sets ERC721 token address\n   */\n  function setMCAddress(address _address) external onlyDAO {\n    MCAddress = _address;\n  }\n\n  function mintNFT(address _address, uint256 tokenId) private {\n    require (tokenId > 0 && tokenId <= maxTokenId, 'Token id out of bounds');\n    NFTMintableInterface(MCAddress).mint(_address, tokenId);\n    tokenData[tokenId].lastCLNYCheckout = uint64(block.timestamp);\n  }\n\n  /**\n   * Mints a token\n   */\n  function claimOne(uint256 tokenId) external payable whenNotPaused {\n    require (msg.value == price, 'Wrong claiming fee');\n    mintNFT(msg.sender, tokenId);\n  }\n\n  /**\n   * Mints several tokens\n   * Pls check gas limits to get max possible count\n   */\n  function claim(uint256[] calldata tokenIds) external payable whenNotPaused {\n    require (tokenIds.length != 0, \"You can't claim 0 tokens\");\n    require (msg.value == getFee(tokenIds.length), 'Wrong claiming fee');\n    for (uint8 i = 0; i < tokenIds.length; i++) {\n      mintNFT(msg.sender, tokenIds[i]);\n    }\n  }\n\n  function pause() external onlyDAO {\n    _pause();\n    PauseInterface(CLNYAddress).pause();\n    PauseInterface(MCAddress).pause();\n  }\n\n  function unpause() external onlyDAO {\n    _unpause();\n    PauseInterface(CLNYAddress).unpause();\n    PauseInterface(MCAddress).unpause();\n  }\n\n  function airdrop(address receiver, uint256 tokenId) external whenNotPaused onlyDAO {\n    mintNFT(receiver, tokenId);\n    emit Airdrop(receiver, tokenId);\n  }\n\n  uint8 constant BASE_STATION = 0;\n  /** these constants (for sure just `_deduct` function) can be changed while upgrading */\n  uint256 constant BASE_STATION_COST = 30;\n  uint256 constant LEVEL_1_COST = 120;\n  uint256 constant LEVEL_2_COST = 270;\n  uint256 constant LEVEL_3_COST = 480;\n\n  /**\n   * Burn CLNY token for building enhancements\n   * Assume decimals() is always 18\n   */\n  function _deduct(uint8 level) private {\n    uint256 amount = 0;\n    if (level == BASE_STATION) {\n      amount = BASE_STATION_COST * 10 ** 18;\n    }\n    if (level == 1) {\n      amount = LEVEL_1_COST * 10 ** 18;\n    }\n    if (level == 2) {\n      amount = LEVEL_2_COST * 10 ** 18;\n    }\n    if (level == 3) {\n      amount = LEVEL_3_COST * 10 ** 18;\n    }\n    require (amount > 0, 'Wrong level');\n    ERC20MintBurnInterface(CLNYAddress).burn(msg.sender, amount);\n  }\n\n  function getLastCheckout(uint256 tokenId) public view returns (uint256) {\n    return tokenData[tokenId].lastCLNYCheckout;\n  }\n\n  function getEarned(uint256 tokenId) public view returns (uint256) {\n    return getEarningSpeed(tokenId)\n      * sub(block.timestamp, getLastCheckout(tokenId), 'Math error') * 10 ** 18 / (24 * 60 * 60)\n      + tokenData[tokenId].fixedEarnings;\n  }\n\n  function getEarningData(uint256[] memory tokenIds) public view returns (uint256, uint256) {\n    uint256 result = 0;\n    uint256 speed = 0;\n    for (uint256 i = 0; i < tokenIds.length; i++) {\n      result = result + getEarned(tokenIds[i]);\n      speed = speed + getEarningSpeed(tokenIds[i]);\n    }\n    return (result, speed);\n  }\n\n  function getEarningSpeed(uint256 tokenId) public view returns (uint256) {\n    require (NFTMintableInterface(MCAddress).ownerOf(tokenId) != address(0)); // reverts itself\n    uint256 speed = 1; // bare land\n    if (tokenData[tokenId].baseStation > 0) {\n      speed = speed + 1; // base station gives +1\n    }\n    if (tokenData[tokenId].transport > 0 && tokenData[tokenId].transport <= 3) {\n      speed = speed + tokenData[tokenId].transport + 1; // others give from +2 to +4\n    }\n    if (tokenData[tokenId].robotAssembly > 0 && tokenData[tokenId].robotAssembly <= 3) {\n      speed = speed + tokenData[tokenId].robotAssembly + 1;\n    }\n    if (tokenData[tokenId].powerProduction > 0 && tokenData[tokenId].powerProduction <= 3) {\n      speed = speed + tokenData[tokenId].powerProduction + 1;\n    }\n    return speed;\n  }\n\n  function fixEarnings(uint256 tokenId) private {\n    tokenData[tokenId].fixedEarnings = getEarned(tokenId);\n    tokenData[tokenId].lastCLNYCheckout = uint64(block.timestamp);\n  }\n\n  /**\n   * Builds base station\n   */\n  function buildBaseStation(uint256 tokenId) external onlyTokenOwner(tokenId) whenNotPaused {\n    require(tokenData[tokenId].baseStation == 0, 'There is already a base station');\n    _deduct(BASE_STATION);\n    fixEarnings(tokenId);\n    tokenData[tokenId].baseStation = 1;\n    emit BuildBaseStation(tokenId, msg.sender);\n  }\n\n  /**\n   * Builds transport\n   * `uint8 level` is very important - it prevents accidental spending ERC20 with double transactions\n   */\n  function buildTransport(uint256 tokenId, uint8 level) external onlyTokenOwner(tokenId) whenNotPaused {\n    require(tokenData[tokenId].transport == sub(level, 1, 'Math error'), 'Can buy only next level');\n    _deduct(level);\n    fixEarnings(tokenId);\n    tokenData[tokenId].transport = level;\n    emit BuildTransport(tokenId, msg.sender, level);\n  }\n\n  /**\n   * Builds robot assembly\n   * `uint8 level` is very important - it prevents accidental spending ERC20 with double transactions\n   */\n  function buildRobotAssembly(uint256 tokenId, uint8 level) external onlyTokenOwner(tokenId) whenNotPaused {\n    require(tokenData[tokenId].robotAssembly == sub(level, 1, 'Math error'), 'Can buy only next level');\n    _deduct(level);\n    fixEarnings(tokenId);\n    tokenData[tokenId].robotAssembly = level;\n    emit BuildRobotAssembly(tokenId, msg.sender, level);\n  }\n\n  /**\n   * Builds power production\n   * `uint8 level` is very important - it prevents accidental spending ERC20 with double transactions\n   */\n  function buildPowerProduction(uint256 tokenId, uint8 level) external onlyTokenOwner(tokenId) whenNotPaused {\n    require(tokenData[tokenId].powerProduction == sub(level, 1, 'Math error'), 'Can buy only next level');\n    _deduct(level);\n    fixEarnings(tokenId);\n    tokenData[tokenId].powerProduction = level;\n    emit BuildPowerProduction(tokenId, msg.sender, level);\n  }\n\n  /**\n   * Enhancements getter\n   */\n  function getEnhancements(uint256 tokenId) external view returns (uint8, uint8, uint8, uint8) {\n    return (\n      tokenData[tokenId].baseStation,\n      tokenData[tokenId].transport,\n      tokenData[tokenId].robotAssembly,\n      tokenData[tokenId].powerProduction\n    );\n  }\n\n  /**\n   * Enhancements getter\n   */\n  function getAttributes(uint256 tokenId) external view returns (uint8, uint8, uint8, uint8, uint256, uint256) {\n    return (\n      tokenData[tokenId].baseStation,\n      tokenData[tokenId].transport,\n      tokenData[tokenId].robotAssembly,\n      tokenData[tokenId].powerProduction,\n      getEarned(tokenId),\n      getEarningSpeed(tokenId)\n    );\n  }\n\n  /**\n   * Claims CLNY from several tokens\n   * Pls check gas limits to get max possible count (> 100 for Harmony chain)\n   */\n  function claimEarned(uint256[] calldata tokenIds) external whenNotPaused {\n    require (tokenIds.length != 0, 'Empty array');\n    for (uint8 i = 0; i < tokenIds.length; i++) {\n      require (msg.sender == NFTMintableInterface(MCAddress).ownerOf(tokenIds[i]));\n      uint256 earned = getEarned(tokenIds[i]);\n      ERC20MintBurnInterface(CLNYAddress).mint(msg.sender, earned);\n      ERC20MintBurnInterface(CLNYAddress).mint(treasury, earned * 31 / 49);\n      ERC20MintBurnInterface(CLNYAddress).mint(liquidity, earned * 20 / 49);\n      tokenData[tokenIds[i]].fixedEarnings = 0;\n      tokenData[tokenIds[i]].lastCLNYCheckout = uint64(block.timestamp);\n    }\n  }\n\n  function withdraw() external onlyDAO {\n    require (address(this).balance != 0, 'Nothing to withdraw');\n    (bool success, ) = payable(DAO).call{ value: address(this).balance }('');\n    require(success, 'Withdraw failed');\n  }\n\n  function withdrawValue(uint256 value) external onlyDAO {\n    require (address(this).balance != 0, 'Nothing to withdraw');\n    (bool success, ) = payable(DAO).call{ value: value }('');\n    require(success, 'Withdraw failed');\n  }\n\n  // TODO test before execute\n  function burn10kLiquidity() external onlyDAO {\n    ERC20MintBurnInterface(CLNYAddress).burn(liquidity, 10 * 10 ** 18);\n  }\n}\n",
  "sourcePath": "/Users/kek/contracts/contracts/GameManager.sol",
  "compiler": {
    "name": "solc",
    "version": "0.8.5+commit.a4f2e591.Emscripten.clang"
  },
  "schemaVersion": "3.4.3",
  "updatedAt": "2022-01-12T17:35:41.080Z",
  "networkType": "ethereum",
  "devdoc": {
    "kind": "dev",
    "methods": {
      "paused()": {
        "details": "Returns true if the contract is paused, and false otherwise."
      }
    },
    "version": 1
  },
  "userdoc": {
    "kind": "user",
    "methods": {
      "buildBaseStation(uint256)": {
        "notice": "Builds base station"
      },
      "buildPowerProduction(uint256,uint8)": {
        "notice": "Builds power production `uint8 level` is very important - it prevents accidental spending ERC20 with double transactions"
      },
      "buildRobotAssembly(uint256,uint8)": {
        "notice": "Builds robot assembly `uint8 level` is very important - it prevents accidental spending ERC20 with double transactions"
      },
      "buildTransport(uint256,uint8)": {
        "notice": "Builds transport `uint8 level` is very important - it prevents accidental spending ERC20 with double transactions"
      },
      "claim(uint256[])": {
        "notice": "Mints several tokens Pls check gas limits to get max possible count"
      },
      "claimEarned(uint256[])": {
        "notice": "Claims CLNY from several tokens Pls check gas limits to get max possible count (> 100 for Harmony chain)"
      },
      "claimOne(uint256)": {
        "notice": "Mints a token"
      },
      "getAttributes(uint256)": {
        "notice": "Enhancements getter"
      },
      "getEnhancements(uint256)": {
        "notice": "Enhancements getter"
      },
      "getFee(uint256)": {
        "notice": "Cost of minting for `tokenCount` tokens"
      },
      "setCLNYAddress(address)": {
        "notice": "Sets ERC20 token address"
      },
      "setLiquidity(address)": {
        "notice": "Sets liquidity address"
      },
      "setMCAddress(address)": {
        "notice": "Sets ERC721 token address"
      },
      "setMaxTokenId(uint256)": {
        "notice": "`maxTokenId` increase may be needed if we decide to merge tokens or to sell poles (they are not tokenized yet)"
      },
      "setPrice(uint256)": {
        "notice": "Sets the cost of minting for 1 token"
      },
      "setTreasury(address)": {
        "notice": "Sets treasury address"
      },
      "transferDAO(address)": {
        "notice": "Tranfers ownership"
      }
    },
    "notice": "Game logic; upgradable",
    "version": 1
  }
}