{
  "contractName": "LandStats",
  "abi": [
    {
      "inputs": [
        {
          "internalType": "contract IGameManager",
          "name": "_GameManager",
          "type": "address"
        }
      ],
      "stateMutability": "nonpayable",
      "type": "constructor"
    },
    {
      "inputs": [],
      "name": "GameManager",
      "outputs": [
        {
          "internalType": "contract IGameManager",
          "name": "",
          "type": "address"
        }
      ],
      "stateMutability": "view",
      "type": "function",
      "constant": true
    },
    {
      "inputs": [
        {
          "internalType": "uint256[]",
          "name": "tokenIds",
          "type": "uint256[]"
        }
      ],
      "name": "getLandData",
      "outputs": [
        {
          "components": [
            {
              "internalType": "bool",
              "name": "owned",
              "type": "bool"
            },
            {
              "internalType": "address",
              "name": "owner",
              "type": "address"
            },
            {
              "internalType": "uint256",
              "name": "earned",
              "type": "uint256"
            },
            {
              "internalType": "uint256",
              "name": "speed",
              "type": "uint256"
            },
            {
              "components": [
                {
                  "internalType": "uint8",
                  "name": "level",
                  "type": "uint8"
                },
                {
                  "internalType": "uint32",
                  "name": "x",
                  "type": "uint32"
                },
                {
                  "internalType": "uint32",
                  "name": "y",
                  "type": "uint32"
                }
              ],
              "internalType": "struct LandStats.PointAndLevel",
              "name": "baseStation",
              "type": "tuple"
            },
            {
              "components": [
                {
                  "internalType": "uint8",
                  "name": "level",
                  "type": "uint8"
                },
                {
                  "internalType": "uint32",
                  "name": "x",
                  "type": "uint32"
                },
                {
                  "internalType": "uint32",
                  "name": "y",
                  "type": "uint32"
                }
              ],
              "internalType": "struct LandStats.PointAndLevel",
              "name": "transport",
              "type": "tuple"
            },
            {
              "components": [
                {
                  "internalType": "uint8",
                  "name": "level",
                  "type": "uint8"
                },
                {
                  "internalType": "uint32",
                  "name": "x",
                  "type": "uint32"
                },
                {
                  "internalType": "uint32",
                  "name": "y",
                  "type": "uint32"
                }
              ],
              "internalType": "struct LandStats.PointAndLevel",
              "name": "robotAssembly",
              "type": "tuple"
            },
            {
              "components": [
                {
                  "internalType": "uint8",
                  "name": "level",
                  "type": "uint8"
                },
                {
                  "internalType": "uint32",
                  "name": "x",
                  "type": "uint32"
                },
                {
                  "internalType": "uint32",
                  "name": "y",
                  "type": "uint32"
                }
              ],
              "internalType": "struct LandStats.PointAndLevel",
              "name": "powerProduction",
              "type": "tuple"
            }
          ],
          "internalType": "struct LandStats.LandInfo[]",
          "name": "",
          "type": "tuple[]"
        }
      ],
      "stateMutability": "view",
      "type": "function",
      "constant": true
    },
    {
      "inputs": [],
      "name": "getClnyStat",
      "outputs": [
        {
          "components": [
            {
              "internalType": "uint256",
              "name": "burned",
              "type": "uint256"
            },
            {
              "internalType": "uint256",
              "name": "minted",
              "type": "uint256"
            },
            {
              "internalType": "uint256",
              "name": "avg",
              "type": "uint256"
            },
            {
              "internalType": "uint256",
              "name": "max",
              "type": "uint256"
            }
          ],
          "internalType": "struct LandStats.ClnyStat",
          "name": "result",
          "type": "tuple"
        }
      ],
      "stateMutability": "view",
      "type": "function",
      "constant": true
    }
  ],
  "bytecode": "0x608060405234801561001057600080fd5b5060405161146438038061146483398101604081905261002f91610054565b600080546001600160a01b0319166001600160a01b0392909216919091179055610084565b60006020828403121561006657600080fd5b81516001600160a01b038116811461007d57600080fd5b9392505050565b6113d1806100936000396000f3fe608060405234801561001057600080fd5b50600436106100415760003560e01c806389d651fb14610046578063bac658541461008a578063fe60b249146100b5575b600080fd5b61004e6100d5565b60405161008191908151815260208083015190820152604080830151908201526060918201519181019190915260800190565b60405180910390f35b60005461009d906001600160a01b031681565b6040516001600160a01b039091168152602001610081565b6100c86100c3366004610ebb565b61059f565b6040516100819190610f30565b6101006040518060800160405280600081526020016000815260200160008152602001600081525090565b60008060009054906101000a90046001600160a01b03166001600160a01b031663f327b6486040518163ffffffff1660e01b8152600401602060405180830381865afa158015610154573d6000803e3d6000fd5b505050506040513d601f19601f820116820180604052508101906101789190611064565b610183906018611093565b61018e90603c611093565b61019990603c611093565b905060008060009054906101000a90046001600160a01b03166001600160a01b0316636e13b00a6040518163ffffffff1660e01b8152600401602060405180830381865afa1580156101ef573d6000803e3d6000fd5b505050506040513d601f19601f8201168201806040525081019061021391906110b2565b6001600160a01b03166318160ddd6040518163ffffffff1660e01b8152600401602060405180830381865afa158015610250573d6000803e3d6000fd5b505050506040513d601f19601f820116820180604052508101906102749190611064565b905060008060009054906101000a90046001600160a01b03166001600160a01b031663026c42076040518163ffffffff1660e01b8152600401602060405180830381865afa1580156102ca573d6000803e3d6000fd5b505050506040513d601f19601f820116820180604052508101906102ee9190611064565b905060008060009054906101000a90046001600160a01b03166001600160a01b03166391f3a6f26040518163ffffffff1660e01b8152600401602060405180830381865afa158015610344573d6000803e3d6000fd5b505050506040513d601f19601f820116820180604052508101906103689190611064565b905060005b6063811161056c5760008054906101000a90046001600160a01b03166001600160a01b0316638451938c6040518163ffffffff1660e01b8152600401602060405180830381865afa1580156103c6573d6000803e3d6000fd5b505050506040513d601f19601f820116820180604052508101906103ea91906110b2565b6001600160a01b03166389a53b9e826040518263ffffffff1660e01b815260040161041791815260200190565b602060405180830381865afa158015610434573d6000803e3d6000fd5b505050506040513d601f19601f820116820180604052508101906104589190611064565b865187906104679083906110e2565b9052506000546040805163211464e360e21b815290516001600160a01b0390921691638451938c916004808201926020929091908290030181865afa1580156104b4573d6000803e3d6000fd5b505050506040513d601f19601f820116820180604052508101906104d891906110b2565b6001600160a01b031663cdae06c9826040518263ffffffff1660e01b815260040161050591815260200190565b602060405180830381865afa158015610522573d6000803e3d6000fd5b505050506040513d601f19601f820116820180604052508101906105469190611064565b8660200181815161055791906110e2565b90525080610564816110fa565b91505061036d565b506105778385611113565b6040860152806105878386611113565b6105919190611093565b606086015250929392505050565b606060008267ffffffffffffffff8111156105bc576105bc611135565b60405190808252806020026020018201604052801561061c57816020015b6040805160c08101825260008082526020808301829052928201819052606082018190526080820181905260a082015282526000199092019101816105da5790505b50600054604051633eb8711160e01b81529192506001600160a01b031690633eb8711190610650908790879060040161114b565b600060405180830381865afa15801561066d573d6000803e3d6000fd5b505050506040513d6000823e601f3d908101601f1916820160405261069591908101906111f7565b905060008367ffffffffffffffff8111156106b2576106b2611135565b60405190808252806020026020018201604052801561077657816020015b60408051610100810182526000808252602080830182905282840182905260608084018390528451808201865283815280830184905280860184905260808501528451808201865283815280830184905280860184905260a08501528451808201865283815280830184905280860184905260c0850152845190810185528281529081018290529283015260e08101919091528152602001906001900390816106d05790505b50905060005b84811015610eb25760008054906101000a90046001600160a01b03166001600160a01b0316636e13b00a6040518163ffffffff1660e01b8152600401602060405180830381865afa1580156107d5573d6000803e3d6000fd5b505050506040513d601f19601f820116820180604052508101906107f991906110b2565b6001600160a01b0316636352211e87878481811061081957610819611305565b905060200201356040518263ffffffff1660e01b815260040161083e91815260200190565b602060405180830381865afa15801561085b573d6000803e3d6000fd5b505050506040513d601f19601f8201168201806040525081019061087f91906110b2565b82828151811061089157610891611305565b6020026020010151602001906001600160a01b031690816001600160a01b031681525050336001600160a01b03168282815181106108d1576108d1611305565b6020026020010151602001516001600160a01b0316148282815181106108f9576108f9611305565b60209081029190910101519015159052825183908290811061091d5761091d611305565b60200260200101516020015182828151811061093b5761093b611305565b6020026020010151604001818152505082818151811061095d5761095d611305565b60200260200101516000015182828151811061097b5761097b611305565b6020026020010151606001818152505082818151811061099d5761099d611305565b6020026020010151604001518282815181106109bb576109bb611305565b60209081029190910101516080015160ff9091169052600080546001600160a01b03166397644b9b8888858181106109f5576109f5611305565b905060200201356040518263ffffffff1660e01b8152600401610a1a91815260200190565b606060405180830381865afa158015610a37573d6000803e3d6000fd5b505050506040513d601f19601f82011682018060405250810190610a5b919061132f565b90508060000151838381518110610a7457610a74611305565b6020026020010151608001516020019063ffffffff16908163ffffffff16815250508060200151838381518110610aad57610aad611305565b6020026020010151608001516040019063ffffffff16908163ffffffff1681525050838281518110610ae157610ae1611305565b602002602001015160600151838381518110610aff57610aff611305565b602090810291909101015160a0015160ff9091169052600080546001600160a01b0316631b19de27898986818110610b3957610b39611305565b905060200201356040518263ffffffff1660e01b8152600401610b5e91815260200190565b606060405180830381865afa158015610b7b573d6000803e3d6000fd5b505050506040513d601f19601f82011682018060405250810190610b9f919061132f565b90508060000151848481518110610bb857610bb8611305565b602002602001015160a001516020019063ffffffff16908163ffffffff16815250508060200151848481518110610bf157610bf1611305565b602002602001015160a001516040019063ffffffff16908163ffffffff1681525050848381518110610c2557610c25611305565b602002602001015160800151848481518110610c4357610c43611305565b602090810291909101015160c0015160ff9091169052600080546001600160a01b031663efe072588a8a87818110610c7d57610c7d611305565b905060200201356040518263ffffffff1660e01b8152600401610ca291815260200190565b606060405180830381865afa158015610cbf573d6000803e3d6000fd5b505050506040513d601f19601f82011682018060405250810190610ce3919061132f565b90508060000151858581518110610cfc57610cfc611305565b602002602001015160c001516020019063ffffffff16908163ffffffff16815250508060200151858581518110610d3557610d35611305565b602002602001015160c001516040019063ffffffff16908163ffffffff1681525050858481518110610d6957610d69611305565b602002602001015160a00151858581518110610d8757610d87611305565b602090810291909101015160e0015160ff9091169052600080546001600160a01b0316636818b4528b8b88818110610dc157610dc1611305565b905060200201356040518263ffffffff1660e01b8152600401610de691815260200190565b606060405180830381865afa158015610e03573d6000803e3d6000fd5b505050506040513d601f19601f82011682018060405250810190610e27919061132f565b90508060000151868681518110610e4057610e40611305565b602002602001015160e001516020019063ffffffff16908163ffffffff16815250508060200151868681518110610e7957610e79611305565b602002602001015160e001516040019063ffffffff16908163ffffffff1681525050505050508080610eaa906110fa565b91505061077c565b50949350505050565b60008060208385031215610ece57600080fd5b823567ffffffffffffffff80821115610ee657600080fd5b818501915085601f830112610efa57600080fd5b813581811115610f0957600080fd5b8660208260051b8501011115610f1e57600080fd5b60209290920196919550909350505050565b602080825282518282018190526000919060409081850190868401855b82811015611057578151805115158552868101516001600160a01b031687860152858101518686015260608082015190860152608080820151805160ff1682880152602081015163ffffffff90811660a089015260408201511660c0880152505060a0810151805160ff1660e087810191909152602082015163ffffffff90811661010089015260408301511661012088015260c0830151805160ff16610140890152602081015163ffffffff9081166101608a015260408201511661018089015291509190910151805160ff166101a0870152602081015163ffffffff9081166101c08801526040820151166101e0870152905050610200939093019290850190600101610f4d565b5091979650505050505050565b60006020828403121561107657600080fd5b5051919050565b634e487b7160e01b600052601160045260246000fd5b60008160001904831182151516156110ad576110ad61107d565b500290565b6000602082840312156110c457600080fd5b81516001600160a01b03811681146110db57600080fd5b9392505050565b600082198211156110f5576110f561107d565b500190565b60006001820161110c5761110c61107d565b5060010190565b60008261113057634e487b7160e01b600052601260045260246000fd5b500490565b634e487b7160e01b600052604160045260246000fd5b6020808252810182905260006001600160fb1b0383111561116b57600080fd5b8260051b80856040850137600092016040019182525092915050565b60405160c0810167ffffffffffffffff811182821017156111aa576111aa611135565b60405290565b604051601f8201601f1916810167ffffffffffffffff811182821017156111d9576111d9611135565b604052919050565b805160ff811681146111f257600080fd5b919050565b6000602080838503121561120a57600080fd5b825167ffffffffffffffff8082111561122257600080fd5b818501915085601f83011261123657600080fd5b81518181111561124857611248611135565b611256848260051b016111b0565b818152848101925060c091820284018501918883111561127557600080fd5b938501935b828510156112f95780858a0312156112925760008081fd5b61129a611187565b85518152868601518782015260406112b38188016111e1565b9082015260606112c48782016111e1565b9082015260806112d58782016111e1565b9082015260a06112e68782016111e1565b908201528452938401939285019261127a565b50979650505050505050565b634e487b7160e01b600052603260045260246000fd5b805163ffffffff811681146111f257600080fd5b60006060828403121561134157600080fd5b6040516060810181811067ffffffffffffffff8211171561136457611364611135565b6040526113708361131b565b815261137e6020840161131b565b602082015261138f6040840161131b565b6040820152939250505056fea2646970667358221220c36e03f48a2b0fe2493d8f346c7ac092888a99afb93dcc93bb405d01441f27eb64736f6c634300080d0033",
  "immutableReferences": {},
  "source": "// SPDX-License-Identifier: MIT\npragma solidity >=0.8.0 <0.9.0;\n\nimport './interfaces/IGameManager.sol';\nimport '@openzeppelin/contracts/token/ERC721/extensions/ERC721Enumerable.sol';\nimport './interfaces/ICLNY.sol';\n\ncontract LandStats {\n  struct PointAndLevel {\n    uint8 level;\n    uint32 x;\n    uint32 y;\n  }\n\n  struct LandInfo {\n    bool owned;\n    address owner;\n    uint256 earned;\n    uint256 speed;\n    PointAndLevel baseStation;\n    PointAndLevel transport;\n    PointAndLevel robotAssembly;\n    PointAndLevel powerProduction;\n  }\n\n  struct ClnyStat {\n    uint256 burned;\n    uint256 minted;\n    uint256 avg;\n    uint256 max;\n  }\n\n  IGameManager public GameManager;\n\n\n  constructor (\n    IGameManager _GameManager\n  ) {\n    GameManager = _GameManager;\n  }\n\n  function getLandData(uint256[] calldata tokenIds) external view returns (LandInfo[] memory) {\n    IGameManager.AttributeData[] memory attributes = new IGameManager.AttributeData[](tokenIds.length);\n    attributes = GameManager.getAttributesMany(tokenIds);\n    LandInfo[] memory data = new LandInfo[](tokenIds.length);\n    for (uint256 i = 0; i < tokenIds.length; i++) {\n      data[i].owner = ERC721Enumerable(GameManager.MCAddress()).ownerOf(tokenIds[i]);\n      data[i].owned = data[i].owner == msg.sender;\n      data[i].earned = attributes[i].earned;\n      data[i].speed = attributes[i].speed;\n      data[i].baseStation.level = attributes[i].baseStation;\n      IGameManager.PlaceOnLand memory bsPlace = GameManager.baseStationsPlacement(tokenIds[i]);\n      data[i].baseStation.x = bsPlace.x;\n      data[i].baseStation.y = bsPlace.y;\n      data[i].transport.level = attributes[i].transport;\n      IGameManager.PlaceOnLand memory tPlace = GameManager.transportPlacement(tokenIds[i]);\n      data[i].transport.x = tPlace.x;\n      data[i].transport.y = tPlace.y;\n      data[i].robotAssembly.level = attributes[i].robotAssembly;\n      IGameManager.PlaceOnLand memory raPlace = GameManager.robotAssemblyPlacement(tokenIds[i]);\n      data[i].robotAssembly.x = raPlace.x;\n      data[i].robotAssembly.y = raPlace.y;\n      data[i].powerProduction.level = attributes[i].powerProduction;\n      IGameManager.PlaceOnLand memory ppPlace = GameManager.powerProductionPlacement(tokenIds[i]);\n      data[i].powerProduction.x = ppPlace.x;\n      data[i].powerProduction.y = ppPlace.y;\n    }\n    return data;\n  }\n\n  function getClnyStat() external view returns (ClnyStat memory result) {\n    uint256 colonyDaySupply = GameManager.clnyPerSecond() * 24 * 60 * 60;\n    uint256 landsClaimed = ERC721Enumerable(GameManager.MCAddress()).totalSupply();\n    uint256 totalShare = GameManager.totalShare();\n    uint256 maxLandShares = GameManager.maxLandShares();\n\n    for (uint256 reason = 0; reason <= 99; reason++) {\n      result.burned += ICLNY(GameManager.CLNYAddress()).burnedStats(reason);\n      result.minted += ICLNY(GameManager.CLNYAddress()).mintedStats(reason);\n    }\n    \n    result.avg = colonyDaySupply / landsClaimed;\n    result.max = ( colonyDaySupply / totalShare ) * maxLandShares;\n    return result;\n  }\n}",
  "sourcePath": "/Users/maxim/work/marscolony/contracts/contracts/LandStats.sol",
  "compiler": {
    "name": "solc",
    "version": "0.8.13+commit.abaa5c0e.Emscripten.clang"
  },
  "schemaVersion": "3.4.7",
  "updatedAt": "2022-07-12T11:49:17.125Z",
  "networkType": "ethereum",
  "devdoc": {
    "kind": "dev",
    "methods": {},
    "version": 1
  },
  "userdoc": {
    "kind": "user",
    "methods": {},
    "version": 1
  }
}